:020000040000FA
:040000002EEF00F0EF
:060008005682B4ED09F080
:100018005680D8CF03F0E8CF04F0E0CF05F09EA0DB
:1000280011D03CEC09F0000E026E010E016EAAEC34
:1000380009F041804A2A140E4A6403D0000E4A6E21
:100048003D809E9005C0E0FF04C0E8FF03C0D8FFD4
:10005800569010004EEF07F06F500F0B136E1350B1
:100068009009776E18D060CF12F035D050CF12F0CB
:1000780032D020CE12F02FD030CE12F02CD040CE7D
:1000880012F029D050CE12F026D060CE12F023D034
:1000980070CE12F020D01350106E116A1150000A61
:1000A800D8A419D01050000AD8B4DDD7010AD8B4A2
:1000B800DDD7030AD8B4DDD7010AD8B4DDD7070ADB
:1000C800D8B4DDD7010AD8B4DDD7030AD8B4DDD750
:1000D800010AD8B4DDD712AEA5D020EE03F00E5039
:1000E800D9260F50DA2260501F0BDF6E20EE04F085
:1000F8000E50D9260F50DA2264CFDFFF20EE05F02C
:100108000E50D9260F50DA2263CFDFFF20EE06F01B
:100118000E50D9260F50DA2262CF10F0030E1016B7
:1001280062CF06F0076A000E096E080E086E01EC31
:1001380006F006501010DF6E6150106E116A050E41
:10014800D89010361136E82EFBD720EE06F00E5068
:10015800D9260F50DA221050DE121150DD1220EE8F
:1001680002F00E50D9260F50DA22030EDF6E65BC5E
:1001780068D020EE01F00E50D9260F50DA22010E79
:10018800DF6E20EE10F00E50D9260F50DA2265509F
:100198000F0BDF6E20EE10F00E50D9260F50DA222A
:1001A800080EDF6441D01ED0000E606E3BD0000EFA
:1001B8000F010ED0000E0E01206F34D0000E0E017C
:1001C800306F30D0000E0E01406F2CD0000E0E01A3
:1001D800506F28D0000E0E01606F24D0000E0E0163
:1001E800706F20D01350106E116A1150000AD8A4F5
:1001F80019D01050000AD8B4D7D7010AD8B4D7D725
:10020800030AD8B4D7D7010AD8B4D8D7070AD8B4BC
:10021800D9D7010AD8B4DAD7030AD8B4DBD7010A88
:10022800D8B4DCD7000E1200080E0E24066E000E9D
:100238000F20076E660E086E0F0E096E00EC09F0AF
:1002480027D020EE01F00E50D9260F50DA22020EE8
:10025800DF6E1ED0000E606E3BD0000E0F010ED078
:10026800000E0E01206F34D0000E0E01306F30D01A
:10027800000E0E01406F2CD0000E0E01506F28D0DA
:10028800000E0E01606F24D0000E0E01706F20D09A
:100298001350106E116A1150000AD8A419D01050CA
:1002A800000AD8B4D7D7010AD8B4D7D7030AD8B424
:1002B800D7D7010AD8B4D8D7070AD8B4D9D7010AEA
:1002C800D8B4DAD7030AD8B4DBD7010AD8B4DCD754
:1002D800010E120020EE01F00C50D9260D50DA2242
:1002E800020EDE18D8A47FD020EE10F00C50D926CC
:1002F8000D50DA22080EDF6E000E1F6E000E1E6E05
:100308001EC010F01FC011F0D890103611360CC066
:1003180012F00DC013F01050122611501322080EBF
:100328001224D96E000E1320DA6E0EC014F00FC01E
:1003380015F0D89014361536D890143615361E5048
:1003480014261F501522D89014361536D890143616
:1003580015360E0E1424E16E000E1520E26EE6CF5F
:1003680016F0E5CF17F017C016F0176A1650DF6EB3
:100378000EC010F00FC011F0D89010361136D8907A
:10038800103611361E5010261F501122D8901036E4
:100398001136D890103611360E0E1024D96E000E74
:1003A8001120DA6E1EC012F01FC013F0D89012365A
:1003B80013360CC014F00DC015F01250142613504B
:1003C8001522090E1424E16E000E1520E26EDFCF0F
:1003D800E7FF1E4A1F2A1F5005E1040E1E5CD8B015
:1003E80012008ED71200000E1F6E000E1E6E1EC069
:1003F80010F01FC011F0D890103611360CC012F052
:100408000DC013F01050122611501322080E12249A
:10041800D96E000E1320DA6EDF50146E1450166E6B
:10042800156A1EC017F01FC018F0D8901736183676
:100438000CC019F00DC01AF01750192618501A22BE
:10044800090E1924D96E000E1A20DA6EDF501B6EC1
:100458001B501512000E16120EC01CF00FC01DF016
:10046800D8901C361D36D8901C361D361E501C26BA
:100478001F501D22D8901C361D36D8901C361D36AC
:100488000E0E1C24D96E000E1D20DA6E15C0DEFF7C
:1004980016C0DDFF0EC010F00FC011F0D890103656
:1004A8001136D8901036113610C006F011C007F07A
:1004B800000E096E440E086E29EC09F0C60E126E85
:1004C800000E136E06501226075013221EC006F0A7
:1004D8001FC007F0000E096E440E086E29EC09F0E3
:1004E80006501226075013220EC014F00FC015F044
:1004F800D89014361536D890143615361E50142652
:100508001F501522D89014361536D8901436153643
:10051800100E1424D96E000E1520DA6E12C0DEFFFC
:1005280013C0DDFF1E4A1F2A1F5005E1040E1E5C82
:10053800D8B012005CD7120020EE06F02050D92661
:100548002150DA22DF50226E2250066E076A000E12
:10055800096E040E086E01EC06F00650266E26049D
:1005680060D020C008F021C009F080EC06F08ED0E1
:1005780020C006F021C007F07EEC08F087D020C02C
:1005880006F021C007F0D0EC07F080D020C006F0BC
:1005980021C007F0B4EC08F079D020C006F021C0E3
:1005A80007F099EC08F072D020C006F021C007F0DF
:1005B800EEEC04F06BD020C00DF021C00EF07BEC07
:1005C80007F064D020C006F021C007F0B7EC09F0AE
:1005D8005DD020C006F021C007F0BBEC06F056D075
:1005E80020C006F021C007F0F40E2624086E096A20
:1005F800FF0E0922B8EC09F049D020C006F021C04E
:1006080007F063EC08F042D020C00CF021C00DF0D8
:10061800F00E26240E6E0F6AFF0E0F226EEC01F00C
:1006280035D02650226E236A2350000AD8A42ED033
:100638002250010AD8B42AD0030AD8B492D7010AA2
:10064800D8B496D7070AD8B49AD7010AD8B49ED78F
:10065800030AD8B4A2D7010AD8B4A6D70E0AD8B4C8
:10066800AAD7030AD8B4AED7010AD8B4B2D7070AB2
:10067800D8B4B6D7010AD8B4B3D7020AD8B4BDD70C
:100688001F0AD8B4C1D7010AD8B4BED720EE01F0EA
:100698002050D9262150DA22020EDE18D8A41200E2
:1006A80020EE02F02050D9262150DA22030EDF6E08
:1006B80020EE01F02050D9262150DA22010EDF6EFB
:1006C80020EE04F02050D9262150DA22DE6ADE6AB4
:1006D800DE6ADD6A2650040D20EE06F02050D92689
:1006E8002150DA22F3CFDFFF20C006F021C007F047
:1006F80026C008F0B7EC05F020C00BF021C00CF0C4
:100708008EEC03F004D00F0140B94EEC09F060A65E
:100718001200F9D7830E776E60A60AD0840E776E22
:1007280060A606D0850E776E60A602D0F3D7FF00CC
:1007380074B4FDD7000E436E20EE04F00B50D9269A
:100748000C50DA22DF50646E20EE05F00B50D926EB
:100758000C50DA22DF50636E20EE06F00B50D926DB
:100768000C50DA22DF500D6E030E0D1620EE06F047
:100778000B50D9260C50DA22DF50FC0B080DF35031
:100788000D10626E628620EE06F00B50D9260C50D2
:10079800DA22DECF0DF0DDCF0EF0050E0F6ED89009
:1007A8000E320D320F2EFBD70D50616E000E656EA6
:1007B80020EE01F00B50D9260C50DA22020EDE187A
:1007C800D8A402D0658C5AD020EE10F00B50D92650
:1007D8000C50DA22DF500D6E0F0E0D1665500D18F5
:1007E800FE0B0D18656E20EE10F00B50D9260C503C
:1007F800DA22DF500D6ED8900D32070E0D160D4619
:1008080065500D18FD0B0D18656E20EE10F00B509D
:10081800D9260C50DA22DF500D6ED8900D32D890C0
:100828000D32030E0D160D460D4665500D18FB0BC7
:100838000D18656E20EE10F00B50D9260C50DA22F8
:10084800DF500D6ED8900D32D8900D32D8900D3201
:10085800010E0D160D460D460D4665500D18F70B89
:100868000D18656E660E066E0F0E076E080E0B24C9
:10087800086E000E0C20096E00EC09F060864188B5
:1008880012000A6E0A50D8A450D006A003D08C508B
:10089800100902D08C50EF0B8C6E06A203D08C503E
:1008A800400902D08C50BF0B8C6E06A403D08A502E
:1008B800010902D08A50FE0B8A6E06A603D0895021
:1008C800020902D08950FD0B896E06A803D0895011
:1008D800080902D08950F70B896E06AA03D08950FF
:1008E800200902D08950DF0B896E06AC03D08D50E9
:1008F800020902D08D50FD0B8D6E06AE03D08950D3
:10090800800902D089507F0B896E07A003D08C50D4
:10091800010902D08C50FE0B8C6E07A203D08C50BC
:10092800040902D08C50FB0B8C6E0A04D8A4120068
:1009380006A003D08C50200902D08C50DF0B8C6E9F
:1009480006A203D08C50800902D08C507F0B8C6E8D
:1009580006A403D08A50020902D08A50FD0B8A6E81
:1009680006A603D08950040902D08950FB0B896E72
:1009780006A803D08950100902D08950EF0B896E60
:1009880006AA03D08D50010902D08D50FE0B8D6E42
:1009980006AC03D08D50040902D08D50FB0B8D6E30
:1009A80006AE03D08950400902D08950BF0B896E2A
:1009B80007A003D08C50020902D08C50FD0B8C6E1E
:1009C80007A204D08C5008098C6E12008C50F70BCB
:1009D8008C6E120020EE01F00650D9260750DA225C
:1009E800020EDE18D8A456D020EE10F00650D926F4
:1009F8000750DA22010EDF6E20EE08F00650D926E5
:100A08000750DA22D044E846030B010BDF6E20EED4
:100A180009F00650D9260750DA2238A802D0010E6C
:100A280001D0000EDF6E20EE0AF00650D9260750DE
:100A3800DA2238A002D0010E01D0000EDF6E20EEBF
:100A48000BF00650D9260750DA22000EDF6E20EE92
:100A58000CF00650D9260750DA222EC0DFFF20EE10
:100A68000DF00650D9260750DA2230C0DFFF20EEFD
:100A78000EF00650D9260750DA2232C0DFFF20EEEA
:100A88000FF00650D9260750DA2234C0DFFFD09C79
:100A98003898120020EE10F00650D9260750DA22B6
:100AA800010EDF6E20EE08F00650D9260750DA2234
:100AB800FF0EDF6E1200116E0DC014F00EC015F09F
:100AC800000E136E000E126E0FC006F010C007F075
:100AD800000E096E0A0E086EA7EC07F006C016F0A5
:100AE80007C017F01150D8B417D031D012501410D5
:100AF800126E13501510136E14C006F015C007F0CF
:100B080042EC08F006C014F007C015F0FF0E1624DA
:100B1800166EFF0E1720176E16501710D8B41BD07C
:100B2800E5D712501410126E13501510136E14C01E
:100B380006F015C007F0F7EC07F006C014F007C080
:100B480015F0FF0E1624166EFF0E1720176E16509E
:100B58001710D8A4E6D712C006F013C007F011503A
:100B680045EC04F0120020EE02F00650D92607509A
:100B7800DA22030EDF6E20EE01F00650D926075068
:100B8800DA22010EDF6E0850096E0A6AD89009361B
:100B98000A36D89009360A3620EE06F00650D926CD
:100BA8000750DA2209C0DEFF0AC0DDFF2C0E096EED
:100BB800010E0A6E20EE3FF0DECF0BF0DDCF0CF019
:100BC80009500B260A500C2220EE04F00650D926B4
:100BD8000750DA220BC0DEFF0CC0DDFF20EE06F066
:100BE8000650D9260750DA22DF9020EE06F006508C
:100BF800D9260750DA22DF921200000E0B6E09AEDA
:100C080006D0086C091ED8B0092A010E0B6E07AE73
:100C180006D0066C071ED8B0072A010E0B1A000E64
:100C28000D6E000E0C6E08500910D8B41CD0010EC1
:100C38000A6E04D0D890083609360A2A09AEFAD7BF
:100C4800D8900C360D360850065C09500758D8A0C5
:100C580005D00850065E0950075A0C80D890093212
:100C680008320A2EEDD70B50D8B404D00C6C0D1EE8
:100C7800D8B00D2A0CC006F00DC007F012004C5079
:100C8800D8A413D0000E076E000E066E000E45ECB9
:100C980004F04FC00DF050C00EF053C00FF054C018
:100CA80010F055505FEC05F012D0000E076E000EE4
:100CB800066E555045EC04F051C00DF052C00EF0D0
:100CC80053C00FF054C010F0000E5FEC05F051C097
:100CD80006F052C007F0F7EC07F006C051F007C065
:100CE80052F04FC006F050C007F042EC08F006C0C2
:100CF8004FF007C050F0120020EE01F00850D9263E
:100D08000950DA22020EDE18D8A4120020EE10F0E4
:100D18000850D9260950DA22040EDF6E20EE08F0BA
:100D28000850D9260950DA2296EC09F00650DF6EF1
:100D380020EE09F00850D9260950DA2291EC09F082
:100D48000650DF6E20EE0AF00850D9260950DA2244
:100D58008CEC09F00650DF6E20EE0BF00850D92617
:100D68000950DA229BEC09F00650DF6E120020EEE3
:100D780001F00650D9260750DA22020EDE18D8A450
:100D8800120020EE10F00650D9260750DA22040E81
:100D9800DF6E20EE08F00650D9260750DA220550FB
:100DA800DF6E20EE09F00650D9260750DA2204C07B
:100DB800DFFF20EE0AF00650D9260750DA220B5042
:100DC800DF6E20EE0BF00650D9260750DA220AC053
:100DD800DFFF1200500E0D01F06F550EF16F550E2A
:100DE800F26F550EF36F000E0F01186F0B0E196F8F
:100DF8001A691B691C691D69000E1E6F000E1F6FA2
:100E0800000E006F010E016F01874050026F028DC6
:100E18003FC003FF000E046F010E056F05877F0EAC
:100E2800066F0769000E086F200E096F0987000E0C
:100E38000A6F000E0B6F1200800E6F6E6E50E00B83
:100E4800800AD8A4FBD7000E0D01F86F000E0F0121
:100E5800406F000E606E000E506F000E0E01206F86
:100E6800000E306F000EA36EA568000EA46E000E73
:100E78000D01FA6F900E776E15EC09F0EEEC06F0A6
:100E88007368000E6F6E6ECF06F0E00E0616D8B4CB
:100E98001200F9D75E0EF66E130EF76E000EF86E9E
:100EA80000EE4DF010EE09F00900F5CFEEFFE55029
:100EB800E150FAE100EEC6F012EE20F0EE6AE550DD
:100EC800E150FCE1E250FAE100EE60F0660EEE6AF5
:100ED800E806FDE100EE38F0150EEE6AE806FDE1E1
:100EE80056905692000EF86E0001E9EF08F020EED9
:100EF80001F00D50D9260E50DA22020EDE18D8A4C1
:100F080013D020EE08F00D50D9260E50DA220CC06E
:100F180006F00DC007F0000E096E0A0E086EA7EC69
:100F280007F00650DF6E120020EE08F00D50D926AB
:100F38000E50DA22DF500F6E0F500A0DF3CF0CF06F
:100F4800F4CF0DF01200000E0B6E000E0A6E085062
:100F58000910D8B41CD0010E0C6E04D0D8900836F5
:100F680009360C2A09AEFAD7D8900A360B3608503B
:100F7800065C09500758D8A005D00850065E0950ED
:100F8800075A0A80D890093208320C2EEDD70AC0C9
:100F980006F00BC007F0120020EE01F00650D9262B
:100FA8000750DA22020EDE18D8A4120020EE10F044
:100FB8000650D9260750DA22010EDF6E000E0A6E9F
:100FC800000E096E094A0A2A0A5004E1030E095C58
:100FD800D8A0F8D720EE08F00650D9260750DA2214
:100FE800FF0EDF6E120006A018D0FE0E06140A6E61
:100FF800030E07140B6ED8900B30086E0A300A6E79
:1010080008C00BF0000E0A100A6E020E0B100B6ED1
:101018000AC006F00BC007F01200D8900730086E1F
:101028000630066E08C007F006C006F007C007F0D5
:1010380012003DA013D0020E286E000E2B6E000E7B
:101048002C6E000E2D6E000E2E6E040E2D6E270EC9
:10105800206E000E216EA0EC02F03D90270E0E6E61
:10106800000E0F6E30EC00F00009D8B41200270E05
:10107800206E000E216EA0EC02F0120007A215D01F
:10108800FF0E0614086E010E0714096ED890083476
:10109800086E0934096E010E0810086E0950096EB1
:1010A80008C006F009C007F01200D8900634066E92
:1010B8000734076E06C006F007C007F0120020EEDE
:1010C80001F00650D9260750DA22020EDE18D8A4FD
:1010D800120020EE10F00650D9260750DA22010E31
:1010E800DF6E20EE08F00650D9260750DA22FF0EF0
:1010F800DF6E120020EE01F00650D9260750DA22E2
:10110800020EDE18D8A4120020EE10F00650D926E0
:101118000750DA22010EDF6E20EE08F00650D926BD
:101128000750DA22FF0EDF6E120020EE01F00650A3
:10113800D9260750DA22020EDE18D8A4120020EEB3
:1011480010F00650D9260750DA22010EDF6E20EE85
:1011580008F00650D9260750DA22FF0EDF6E12007B
:1011680020EE01F00650D9260750DA22020EDE18CA
:10117800D8A4120020EE10F00650D9260750DA2223
:10118800010EDF6E20EE08F00650D9260750DA224D
:10119800FF0EDF6E12009250010B926E9350FC0B03
:1011A800936E9650F80B966E000E956E000E076EB5
:1011B800000E066E000E45EC04F0000E076E000EE1
:1011C800066E010E45EC04F012006CEC09F0D068D4
:1011D80041B04190A5EC09F006040710D8A408D046
:1011E80043EC06F0000E076E000E066EA0EC09F048
:1011F8001DEC08F00400ECD7000E0A6E0A50082413
:10120800D96E000E0920DA6E0A500624E16E000E2F
:101218000720E26EDFCFE7FF0A2A070E0A64EED73F
:10122800120070807082709470967098709A708CAA
:10123800708E71867188718A7184719271907280D2
:1012480072927284718C718E120006500802F3CF6C
:101258000AF0F4CF0BF006500902F3500B260750A2
:101268000802F3500B260AC006F00BC007F0120064
:10127800000E016E000E026ECECF01F0CFCF02F04D
:1012880000F09E0E0226570E012602C0CFFF5B0E0D
:10129800CE6E1200020E076EAA0E066E000E45EC08
:1012A80004F0000E076E000E066E010E45EC04F009
:1012B8001200000E896E000E8A6E000E8B6E0C0EE8
:1012C800926E880E936EBF0E946ED08E4186120079
:1012D800D18004005DEC09F020EC07F085EC09F002
:1012E80079EC09F0CFEC08F01200D38CD38AD388BC
:1012F8003D0ECD6E9E0ECF6E570ECE6E9D80CD806C
:101308001200F28EF28CD08ED08EF28C9F9012004A
:10131800000E076EFE0E066E1200000E076EFE0E21
:10132800066E1200000E076EFE0E066E1200000E0C
:10133800076E000E066E120006C044F007C045F0A6
:10134800120044C006F045C007F0120001C044F086
:0F13580002C045F0120011000100010014000155
:0A1368000600569211001200120058
:020000040020DA
:08000000FFFFFFFFFFFFFFFF00
:020000040030CA
:0E000000FF081F1EFF8281FF0FC00FE00F40A0
:00000001FF
