:020000040000FA
:040000002FEF00F0EE
:060008004C82E3ED0DF057
:100018004C80D8CF25F0E8CF26F0E0CF27F09EA07F
:1000280012D037EC0DF0000E246E010E236ED6ECC4
:100038000DF00001CB810E2A140E0E6403D0000EC1
:100048000E6E01809E9027C0E0FF26C0E8FF25C005
:10005800D8FF4C901000D9EF0AF0F00E2A24306E29
:10006800FF0E2B20316E20EE01F02850D9262950A2
:10007800DA22020EDE18D8A48ED020EE10F0285016
:10008800D9262950DA22080EDF6E30503110D8A454
:1000980041D020EE08F02850D9262950DA222250E3
:1000A800DF6E20EE09F02850D9262950DA2221C027
:1000B800DFFF20EE0AF02850D9262950DA224B50CB
:1000C800DF6E20EE0BF02850D9262950DA224AC0DC
:1000D800DFFF20EE0CF02850D9262950DA222050D4
:1000E800DF6E20EE0DF02850D9262950DA221FC0E5
:1000F800DFFF20EE0EF02850D9262950DA221E50B4
:10010800DF6E20EE0FF02850D9262950DA221DC0C4
:10011800DFFF120020EE08F02850D9262950DA22F5
:100128001C50DF6E20EE09F02850D9262950DA221B
:100138001BC0DFFF20EE0AF02850D9262950DA220A
:100148001A50DF6E20EE0BF02850D9262950DA22FB
:1001580019C0DFFF20EE0CF02850D9262950DA22EA
:100168001850DF6E20EE0DF02850D9262950DA22DB
:1001780017C0DFFF20EE0EF02850D9262950DA22CA
:100188001650DF6E20EE0FF02850D9262950DA22BB
:1001980015C0DFFF120030503110D8A463D020EE14
:1001A80008F02850D9262950DA22DF502C6E2C501E
:1001B8002E6E2D6A20EE09F02850D9262950DA2211
:1001C800DF502F6E2F502D10216E2E50226E20EEF4
:1001D8000AF02850D9262950DA22DF502C6E2C50EC
:1001E8002E6E2D6A20EE0BF02850D9262950DA22DF
:1001F800DF502F6E2F502D104A6E2E504B6E20EE72
:100208000CF02850D9262950DA22DF502C6E2C50B9
:100218002E6E2D6A20EE0DF02850D9262950DA22AC
:10022800DF502F6E2F502D101F6E2E50206E20EE97
:100238000EF02850D9262950DA22DF502C6E2C5087
:100248002E6E2D6A20EE0FF02850D9262950DA227A
:10025800DF502F6E2F502D101D6E2E501E6EC2ECCB
:1002680008F0120020EE08F02850D9262950DA228A
:10027800DF502C6E2C502E6E2D6A20EE09F028507F
:10028800D9262950DA22DF502F6E2F502D101B6EE1
:100298002E501C6E20EE0AF02850D9262950DA225A
:1002A800DF502C6E2C502E6E2D6A20EE0BF028504D
:1002B800D9262950DA22DF502F6E2F502D10196EB3
:1002C8002E501A6E20EE0CF02850D9262950DA222A
:1002D800DF502C6E2C502E6E2D6A20EE0DF028501B
:1002E800D9262950DA22DF502F6E2F502D10176E85
:1002F8002E50186E20EE0EF02850D9262950DA22FA
:10030800DF502C6E2C502E6E2D6A20EE0FF02850E8
:10031800D9262950DA22DF502F6E2F502D10156E56
:100328002E50166E9CD76F500F0B356E35509009B6
:10033800776E18D060CF34F035D050CF34F032D04B
:1003480020CE34F02FD030CE34F02CD040CE34F044
:1003580029D050CE34F026D060CE34F023D070CEE1
:1003680034F020D03550326E336A3350000AD8A4A6
:1003780019D03250000AD8B4DDD7010AD8B4DDD775
:10038800030AD8B4DDD7010AD8B4DDD7070AD8B430
:10039800DDD7010AD8B4DDD7030AD8B4DDD7010AFE
:1003A800D8B4DDD734AEA5D020EE03F03050D9262E
:1003B8003150DA2260501F0BDF6E20EE04F030500F
:1003C800D9263150DA2264CFDFFF20EE05F0305015
:1003D800D9263150DA2263CFDFFF20EE06F0305005
:1003E800D9263150DA2262CF32F0030E321662CFAC
:1003F80028F0296A000E2B6E080E2A6E0DEC09F003
:1004080028503210DF6E6150326E336A050ED89074
:1004180032363336E82EFBD720EE06F03050D92698
:100428003150DA223250DE123350DD1220EE02F063
:100438003050D9263150DA22030EDF6E65BC68D001
:1004480020EE01F03050D9263150DA22010EDF6E4D
:1004580020EE10F03050D9263150DA2265500F0BBB
:10046800DF6E20EE10F03050D9263150DA22080E17
:10047800DF6441D01ED0000E606E3BD0000E0F012D
:100488000ED0000E0E01206F34D0000E0E01306F1A
:1004980030D0000E0E01406F2CD0000E0E01506FB0
:1004A80028D0000E0E01606F24D0000E0E01706F70
:1004B80020D03550326E336A3350000AD8A419D090
:1004C8003250000AD8B4D7D7010AD8B4D7D7030A0C
:1004D800D8B4D7D7010AD8B4D8D7070AD8B4D9D747
:1004E800010AD8B4DAD7030AD8B4DBD7010AD8B4DA
:1004F800DCD7000E1200080E3024286E000E3120C2
:10050800296E660E2A6E0F0E2B6E0EEC0DF027D09C
:1005180020EE01F03050D9263150DA22020EDF6E7B
:100528001ED0000E606E3BD0000E0F010ED0000EE4
:100538000E01206F34D0000E0E01306F30D0000E47
:100548000E01406F2CD0000E0E01506F28D0000E07
:100558000E01606F24D0000E0E01706F20D0355050
:10056800326E336A3350000AD8A419D03250000AC8
:10057800D8B4D7D7010AD8B4D7D7030AD8B4D7D7AD
:10058800010AD8B4D8D7070AD8B4D9D7010AD8B439
:10059800DAD7030AD8B4DBD7010AD8B4DCD7010EFE
:1005A800120020EE06F03450D9263550DA22DF50FA
:1005B800366E3650286E296A000E2B6E040E2A6E8F
:1005C8000DEC09F028503C6E3C04D8B474D03CC003
:1005D8003AF03B6A70D034C02AF035C02BF0A5EC55
:1005E80006F09ED034C02AF035C02BF003EC0AF098
:1005F80097D034C028F035C029F039EC0CF090D0F1
:1006080034C028F035C029F088EC0BF089D034C00C
:1006180028F035C029F08AEC0CF082D034C028F0DC
:1006280035C029F06FEC0CF07BD034C031F035C008
:1006380032F001EC06F074D034C02FF035C030F041
:1006480033EC0BF06DD034C028F035C029F0E8EC5D
:100658000DF066D034C028F035C029F078EC0AF0E7
:100668005FD034C028F035C029F0F40E3C242A6E3F
:100678002B6AFF0E2B22E9EC0DF052D034C028F083
:1006880035C029F073EC08F04BD034C028F035C0E1
:1006980029F0000E2B6E100E2A6E31EC00F040D0BF
:1006A80034C028F035C029F0000E2B6E110E2A6ECA
:1006B80031EC00F035D03C50366E376A3750000ABE
:1006C800D8A42ED03650010AD8B485D7030AD8B496
:1006D80089D7010AD8B48DD7070AD8B491D7010AA7
:1006E800D8B495D7030AD8B499D7010AD8B49DD7F6
:1006F8000E0AD8B4A1D7030AD8B4A5D7010AD8B42A
:10070800A9D7070AD8B4ADD7010AD8B4AAD7020A1C
:10071800D8B4B4D71F0AD8B4B8D7010AD8B4C0D748
:1007280020EE01F03450D9263550DA22020EDE18B8
:10073800D8A4120020EE02F03450D9263550DA221F
:10074800030EDF6E20EE01F03450D9263550DA2240
:10075800010EDF6E20EE04F03450D9263550DA222F
:10076800DE6ADE6ADE6ADD6A3C50040D20EE06F0C1
:100778003450D9263550DA22F3CFDFFF34C028F0C1
:1007880035C029F03CC02AF08CEC09F034C02DF0BB
:1007980035C02EF09FEC04F004D00F0140B96AEC8C
:1007A8000DF060A61200F9D7480E2A6E000E2B6EC7
:1007B800000E2D6E0A0E2C6E000E2F6E020E2E6E7F
:1007C800DAEC0CF0210E2A6E000E2B6E000E2D6E48
:1007D8000D0E2C6E000E2F6E020E2E6EDAEC0CF043
:1007E800212807E12228D8A404D0000E226E000E8A
:1007F800216E4A0E2A6E000E2B6E000E2D6E100E04
:100808002C6E000E2F6E020E2E6EDAEC0CF04A28BB
:1008180007E14B28D8A404D0000E4B6E000E4A6E98
:100828001F0E2A6E000E2B6E000E2D6E130E2C6EF0
:10083800000E2F6E020E2E6EDAEC0CF01F2807E168
:100848002028D8A404D0000E206E000E1F6E1D0EA6
:100858002A6E000E2B6E000E2D6E160E2C6E000EDC
:100868002F6E020E2E6EDAEC0CF01D2807E11E2802
:10087800D8A404D0000E1E6E000E1D6E1B0E2A6E2C
:10088800000E2B6E000E2D6E190E2C6E000E2F6EA4
:10089800020E2E6EDAEC0CF01B2807E11C28D8A4F7
:1008A80004D0000E1C6E000E1B6E190E2A6E000E70
:1008B8002B6E000E2D6E1C0E2C6E000E2F6E020E6F
:1008C8002E6EDAEC0CF0192807E11A28D8A404D007
:1008D800000E1A6E000E196E170E2A6E000E2B6E81
:1008E800000E2D6E1F0E2C6E000E2F6E020E2E6E39
:1008F800DAEC0CF0172807E11828D8A404D0000E69
:10090800186E000E176E150E2A6E000E2B6E000E56
:100918002D6E220E2C6E000E2F6E020E2E6EDAEC4D
:100928000CF0152807E11628D8A41200000E166E40
:10093800000E156E1200830E776E60A60AD0840E24
:10094800776E60A606D0850E776E60A602D0F3D7C4
:10095800FF0074B4FDD7000E0001CD6F20EE04F047
:100968002D50D9262E50DA22DF50646E20EE05F085
:100978002D50D9262E50DA22DF50636E20EE06F075
:100988002D50D9262E50DA22DF502F6E030E2F1647
:1009980020EE06F02D50D9262E50DA22DF50FC0B1F
:1009A800080DF3502F10626E628620EE06F02D506F
:1009B800D9262E50DA22DECF2FF0DDCF30F0050E0B
:1009C800316ED89030322F32312EFBD72F50616ED6
:1009D800000E656E20EE01F02D50D9262E50DA2239
:1009E800020EDE18D8A402D0658C5AD020EE10F082
:1009F8002D50D9262E50DA22DF502F6E0F0E2F16CB
:100A080065502F18FE0B2F18656E20EE10F02D5034
:100A1800D9262E50DA22DF502F6ED8902F32070EAB
:100A28002F162F4665502F18FD0B2F18656E20EED8
:100A380010F02D50D9262E50DA22DF502F6ED89084
:100A48002F32D8902F32030E2F162F462F4665507F
:100A58002F18FB0B2F18656E20EE10F02D50D9269D
:100A68002E50DA22DF502F6ED8902F32D8902F32A6
:100A7800D8902F32010E2F162F462F462F4665503D
:100A88002F18F70B2F18656E660E286E0F0E296E3D
:100A9800080E2D242A6E000E2E202B6E0EEC0DF063
:100AA80060860001CB8912002C6E2C50D8A450D03F
:100AB80028A003D08C50100902D08C50EF0B8C6EFC
:100AC80028A203D08C50400902D08C50BF0B8C6EEA
:100AD80028A403D08A50010902D08A50FE0B8A6EDE
:100AE80028A603D08950020902D08950FD0B896ECF
:100AF80028A803D08950080902D08950F70B896EBD
:100B080028AA03D08950200902D08950DF0B896EAA
:100B180028AC03D08D50020902D08D50FD0B8D6E8C
:100B280028AE03D08950800902D089507F0B896E86
:100B380029A003D08C50010902D08C50FE0B8C6E7A
:100B480029A203D08C50040902D08C50FB0B8C6E68
:100B58002C04D8A4120028A003D08C50200902D05D
:100B68008C50DF0B8C6E28A203D08C50800902D0E9
:100B78008C507F0B8C6E28A403D08A50020902D0B7
:100B88008A50FD0B8A6E28A603D08950040902D02A
:100B98008950FB0B896E28A803D08950100902D010
:100BA8008950EF0B896E28AA03D08D50010902D015
:100BB8008D50FE0B8D6E28AC03D08D50040902D0E9
:100BC8008D50FB0B8D6E28AE03D08950400902D0A2
:100BD8008950BF0B896E29A003D08C50020902D01E
:100BE8008C50FD0B8C6E29A204D08C5008098C6E99
:100BF80012008C50F70B8C6E120020EE01F0315071
:100C0800D9263250DA22020EDE18D8A457D020EEA8
:100C180010F03150D9263250DA22010EDF6E20EE64
:100C280008F03150D9263250DA22D044E846030B76
:100C3800010BDF6E20EE09F03150D9263250DA224E
:100C48000001C6A902D0010E01D0000EDF6E20EE11
:100C58000AF03150D9263250DA22C6A102D0010E4C
:100C680001D0000EDF6E20EE0BF03150D926325045
:100C7800DA22000EDF6E20EE0CF03150D926325009
:100C8800DA2236C0DFFF20EE0DF03150D92632507F
:100C9800DA2238C0DFFF20EE0EF03150D92632506C
:100CA800DA223AC0DFFF20EE0FF03150D926325059
:100CB800DA223CC0DFFFD09CC699120020EE10F06B
:100CC8003150D9263250DA22010EDF6E20EE0AF0BA
:100CD8003150D9263250DA22DF50D8B40FD0000173
:100CE800C68120EE09F03150D9263250DA22DF5081
:100CF800D8B41ED0C68737EC07F01AD020EE09F01A
:100D08003150D9263250DA22DF50D8B408D031C059
:100D180028F032C029F006EC0BF037EC07F020EE93
:100D280008F03150D9263250DA22DF50D8A4FF001B
:100D380020EE08F03150D9263250DA22FF0EDF6E4D
:100D4800120020EE01F02A50D9262B50DA22020E8A
:100D5800DE18D8A447D020EE10F02A50D9262B5000
:100D6800DA22060EDF6E20EE08F02A50D9262B5024
:100D7800DA22E6EC0DF0DF6E20EE09F02A50D926D3
:100D88002B50DA22AEEC0DF029C028F0296A285041
:100D9800DF6E20EE0AF02A50D9262B50DA22AEEC6C
:100DA8000DF02850DF6E20EE0BF02A50D9262B507C
:100DB800DA2299EC0DF02850DF6E20EE0CF02A5064
:100DC800D9262B50DA22B3EC0DF02850DF6E20EE36
:100DD8000DF02A50D9262B50DA22DBEC0DF02850E2
:100DE800DF6E120020EE04F02A50D9262B50DA22AA
:100DF800DECF28F0DDCF29F0B6EC07F028C02EF0C2
:100E080029C02FF020EE08F02A50D9262B50DA22DC
:100E1800DF50D8A40AD02E1C2C6E2F1C2D6E075024
:100E28002C14076E08502D1405D02E500710076E8D
:100E38002F500810086E07500810D8B40AD0E6ECF6
:100E48000DF0E806D8B412000180010EDFEC0DF0B9
:100E58001200E6EC0DF0E806D8A412000180000E9E
:100E6800DFEC0DF01200480E2B6E000E2C6E000EFB
:100E78002E6E0A0E2D6E000E306E020E2F6E54EC82
:100E88000CF0210E2B6E000E2C6E000E2E6E0D0E29
:100E98002D6E000E306E020E2F6E54EC0CF04A0EC2
:100EA8002B6E000E2C6E000E2E6E100E2D6E000E88
:100EB800306E020E2F6E54EC0CF01F0E2B6E000ECF
:100EC8002C6E000E2E6E130E2D6E000E306E020E5E
:100ED8002F6E54EC0CF01D0E2B6E000E2C6E000EB7
:100EE8002E6E160E2D6E000E306E020E2F6E54EC06
:100EF8000CF01B0E2B6E000E2C6E000E2E6E190EB3
:100F08002D6E000E306E020E2F6E54EC0CF0190E82
:100F18002B6E000E2C6E000E2E6E1C0E2D6E000E0B
:100F2800306E020E2F6E54EC0CF0170E2B6E000E66
:100F38002C6E000E2E6E1F0E2D6E000E306E020EE1
:100F48002F6E54EC0CF0150E2B6E000E2C6E000E4E
:100F58002E6E220E2D6E000E306E020E2F6E54EC89
:100F68000CF012002850211809E129502218D8A4A1
:100F780005D0000E296E010E286E120028504A185E
:100F880009E129504B18D8A405D0000E296E020E8D
:100F9800286E120028501F1809E129502018D8A4DB
:100FA80005D0000E296E040E286E120028501D1858
:100FB80009E129501E18D8A405D0000E296E080E84
:100FC800286E120028501B1809E129501C18D8A4B3
:100FD80005D0000E296E100E286E12002850191820
:100FE80009E129501A18D8A405D0000E296E200E40
:100FF800286E12002850171809E129501818D8A48B
:1010080005D0000E296E400E286E120028501518C3
:1010180009E129501618D8A405D0000E296E800EB3
:10102800286E1200000E296E000E286E1200336E14
:101038002FC036F030C037F0000E356E000E346E1B
:1010480031C028F032C029F0000E2B6E0A0E2A6E2D
:101058005FEC0BF028C038F029C039F03350D8B411
:1010680017D031D034503610346E35503710356EB5
:1010780036C028F037C029F0FBEC0BF028C036F05A
:1010880029C037F0FF0E3824386EFF0E3920396E2C
:1010980038503910D8B41BD0E5D734503610346ED8
:1010A80035503710356E36C028F037C029F0D5ECEA
:1010B8000BF028C036F029C037F0FF0E3824386E00
:1010C800FF0E3920396E38503910D8A4E6D734C00D
:1010D80028F035C029F0335058EC05F0120020EE06
:1010E80001F02850D9262950DA22020EDE18D8A499
:1010F80021D020EE10F02850D9262950DA22030EEC
:10110800DF6E20EE08F02850D9262950DA22000E8A
:10111800DF6E20EE09F02850D9262950DA2240C087
:10112800DFFF20EE0AF02850D9262950DA2242C0E3
:10113800DFFF120020EE08F02850D9262950DA22C5
:10114800DF502A6E2A502C6E2B6A20EE09F02850A8
:10115800D9262950DA22DF502D6E2D502B10406EE3
:101168002C50416E20EE0AF02850D9262950DA2258
:10117800DF502A6E2A50426E436A1200000E0F0199
:10118800086F200E096F098722500A6F21C00BFFD4
:10119800000E0C6F200E0D6F0D874B500E6F4AC05E
:1011A8000FFF000E106F200E116F11872050126F65
:1011B8001FC013FF000E146F200E156F15871E50E9
:1011C800166F1DC017FF000E0D01606F200E616FB6
:1011D80061871C50626F1BC063FD000E646F200E98
:1011E800656F65871A50666F19C067FD000E686FD6
:1011F800200E696F698718506A6F17C06BFD000E63
:10120800706F200E716F71871650726F15C073FD65
:101218001200000E2D6E2BAE06D02A6C2B1ED8B0F5
:101228002B2A010E2D6E29AE06D0286C291ED8B0A7
:10123800292A010E2D1A000E2F6E000E2E6E2A502E
:101248002B10D8B41CD0010E2C6E04D0D8902A369E
:101258002B362C2A2BAEFAD7D8902E362F362A507A
:10126800285C2B502958D8A005D02A50285E2B502E
:10127800295A2E80D8902B322A322C2EEDD72D5079
:10128800D8B404D02E6C2F1ED8B02F2A2EC028F028
:101298002FC029F012001050D8A413D0000E296EC8
:1012A800000E286E000E58EC05F041C02FF042C029
:1012B80030F045C031F046C032F047501BEC08F022
:1012C80012D0000E296E000E286E475058EC05F01B
:1012D80043C02FF044C030F045C031F046C032F072
:1012E800000E1BEC08F043C028F044C029F0D5ECF0
:1012F8000BF028C043F029C044F041C028F042C098
:1013080029F0FBEC0BF028C041F029C042F0120094
:1013180020EE02F02850D9262950DA22030EDF6E7B
:1013280020EE01F02850D9262950DA22010EDF6E6E
:101338002A502B6E2C6AD8902B362C36D8902B3608
:101348002C3620EE06F02850D9262950DA222BC058
:10135800DEFF2CC0DDFF20EE04F02850D9262950EE
:10136800DA2203C0DEFF04C0DDFF20EE06F02850BD
:10137800D9262950DA22DF9020EE06F02850D92607
:101388002950DA22DF921200000E286E000E296E14
:10139800200E2A6E000E2B6E85EC0DF028C03DF055
:1013A80029C03EF0010E286E000E296E200E2A6E0E
:1013B800000E2B6E85EC0DF028C029F0286A285005
:1013C8003D1229503E123DC003F03EC004F049ECE6
:1013D8000DF0D0680001CBB1CB91D1EC0DF0280411
:1013E8002910D8A408D04FEC09F0000E296E000E81
:1013F800286ECCEC0DF0AFEC0BF00400EBD720EE30
:1014080001F02A50D9262B50DA22020EDE18D8A471
:10141800120020EE10F02A50D9262B50DA22040EA2
:10142800DF6E20EE08F02A50D9262B50DA22C2ECC3
:101438000DF02850DF6E20EE09F02A50D9262B50E7
:10144800DA22BDEC0DF02850DF6E20EE0AF02A50AB
:10145800D9262B50DA22B8EC0DF02850DF6E20EE9A
:101468000BF02A50D9262B50DA22C7EC0DF0285061
:10147800DF6E1200500E0D01F06F550EF16F550E14
:10148800F26F550EF36F000E0F01186F0B0E196FE8
:101498001A691B691C691D691E691F69000E186F8E
:1014A800000E196F000E006F010E016F01870450C6
:1014B800026F03C003FF000E046F010E056F05875E
:1014C8007F0E066F0769C2EC08F0000E0D01E06F91
:1014D800110EE16F110EE26F110EE36F110EE46F42
:1014E800D469030ED56F120020EE01F02850D926DA
:1014F8002950DA22020EDE18D8A4120020EE10F0CD
:101508002850D9262950DA22040EDF6E20EE08F082
:101518002850D9262950DA220550DF6E20EE09F02E
:101528002850D9262950DA2204C0DFFF20EE0AF01D
:101538002850D9262950DA220B50DF6E20EE0BF006
:101548002850D9262950DA220AC0DFFF1200800E5F
:101558006F6E6E50E00B800AD8A4FBD7000E0D0109
:10156800F86F000E0F01406F000E606E000E506F96
:10157800000E0E01206F000E306F000EA36EA568DE
:10158800000EA46E000E0D01FA6F900E776E23EC1C
:101598000DF03EEC0AF07368000E6F6E6ECF28F007
:1015A800E00E2816D8B41200F9D74E0EF66E1B0EB0
:1015B800F76E000EF86E00EE3FF010EE0DF0090029
:1015C800F5CFEEFFE550E150FAE100EEE3F012EE60
:1015D80020F0EE6AE550E150FCE1E250FAE100EE5D
:1015E80060F0720EEE6AE806FDE100EE01F0220EF0
:1015F800EE6AE806FDE14C904C92000EF86E000190
:10160800C8EF09F020EE0CF02850D9262950DA222C
:10161800DF502A6E2A50366E376A20EE0DF02850B9
:10162800D9262950DA22DF502A6E2A50386E396AB4
:1016380020EE0EF02850D9262950DA22DF502A6EE3
:101648002A503A6E3B6A20EE0FF02850D9262950CE
:10165800DA22DF502A6E2A503C6E3D6A120020EED4
:1016680001F02F50D9263050DA22020EDE18D8A405
:1016780013D020EE08F02F50D9263050DA220CC0B3
:1016880028F00DC029F0000E2B6E0A0E2A6E5FECB2
:101698000BF02850DF6E120020EE08F02F50D926EC
:1016A8003050DA22DF50316E31500A0DF3CF0CF092
:1016B800F4CF0DF01200000E2E6E000E2D6E2A5083
:1016C8002B10D8B41CD0010E2C6E04D0D8902A361A
:1016D8002B362C2A2BAEFAD7D8902D362E362A50F8
:1016E800285C2B502958D8A005D02A50285E2B50AA
:1016F800295A2D80D8902B322A322C2EEDD72DC086
:1017080028F02EC029F0120020EE01F02850D9262A
:101718002950DA22020EDE18D8A4120020EE10F0AA
:101728002850D9262950DA22010EDF6E000E2C6EC1
:10173800000E2B6E2B4A2C2A2C5004E1030E2B5C36
:10174800D8A0F8D720EE08F02850D9262950DA2258
:10175800FF0EDF6E120001A014D0020E0001D36F3D
:10176800000ED66F000ED76F000ED86F000ED96F1F
:10177800040ED86FD20E346E000E356ED5EC02F022
:101788000190D20E306E000E316E97EC01F0000918
:10179800D8B41200D20E346E000E356ED5EC02F0BD
:1017A800120028A018D0FE0E28142C6E030E29143F
:1017B8002D6ED8902D302A6E2C302C6E2AC02DF02C
:1017C800000E2C102C6E020E2D102D6E2CC028F041
:1017D8002DC029F01200D89029302A6E2830286EA2
:1017E8002AC029F028C028F029C029F0120029A20F
:1017F80015D0FF0E28142A6E010E29142B6ED890CE
:101808002A342A6E2B342B6E010E2A102A6E2B5086
:101818002B6E2AC028F02BC029F01200D89028344B
:10182800286E2934296E28C028F029C029F0120012
:10183800010E306E000E066E000E056E000E296E4B
:10184800030E286E130E2A6E000E2B6EA5EC0CF0FC
:101858003016000E296E100E286E110E2A6E000E1C
:101868002B6EA5EC0CF03016120020EE01F028507B
:10187800D9262950DA22020EDE18D8A4120020EE4A
:1018880010F02850D9262950DA22010EDF6E20EEFA
:1018980008F02850D9262950DA22FF0EDF6E1200F0
:1018A80015D0A6B2FED72DC028F02EC029F02BC027
:1018B800D9FF2CC0DAFFDF502A6EC0EC0CF02D4A9D
:1018C8002E2A2F06D8A030062B4A2C2A2F5030104B
:1018D800D8B41200E6D720EE01F02850D9262950B6
:1018E800DA22020EDE18D8A4120020EE10F02850DA
:1018F800D9262950DA22010EDF6E20EE08F0285092
:10190800D9262950DA22FF0EDF6E120020EE01F0F0
:101918002850D9262950DA22020EDE18D8A412003F
:1019280020EE10F02850D9262950DA22010EDF6E59
:1019380020EE08F02850D9262950DA22FF0EDF6E53
:101948001200285005242C6E295006202D6E2C04D8
:10195800040E2D58D8A002D0000E12002AC0D9FFBC
:101968002BC0DAFF05C0DEFF06C0DDFF28500526C4
:1019780029500622010E12002950AA6E28C0A9FF7C
:101988002AC0A8FFA684000EF2BE010E0B6EF29EBE
:10199800550EA76EAA0EA76EA6820BB002D0F29EB5
:1019A80001D0F28EA694A6B2FED7120014D0A6B229
:1019B800FED72CC028F02DC029F090EC0DF02AC0DD
:1019C800D9FF2BC0DAFFDF6E2C4A2D2A2A4A2B2A90
:1019D8002E06D8A02F062E502F10D8B41200E7D705
:1019E8009250010B926E9350FC0B936E9650F80B2D
:1019F800966E000E956E000E296E000E286E000E73
:101A080058EC05F0000E296E000E286E010E58ECF9
:101A180005F01200000E2C6E2C502A24D96E000EF0
:101A28002B20DA6E2C502824E16E000E2920E26E5D
:101A3800DFCFE7FF2C2A070E2C64EED71200708048
:101A48007082709470967098709A708C708E71868F
:101A58007188718A718471927190728072927284A5
:101A6800718C718E1200000E236E000E246ECECF84
:101A780023F0CFCF24F000F09E0E2426570E232605
:101A880024C0CFFF5B0ECE6E1200D1801CEC0CF090
:101A9800D8EC03F004005AEC0DF0ABEC0AF0A0EC23
:101AA8000DF079EC0DF0F4EC0CF01200000E896EDC
:101AB800000E8A6E000E8B6E0C0E926E880E936E60
:101AC800BF0E946ED08E0001CB871200020E296ED5
:101AD800AA0E286E000E58EC05F0000E296E000EB6
:101AE800286E010E58EC05F01200D38CD38AD388E7
:101AF8003D0ECD6E9E0ECF6E570ECE6E9D80CD8064
:101B0800120028C0F6FF29C0F7FF2AC0F8FF080016
:101B1800F5CF28F0296A12002950AA6E28C0A9FF1B
:101B2800A680A69EA69CA85012003F50286E405042
:101B3800296E3F4A402A1200F28EF28CD08ED08E47
:101B4800F28C9F901200110001000100140001FFA7
:031B5800FF2A0160
:101B5C00020E296E200E286E1200000E296E1B0E2E
:101B6C00286E1200000E296EFE0E286E1200000E5A
:101B7C00296EFE0E286E1200000E296EFE0E286EC7
:101B8C001200000E296E000E286E120028C009F0FB
:101B9C0029C00AF0120009C028F00AC029F012006E
:101BAC0023C009F024C00AF01200000E296E286828
:101BBC001200286E28C010F0120006004C92110082
:081BCC0010501200120012007B
:020000040020DA
:08000000FFFFFFFFFFFFFFFF00
:020000040030CA
:0E000000FF081F1EFF8281FF0FC00FE00F40A0
:00000001FF
