:020000040000FA
:040000002EEF00F0EF
:060008005A82A1ED0BF08D
:100018005A80D8CF03F0E8CF04F0E0CF05F09EA0D7
:1000280011D00EEC0BF0000E026E010E016E94EC76
:100038000BF033804A2A140E4A6403D0000E4A6E2D
:100048002F809E9005C0E0FF04C0E8FF03C0D8FFE2
:100058005A90100021EF09F0F00E08240E6EFF0EE2
:1000680009200F6E20EE01F00650D9260750DA223B
:10007800020EDE18D8A48ED020EE10F00650D92635
:100088000750DA22080EDF6E0E500F10D8A441D0A8
:1000980020EE08F00650D9260750DA225850DF6EB5
:1000A80020EE09F00650D9260750DA2257C0DFFFA4
:1000B80020EE0AF00650D9260750DA225650DF6E95
:1000C80020EE0BF00650D9260750DA2255C0DFFF84
:1000D80020EE0CF00650D9260750DA224550DF6E84
:1000E80020EE0DF00650D9260750DA2244C0DFFF73
:1000F80020EE0EF00650D9260750DA224350DF6E64
:1001080020EE0FF00650D9260750DA2242C0DFFF52
:10011800120020EE08F00650D9260750DA22415086
:10012800DF6E20EE09F00650D9260750DA2240C0CB
:10013800DFFF20EE0AF00650D9260750DA223F509A
:10014800DF6E20EE0BF00650D9260750DA223EC0AB
:10015800DFFF20EE0CF00650D9260750DA223D507A
:10016800DF6E20EE0DF00650D9260750DA223CC08B
:10017800DFFF20EE0EF00650D9260750DA223B505A
:10018800DF6E20EE0FF00650D9260750DA223AC06B
:10019800DFFF12000E500F10D8A471D020EE08F027
:1001A8000650D9260750DA22DF500A6E0A500C6E24
:1001B8000B6A20EE09F00650D9260750DA22DF50E4
:1001C8000D6E0D500B10576E0C50586E57C00EF038
:1001D80058C00FF020EE0AF00650D9260750DA2250
:1001E800DF500A6E0A500C6E0B6A20EE0BF00650B8
:1001F800D9260750DA22DF500D6E0D500B10556EC0
:100208000C50566E55C012F056C013F020EE0CF08C
:100218000650D9260750DA22DF500A6E0A500C6EB3
:100228000B6A20EE0DF00650D9260750DA22DF506F
:100238000D6E0D500B10446E0C50456E44C016F0F8
:1002480045C017F020EE0EF00650D9260750DA22E6
:10025800DF500A6E0A500C6E0B6A20EE0FF0065043
:10026800D9260750DA22DF500D6E0D500B10426E62
:100278000C50436E42C01AF043C01BF0120020EE2F
:1002880008F00650D9260750DA22DF500A6E0A50C5
:100298000C6E0B6A20EE09F00650D9260750DA22B8
:1002A800DF500D6E0D500B10406E0C50416E40C06B
:1002B8001EF041C01FF020EE0AF00650D926075064
:1002C800DA22DF500A6E0A500C6E0B6A20EE0BF031
:1002D8000650D9260750DA22DF500D6E0D500B104C
:1002E8003E6E0C503F6E3EC022F03FC023F020EE21
:1002F8000CF00650D9260750DA22DF500A6E0A5051
:100308000C6E0B6A20EE0DF00650D9260750DA2243
:10031800DF500D6E0D500B103C6E0C503D6E3CC006
:1003280026F03DC027F020EE0EF00650D9260750E3
:10033800DA22DF500A6E0A500C6E0B6A20EE0FF0BC
:100348000650D9260750DA22DF500D6E0D500B10DB
:100358003A6E0C503B6E3AC02AF03BC02BF01200AC
:100368006F500F0B136E13509009776E18D060CF33
:1003780012F035D050CF12F032D020CE12F02FD05C
:1003880030CE12F02CD040CE12F029D050CE12F040
:1003980026D060CE12F023D070CE12F020D01350A9
:1003A800106E116A1150000AD8A419D01050000A12
:1003B800D8B4DDD7010AD8B4DDD7030AD8B4DDD75D
:1003C800010AD8B4DDD7070AD8B4DDD7010AD8B4F2
:1003D800DDD7030AD8B4DDD7010AD8B4DDD712AE09
:1003E800A5D020EE03F00E50D9260F50DA22605027
:1003F8001F0BDF6E20EE04F00E50D9260F50DA22C4
:1004080064CFDFFF20EE05F00E50D9260F50DA2218
:1004180063CFDFFF20EE06F00E50D9260F50DA2208
:1004280062CF10F0030E101662CF06F0076A000EB6
:10043800096E080E086E85EC07F006501010DF6E86
:100448006150106E116A050ED89010361136E82EDC
:10045800FBD720EE06F00E50D9260F50DA221050A6
:10046800DE121150DD1220EE02F00E50D9260F5088
:10047800DA22030EDF6E65BC68D020EE01F00E5064
:10048800D9260F50DA22010EDF6E20EE10F00E5042
:10049800D9260F50DA2265500F0BDF6E20EE10F0D0
:1004A8000E50D9260F50DA22080EDF6441D01ED034
:1004B800000E606E3BD0000E0F010ED0000E0E0134
:1004C800206F34D0000E0E01306F30D0000E0E01B8
:1004D800406F2CD0000E0E01506F28D0000E0E0178
:1004E800606F24D0000E0E01706F20D01350106E74
:1004F800116A1150000AD8A419D01050000AD8B4B3
:10050800D7D7010AD8B4D7D7030AD8B4D7D7010A9E
:10051800D8B4D8D7070AD8B4D9D7010AD8B4DAD703
:10052800030AD8B4DBD7010AD8B4DCD7000E12000E
:10053800080E0E24066E000E0F20076E660E086E5B
:100548000F0E096EE5EC0AF027D020EE01F00E50F0
:10055800D9260F50DA22020EDF6E1ED0000E606E12
:100568003BD0000E0F010ED0000E0E01206F34D0CC
:10057800000E0E01306F30D0000E0E01406F2CD0EF
:10058800000E0E01506F28D0000E0E01606F24D0AF
:10059800000E0E01706F20D01350106E116A1150AA
:1005A800000AD8A419D01050000AD8B4D7D7010A25
:1005B800D8B4D7D7030AD8B4D7D7010AD8B4D8D76C
:1005C800070AD8B4D9D7010AD8B4DAD7030AD8B4F5
:1005D800DBD7010AD8B4DCD7010E120020EE06F0F2
:1005E8001050D9261150DA22DF50126E1250066EC2
:1005F800076A000E096E040E086E85EC07F00650B7
:10060800186E1804D8B474D018C016F0176A70D0D1
:1006180010C008F011C009F0F3EC05F09ED010C02E
:1006280008F011C009F081EC08F097D010C006F06E
:1006380011C007F063EC0AF090D010C006F011C0AA
:1006480007F0D0EC09F089D010C006F011C007F00F
:1006580099EC0AF082D010C006F011C007F07EECC9
:100668000AF07BD010C009F011C00AF055EC05F073
:1006780074D010C00DF011C00EF07BEC09F06DD0F5
:1006880010C006F011C007F0A6EC0BF066D010C041
:1006980006F011C007F0BCEC08F05FD010C006F0FF
:1006A80011C007F0F40E1824086E096AFF0E09221B
:1006B800A7EC0BF052D010C006F011C007F036ECD2
:1006C80007F04BD010C006F011C007F0000E096EFD
:1006D800100E086E30EC00F040D010C006F011C0CB
:1006E80007F0000E096E110E086E30EC00F035D0E0
:1006F8001850126E136A1350000AD8A42ED0125044
:10070800010AD8B485D7030AD8B489D7010AD8B45E
:100718008DD7070AD8B491D7010AD8B495D7030A58
:10072800D8B499D7010AD8B49DD70E0AD8B4A1D79E
:10073800030AD8B4A5D7010AD8B4A9D7070AD8B4E8
:10074800ADD7010AD8B4AAD7020AD8B4B4D71F0AB9
:10075800D8B4B8D7010AD8B4C0D720EE01F01050E9
:10076800D9261150DA22020EDE18D8A4120020EE83
:1007780002F01050D9261150DA22030EDF6E20EE57
:1007880001F01050D9261150DA22010EDF6E20EE4A
:1007980004F01050D9261150DA22DE6ADE6ADE6AC9
:1007A800DD6A1850040D20EE06F01050D9261150BD
:1007B800DA22F3CFDFFF10C006F011C007F018C02F
:1007C80008F045EC08F010C00BF011C00CF0F5EC87
:1007D80003F004D00F0140B920EC0BF060A6120022
:1007E800F9D7830E776E60A60AD0840E776E60A65E
:1007F80006D0850E776E60A602D0F3D7FF0074B4DA
:10080800FDD7000E356E20EE04F00B50D9260C50A3
:10081800DA22DF50646E20EE05F00B50D9260C501A
:10082800DA22DF50636E20EE06F00B50D9260C500A
:10083800DA22DF500D6E030E0D1620EE06F00B5077
:10084800D9260C50DA22DF50FC0B080DF3500D109E
:10085800626E628620EE06F00B50D9260C50DA2222
:10086800DECF0DF0DDCF0EF0050E0F6ED8900E32F4
:100878000D320F2EFBD70D50616E000E656E20EE07
:1008880001F00B50D9260C50DA22020EDE18D8A43B
:1008980002D0658C5AD020EE10F00B50D9260C509F
:1008A800DA22DF500D6E0F0E0D1665500D18FE0B77
:1008B8000D18656E20EE10F00B50D9260C50DA2278
:1008C800DF500D6ED8900D32070E0D160D4665508F
:1008D8000D18FD0B0D18656E20EE10F00B50D92683
:1008E8000C50DA22DF500D6ED8900D32D8900D32B0
:1008F800030E0D160D460D4665500D18FB0B0D1811
:10090800656E20EE10F00B50D9260C50DA22DF501D
:100918000D6ED8900D32D8900D32D8900D32010E50
:100928000D160D460D460D4665500D18F70B0D18A2
:10093800656E660E066E0F0E076E080E0B24086EA7
:10094800000E0C20096EE5EC0AF060863388120070
:100958000A6E0A50D8A450D006A003D08C501009B3
:1009680002D08C50EF0B8C6E06A203D08C5040093D
:1009780002D08C50BF0B8C6E06A403D08A5001099C
:1009880002D08A50FE0B8A6E06A603D0895002094F
:1009980002D08950FD0B896E06A803D0895008093A
:1009A80002D08950F70B896E06AA03D08950200916
:1009B80002D08950DF0B896E06AC03D08D50020936
:1009C80002D08D50FD0B8D6E06AE03D08950800984
:1009D80002D089507F0B896E07A003D08C50010983
:1009E80002D08C50FE0B8C6E07A203D08C500409E9
:1009F80002D08C50FB0B8C6E0A04D8A4120006A0FF
:100A080003D08C50200902D08C50DF0B8C6E06A2CC
:100A180003D08C50800902D08C507F0B8C6E06A4BA
:100A280003D08A50020902D08A50FD0B8A6E06A6AE
:100A380003D08950040902D08950FB0B896E06A89F
:100A480003D08950100902D08950EF0B896E06AA8D
:100A580003D08D50010902D08D50FE0B8D6E06AC6F
:100A680003D08D50040902D08D50FB0B8D6E06AE5D
:100A780003D08950400902D08950BF0B896E07A066
:100A880003D08C50020902D08C50FD0B8C6E07A24B
:100A980004D08C5008098C6E12008C50F70B8C6EA9
:100AA800120020EE01F00950D9260A50DA22020E6F
:100AB800DE18D8A456D020EE10F00950D9260A50D6
:100AC800DA22010EDF6E20EE08F00950D9260A500E
:100AD800DA22D044E846030B010BDF6E20EE09F062
:100AE8000950D9260A50DA222AA802D0010E01D0CC
:100AF800000EDF6E20EE0AF00950D9260A50DA22DD
:100B08002AA002D0010E01D0000EDF6E20EE0BF0FD
:100B18000950D9260A50DA22000EDF6E20EE0CF0BA
:100B28000950D9260A50DA222EC0DFFF20EE0DF038
:100B38000950D9260A50DA2230C0DFFF20EE0EF025
:100B48000950D9260A50DA2232C0DFFF20EE0FF012
:100B58000950D9260A50DA2234C0DFFFD09C2A98DF
:100B6800120020EE10F00950D9260A50DA22010EA0
:100B7800DF6E20EE0AF00950D9260A50DA22DF503B
:100B8800D8B40CD02A8020EE09F00950D9260A5092
:100B9800DA22DF50D8B41AD02A8618D020EE09F00D
:100BA8000950D9260A50DA22DF50D8B406D009C035
:100BB80006F00AC007F04EEC09F020EE08F00950E4
:100BC800D9260A50DA22DF50D8A4FF0020EE08F018
:100BD8000950D9260A50DA22FF0EDF6E120020EEE5
:100BE80001F00850D9260950DA22020EDE18D8A4DE
:100BF80047D020EE10F00850D9260950DA22060E08
:100C0800DF6E20EE08F00850D9260950DA22A4EC4D
:100C18000BF0DF6E20EE09F00850D9260950DA22D1
:100C28006CEC0BF007C006F0076A0650DF6E20EE8A
:100C38000AF00850D9260950DA226CEC0BF006505D
:100C4800DF6E20EE0BF00850D9260950DA2257EC57
:100C58000BF00650DF6E20EE0CF00850D926095034
:100C6800DA2271EC0BF00650DF6E20EE0DF0085022
:100C7800D9260950DA2299EC0BF00650DF6E1200E3
:100C880020EE04F00850D9260950DA22DECF06F00B
:100C9800DDCF07F079EC06F006C00CF007C00DF0C8
:100CA80020EE08F00850D9260950DA22DF50D8A4DF
:100CB8000AD00C1C0A6E0D1C0B6E36500A14366EC8
:100CC80037500B1405D00C503610366E0D503710B7
:100CD800376E36503710D8B404D0010E9DEC0BF0A7
:100CE8001200000E9DEC0BF012000650571809E197
:100CF80007505818D8A405D0000E076E010E066ECE
:100D080012000650551809E107505618D8A405D006
:100D1800000E076E020E066E12000650441809E116
:100D280007504518D8A405D0000E076E040E066EAD
:100D380012000650421809E107504318D8A405D0FC
:100D4800000E076E080E066E12000650401809E1E4
:100D580007504118D8A405D0000E076E100E066E75
:100D6800120006503E1809E107503F18D8A405D0D4
:100D7800000E076E200E066E120006503C1809E1A0
:100D880007503D18D8A405D0000E076E400E066E19
:100D9800120006503A1809E107503B18D8A405D0AC
:100DA800000E076E800E066E1200000E076E000E13
:100DB800066E1200116E0DC014F00EC015F0000E74
:100DC800136E000E126E0FC006F010C007F0000E72
:100DD800096E0A0E086EA7EC09F006C016F007C0E7
:100DE80017F01150D8B417D031D012501410126E19
:100DF80013501510136E14C006F015C007F042EC1E
:100E08000AF006C014F007C015F0FF0E1624166E7F
:100E1800FF0E1720176E16501710D8B41BD0E5D741
:100E280012501410126E13501510136E14C006F0E1
:100E380015C007F0F7EC09F006C014F007C015F06C
:100E4800FF0E1624166EFF0E1720176E1650171079
:100E5800D8A4E6D712C006F013C007F01150ACECC6
:100E680004F0120020EE01F00650D9260750DA22CD
:100E7800020EDE18D8A421D020EE10F00650D92694
:100E88000750DA22030EDF6E20EE08F00650D9264E
:100E98000750DA22000EDF6E20EE09F00650D92640
:100EA8000750DA2238C0DFFF20EE0AF00650D926B4
:100EB8000750DA223AC0DFFF120020EE08F0065091
:100EC800D9260750DA22DF50086E08500A6E096AE0
:100ED80020EE09F00650D9260750DA22DF500B6EB3
:100EE8000B500910386E0A50396E20EE0AF0065081
:100EF800D9260750DA22DF50086E08503A6E3B6A4E
:100F08001200000E0B6E09AE06D0086C091ED8B090
:100F1800092A010E0B6E07AE06D0066C071ED8B064
:100F2800072A010E0B1A000E0D6E000E0C6E0850EB
:100F38000910D8B41CD0010E0A6E04D0D890083617
:100F480009360A2A09AEFAD7D8900C360D36085059
:100F5800065C09500758D8A005D00850065E09500D
:100F6800075A0C80D890093208320A2EEDD70B5058
:100F7800D8B404D00C6C0D1ED8B00D2A0CC006F0E5
:100F88000DC007F01200500E0D01F06F550EF16FF5
:100F9800550EF26F550EF36F000E0F01186F0B0E02
:100FA800196F1A691B691C691D691E691F69000E82
:100FB800186F000E196F000E006F010E016F018788
:100FC8003250026F31C003FF000E046F010E056F2F
:100FD80005877F0E066F0769000E086F200E096FE0
:100FE800098758500A6F57C00BFF000E0C6F200E70
:100FF8000D6F0D8756500E6F55C00FFF000E0D0177
:10100800E06F110EE16F12004C50D8A413D0000EFF
:10101800076E000E066E000EACEC04F04FC00DF02B
:1010280050C00EF053C00FF054C010F05950DEEC11
:1010380006F012D0000E076E000E066E5950ACEC8A
:1010480004F051C00DF052C00EF053C00FF054C060
:1010580010F0000EDEEC06F051C006F052C007F0AA
:10106800F7EC09F006C051F007C052F04FC006F087
:1010780050C007F042EC0AF006C04FF007C050F02D
:10108800120020EE02F00650D9260750DA22030E8D
:10109800DF6E20EE01F00650D9260750DA22010E45
:1010A800DF6E0850096E0A6AD89009360A36D89059
:1010B80009360A3620EE06F00650D9260750DA22FD
:1010C80009C0DEFF0AC0DDFF20EE04F00650D92675
:1010D8000750DA2231C0DEFF32C0DDFF20EE06F015
:1010E8000650D9260750DA22DF9020EE06F0065087
:1010F800D9260750DA22DF92120020EE01F00850BC
:10110800D9260950DA22020EDE18D8A4120020EEE1
:1011180010F00850D9260950DA22040EDF6E20EEAE
:1011280008F00850D9260950DA2280EC0BF0065056
:10113800DF6E20EE09F00850D9260950DA227BEC40
:101148000BF00650DF6E20EE0AF00850D926095041
:10115800DA2276EC0BF00650DF6E20EE0BF008502A
:10116800D9260950DA2285EC0BF00650DF6E120002
:1011780020EE01F00650D9260750DA22020EDE18BA
:10118800D8A4120020EE10F00650D9260750DA2213
:10119800040EDF6E20EE08F00650D9260750DA223A
:1011A8000550DF6E20EE09F00650D9260750DA22E6
:1011B80004C0DFFF20EE0AF00650D9260750DA22D5
:1011C8000B50DF6E20EE0BF00650D9260750DA22BE
:1011D8000AC0DFFF1200800E6F6E6E50E00B800AAF
:1011E800D8A4FBD7000E0D01F86F000E0F01406F59
:1011F800000E606E000E506F000E0E01206F000E84
:10120800306F000EA36EA568000EA46E000E0D01CF
:10121800FA6F010E326E2C0E316E900E776EFAEC6C
:101228000AF0C7EC07F07368000E6F6E6ECF06F019
:10123800E00E0616D8B41200F9D7CA0EF66E160ECE
:10124800F76E000EF86E00EE4DF010EE0DF009008E
:10125800F5CFEEFFE550E150FAE100EEC6F012EEF0
:1012680020F0EE6AE550E150FCE1E250FAE100EED0
:1012780060F0660EEE6AE806FDE100EE2AF0230E45
:10128800EE6AE806FDE15A905A92000EF86E0001E7
:10129800CEEF0AF020EE0CF00650D9260750DA22DD
:1012A800DF50086E08502E6E2F6A20EE0DF00650A3
:1012B800D9260750DA22DF50086E0850306E316A9E
:1012C80020EE0EF00650D9260750DA22DF50086EBD
:1012D8000850326E336A20EE0FF00650D9260750B8
:1012E800DA22DF50086E0850346E356A120020EE9C
:1012F80001F00D50D9260E50DA22020EDE18D8A4BD
:1013080013D020EE08F00D50D9260E50DA220CC06A
:1013180006F00DC007F0000E096E0A0E086EA7EC65
:1013280009F00650DF6E120020EE08F00D50D926A5
:101338000E50DA22DF500F6E0F500A0DF3CF0CF06B
:10134800F4CF0DF01200000E0B6E000E0A6E08505E
:101358000910D8B41CD0010E0C6E04D0D8900836F1
:1013680009360C2A09AEFAD7D8900A360B36085037
:10137800065C09500758D8A005D00850065E0950E9
:10138800075A0A80D890093208320C2EEDD70AC0C5
:1013980006F00BC007F0120020EE01F00650D92627
:1013A8000750DA22020EDE18D8A4120020EE10F040
:1013B8000650D9260750DA22010EDF6E000E0A6E9B
:1013C800000E096E094A0A2A0A5004E1030E095C54
:1013D800D8A0F8D720EE08F00650D9260750DA2210
:1013E800FF0EDF6E120006A018D0FE0E06140A6E5D
:1013F800030E07140B6ED8900B30086E0A300A6E75
:1014080008C00BF0000E0A100A6E020E0B100B6ECD
:101418000AC006F00BC007F01200D8900730086E1B
:101428000630066E08C007F006C006F007C007F0D1
:1014380012002FA013D0020E1A6E000E1D6E000EA1
:101448001E6E000E1F6E000E206E040E1F6E190E0B
:10145800106E000E116EF2EC02F02F90190E0E6E47
:10146800000E0F6EB4EC01F00009D8B41200190E8A
:10147800106E000E116EF2EC02F0120007A215D0E9
:10148800FF0E0614086E010E0714096ED890083472
:10149800086E0934096E010E0810086E0950096EAD
:1014A80008C006F009C007F01200D8900634066E8E
:1014B8000734076E06C006F007C007F0120020EEDA
:1014C80001F00650D9260750DA22020EDE18D8A4F9
:1014D800120020EE10F00650D9260750DA22010E2D
:1014E800DF6E20EE08F00650D9260750DA22FF0EEC
:1014F800DF6E120020EE01F00650D9260750DA22DE
:10150800020EDE18D8A4120020EE10F00650D926DC
:101518000750DA22010EDF6E20EE08F00650D926B9
:101528000750DA22FF0EDF6E120020EE01F006509F
:10153800D9260750DA22020EDE18D8A4120020EEAF
:1015480010F00650D9260750DA22010EDF6E20EE81
:1015580008F00650D9260750DA22FF0EDF6E120077
:101568009250010B926E9350FC0B936E9650F80BB1
:10157800966E000E956E000E076E000E066E000E3B
:10158800ACEC04F0000E076E000E066E010EACEC1B
:1015980004F012003EEC0BF0D06833B033908FECBF
:1015A8000BF006040710D8A408D008EC08F0000EC9
:1015B800076E000E066E8AEC0BF01DEC0AF00400B4
:1015C800ECD7000E0A6E0A500824D96E000E0920C6
:1015D800DA6E0A500624E16E000E0720E26EDFCFB5
:1015E800E7FF0A2A070E0A64EED71200708070829D
:1015F800709470967098709A708C708E71867188DD
:10160800718A718471927190728072927284718CF5
:10161800718E1200000E016E000E026ECECF01F028
:10162800CFCF02F000F09E0E0226570E012602C010
:10163800CFFF5B0ECE6E1200020E076EAA0E066E6C
:10164800000EACEC04F0000E076E000E066E010EE4
:10165800ACEC04F01200000E896E000E8A6E000ECB
:101668008B6E0C0E926E880E936EBF0E946ED08E9B
:1016780033861200D18004002FEC0BF0EFEC08F059
:101688005EEC0BF04BEC0BF0B4EC0AF01200D38CD0
:10169800D38AD3883D0ECD6E9E0ECF6E570ECE6E7A
:1016A8009D80CD8012004D50066E4E50076E4D4AFB
:1016B8004E2A1200F28EF28CD08ED08EF28C9F9031
:0F16C800120011000100010014006F002B01013E
:1016D800020E076E200E066E1200000E076E1B0E1D
:1016E800066E1200000E076EFE0E066E1200000E49
:1016F800076EFE0E066E1200000E076EFE0E066ED8
:101708001200000E076E000E066E120006C038F0BA
:1017180007C039F0120038C006F039C007F01200CF
:1017280001C038F002C039F01200000E076E0668DA
:101738001200066E06C04CF0120006005A92110004
:081748004C50120012001200C7
:020000040020DA
:08000000FFFFFFFFFFFFFFFF00
:020000040030CA
:0E000000FF081F1EFF8281FF0FC00FE00F40A0
:00000001FF
