:020000040000FA
:040000002FEF00F0EE
:060008005A82C7ED0DF065
:100018005A80D8CF03F0E8CF04F0E0CF05F09EA0D7
:1000280012D01BEC0DF0000E026E010E016EBAEC40
:100038000DF00001CB81382A140E386403D0000E6D
:10004800386E2B809E9005C0E0FF04C0E8FF03C017
:10005800D8FF5A901000BEEF0AF0F00E08240E6E7A
:10006800FF0E09200F6E20EE01F00650D92607502A
:10007800DA22020EDE18D8A48ED020EE10F0065038
:10008800D9260750DA22080EDF6E0E500F10D8A4BA
:1000980041D020EE08F00650D9260750DA224C50FD
:1000A800DF6E20EE09F00650D9260750DA224BC041
:1000B800DFFF20EE0AF00650D9260750DA22595001
:1000C800DF6E20EE0BF00650D9260750DA2258C012
:1000D800DFFF20EE0CF00650D9260750DA224A50EE
:1000E800DF6E20EE0DF00650D9260750DA2249C0FF
:1000F800DFFF20EE0EF00650D9260750DA224850CE
:10010800DF6E20EE0FF00650D9260750DA2247C0DE
:10011800DFFF120020EE08F00650D9260750DA2239
:100128004650DF6E20EE09F00650D9260750DA2235
:1001380045C0DFFF20EE0AF00650D9260750DA2224
:100148004450DF6E20EE0BF00650D9260750DA2215
:1001580043C0DFFF20EE0CF00650D9260750DA2204
:100168004250DF6E20EE0DF00650D9260750DA22F5
:1001780041C0DFFF20EE0EF00650D9260750DA22E4
:100188004050DF6E20EE0FF00650D9260750DA22D5
:100198003FC0DFFF12000E500F10D8A463D020EE2E
:1001A80008F00650D9260750DA22DF500A6E0A50A6
:1001B8000C6E0B6A20EE09F00650D9260750DA2299
:1001C800DF500D6E0D500B104B6E0C504C6E20EE28
:1001D8000AF00650D9260750DA22DF500A6E0A5074
:1001E8000C6E0B6A20EE0BF00650D9260750DA2267
:1001F800DF500D6E0D500B10586E0C50596E20EEDE
:100208000CF00650D9260750DA22DF500A6E0A5041
:100218000C6E0B6A20EE0DF00650D9260750DA2234
:10022800DF500D6E0D500B10496E0C504A6E20EECB
:100238000EF00650D9260750DA22DF500A6E0A500F
:100248000C6E0B6A20EE0FF00650D9260750DA2202
:10025800DF500D6E0D500B10476E0C50486EA6EC1B
:1002680008F0120020EE08F00650D9260750DA22CE
:10027800DF500A6E0A500C6E0B6A20EE09F0065029
:10028800D9260750DA22DF500D6E0D500B10456E3F
:100298000C50466E20EE0AF00650D9260750DA2296
:1002A800DF500A6E0A500C6E0B6A20EE0BF00650F7
:1002B800D9260750DA22DF500D6E0D500B10436E11
:1002C8000C50446E20EE0CF00650D9260750DA2266
:1002D800DF500A6E0A500C6E0B6A20EE0DF00650C5
:1002E800D9260750DA22DF500D6E0D500B10416EE3
:1002F8000C50426E20EE0EF00650D9260750DA2236
:10030800DF500A6E0A500C6E0B6A20EE0FF0065092
:10031800D9260750DA22DF500D6E0D500B103F6EB4
:100328000C50406E9CD76F500F0B136E13509009F2
:10033800776E18D060CF12F02ED050CF12F02BD09D
:1003480020CE12F028D030CE12F025D040CE12F0B8
:1003580022D050CE12F01FD060CE12F01CD070CE3A
:1003680012F019D01350000AD8B4E4D7010AD8B44F
:10037800E4D7030AD8B4E4D7010AD8B4E4D7070A03
:10038800D8B4E4D7010AD8B4E4D7030AD8B4E4D778
:10039800010AD8B4E4D712AE9ED020EE03F00E5076
:1003A800D9260F50DA2260501F0BDF6E20EE04F0C2
:1003B8000E50D9260F50DA2264CFDFFF20EE05F069
:1003C8000E50D9260F50DA2263CFDFFF20EE06F059
:1003D8000E50D9260F50DA2262CF10F0030E1016F5
:1003E80062CF06F0076A000E096E080E086EF1EC7F
:1003F80008F006501010DF6E6150106E116A050E7D
:10040800D89010361136E82EFBD720EE06F00E50A5
:10041800D9260F50DA221050DE121150DD1220EECC
:1004280002F00E50D9260F50DA22030EDF6E65BC9B
:1004380061D020EE01F00E50D9260F50DA22010EBD
:10044800DF6E20EE10F00E50D9260F50DA226550DC
:100458000F0BDF6E20EE10F00E50D9260F50DA2267
:10046800080EDF643AD01ED0000E606E34D0000E45
:100478000F010ED0000E0E01206F2DD0000E0E01C0
:10048800306F29D0000E0E01406F25D0000E0E01EE
:10049800506F21D0000E0E01606F1DD0000E0E01AE
:1004A800706F19D01350000AD8B4DED7010AD8B437
:1004B800DED7030AD8B4DED7010AD8B4DFD7070AD3
:1004C800D8B4E0D7010AD8B4E1D7030AD8B4E2D740
:1004D800010AD8B4E3D7000E1200080E0E24066EE7
:1004E800000E0F20076E660E086E0F0E096EF2ECF6
:1004F8000CF027D020EE01F00E50D9260F50DA224A
:10050800020EDF6E1ED0000E606E34D0000E0F019A
:100518000ED0000E0E01206F2DD0000E0E01306F90
:1005280029D0000E0E01406F25D0000E0E01506F2D
:1005380021D0000E0E01606F1DD0000E0E01706FED
:1005480019D01350000AD8B4DED7010AD8B4DED7C0
:10055800030AD8B4DED7010AD8B4DFD7070AD8B45B
:10056800E0D7010AD8B4E1D7030AD8B4E2D7010A20
:10057800D8B4E3D7010E120020EE06F01250D926A7
:100588001350DA22DF50146E1450066E076A000EFC
:10059800096E040E086EF1EC08F00650196E190485
:1005A800D8B474D019C017F0186A70D012C008F007
:1005B80013C009F089EC06F097D012C008F013C0F8
:1005C80009F0E8EC09F090D012C006F013C007F06B
:1005D8001DEC0CF089D012C006F013C007F06DECCA
:1005E8000BF082D012C006F013C007F06EEC0CF0CE
:1005F8007BD012C006F013C007F053EC0CF074D097
:1006080012C00FF013C010F0E5EC05F06DD012C069
:100618000DF013C00EF018EC0BF066D012C006F007
:1006280013C007F0CCEC0DF05FD012C006F013C079
:1006380007F05DEC0AF058D012C006F013C007F0BE
:10064800F40E1924086E096AFF0E0922CDEC0DF08C
:100658004BD012C006F013C007F057EC08F044D096
:1006680012C006F013C007F0000E096E100E086ED7
:1006780031EC00F039D012C006F013C007F0000EBC
:10068800096E110E086E31EC00F02ED01950010AD7
:10069800D8B48CD7030AD8B490D7010AD8B494D761
:1006A800070AD8B498D7010AD8B49CD7030AD8B493
:1006B800A0D7010AD8B4A4D70E0AD8B4A8D7030A79
:1006C800D8B4ACD7010AD8B4B0D7070AD8B4B4D7CD
:1006D800010AD8B4B1D7020AD8B4BBD71F0AD8B414
:1006E800BFD7010AD8B4C7D720EE01F01250D926D7
:1006F8001350DA22020EDE18D8A4120020EE02F0FF
:100708001250D9261350DA22030EDF6E20EE01F0C4
:100718001250D9261350DA22010EDF6E20EE04F0B3
:100728001250D9261350DA22DE6ADE6ADE6ADD6AE2
:100738001950040D20EE06F01250D9261350DA2273
:10074800F3CFDFFF12C006F013C007F019C008F09E
:10075800ACEC09F012C00BF013C00CF083EC04F001
:1007680004D00F0140B94EEC0DF060A61200F9D785
:10077800560E086E000E096E000E0B6E0A0E0A6EFB
:10078800000E0D6E020E0C6EBEEC0CF04B0E086ED9
:10079800000E096E000E0B6E0D0E0A6E000E0D6E29
:1007A800020E0C6EBEEC0CF04B2807E14C28D8A4C6
:1007B80004D0000E4C6E000E4B6E580E086E000EE4
:1007C800096E000E0B6E100E0A6E000E0D6E020EF4
:1007D8000C6EBEEC0CF0582807E15928D8A404D0B8
:1007E800000E596E000E586E490E086E000E096E06
:1007F800000E0B6E130E0A6E000E0D6E020E0C6EBE
:10080800BEEC0CF0492807E14A28D8A404D0000E11
:100818004A6E000E496E470E086E000E096E000EF5
:100828000B6E160E0A6E000E0D6E020E0C6EBEECEE
:100838000CF0472807E14828D8A404D0000E486ED9
:10084800000E476E450E086E000E096E000E0B6E08
:10085800190E0A6E000E0D6E020E0C6EBEEC0CF038
:10086800452807E14628D8A404D0000E466E000E9D
:10087800456E430E086E000E096E000E0B6E1C0EC0
:100888000A6E000E0D6E020E0C6EBEEC0CF04328C4
:1008980007E14428D8A404D0000E446E000E436E2D
:1008A800410E086E000E096E000E0B6E1F0E0A6ECA
:1008B800000E0D6E020E0C6EBEEC0CF0412807E126
:1008C8004228D8A404D0000E426E000E416E3F0E9E
:1008D800086E000E096E000E0B6E220E0A6E000ED8
:1008E8000D6E020E0C6EBEEC0CF03F2807E140289E
:1008F800D8A41200000E406E000E3F6E1200830E48
:10090800776E60A60AD0840E776E60A606D0850E34
:10091800776E60A602D0F3D7FF0074B4FDD7000E3F
:100928000001CD6F20EE04F00B50D9260C50DA22CE
:10093800DF50646E20EE05F00B50D9260C50DA22F9
:10094800DF50636E20EE06F00B50D9260C50DA22E9
:10095800DF500D6E030E0D1620EE06F00B50D92653
:100968000C50DA22DF50FC0B080DF3500D10626EAC
:10097800628620EE06F00B50D9260C50DA22DECF24
:100988000DF0DDCF0EF0050E0F6ED8900E320D3241
:100998000F2EFBD70D50616E000E656E20EE01F034
:1009A8000B50D9260C50DA22020EDE18D8A402D039
:1009B800658C5AD020EE10F00B50D9260C50DA2254
:1009C800DF500D6E0F0E0D1665500D18FE0B0D182D
:1009D800656E20EE10F00B50D9260C50DA22DF504D
:1009E8000D6ED8900D32070E0D160D4665500D1878
:1009F800FD0B0D18656E20EE10F00B50D9260C502B
:100A0800DA22DF500D6ED8900D32D8900D32030ED9
:100A18000D160D460D4665500D18FB0B0D18656E2D
:100A280020EE10F00B50D9260C50DA22DF500D6E54
:100A3800D8900D32D8900D32D8900D32010E0D1687
:100A48000D460D460D4665500D18F70B0D18656ED1
:100A5800660E066E0F0E076E080E0B24086E000E4B
:100A68000C20096EF2EC0CF060860001CB891200B4
:100A78000A6E0A50D8A450D006A003D08C50100992
:100A880002D08C50EF0B8C6E06A203D08C5040091C
:100A980002D08C50BF0B8C6E06A403D08A5001097B
:100AA80002D08A50FE0B8A6E06A603D0895002092E
:100AB80002D08950FD0B896E06A803D08950080919
:100AC80002D08950F70B896E06AA03D089502009F5
:100AD80002D08950DF0B896E06AC03D08D50020915
:100AE80002D08D50FD0B8D6E06AE03D08950800963
:100AF80002D089507F0B896E07A003D08C50010962
:100B080002D08C50FE0B8C6E07A203D08C500409C7
:100B180002D08C50FB0B8C6E0A04D8A4120006A0DD
:100B280003D08C50200902D08C50DF0B8C6E06A2AB
:100B380003D08C50800902D08C507F0B8C6E06A499
:100B480003D08A50020902D08A50FD0B8A6E06A68D
:100B580003D08950040902D08950FB0B896E06A87E
:100B680003D08950100902D08950EF0B896E06AA6C
:100B780003D08D50010902D08D50FE0B8D6E06AC4E
:100B880003D08D50040902D08D50FB0B8D6E06AE3C
:100B980003D08950400902D08950BF0B896E07A045
:100BA80003D08C50020902D08C50FD0B8C6E07A22A
:100BB80004D08C5008098C6E12008C50F70B8C6E88
:100BC800120020EE01F00F50D9261050DA22020E42
:100BD800DE18D8A457D020EE10F00F50D9261050A8
:100BE800DA22010EDF6E20EE08F00F50D9261050E1
:100BF800DA22D044E846030B010BDF6E20EE09F041
:100C08000F50D9261050DA220001C6A902D0010ED1
:100C180001D0000EDF6E20EE0AF00F50D9261050DA
:100C2800DA22C6A102D0010E01D0000EDF6E20EE3E
:100C38000BF00F50D9261050DA22000EDF6E20EE8E
:100C48000CF00F50D9261050DA2236C0DFFF20EE04
:100C58000DF00F50D9261050DA2238C0DFFF20EEF1
:100C68000EF00F50D9261050DA223AC0DFFF20EEDE
:100C78000FF00F50D9261050DA223CC0DFFFD09C6D
:100C8800C699120020EE10F00F50D9261050DA2223
:100C9800010EDF6E20EE0AF00F50D9261050DA222E
:100CA800DF50D8B40FD00001C68120EE09F00F50F4
:100CB800D9261050DA22DF50D8B41ED0C6871BECD4
:100CC80007F01AD020EE09F00F50D9261050DA227A
:100CD800DF50D8B408D00FC006F010C007F0EBEC16
:100CE8000AF01BEC07F020EE08F00F50D926105040
:100CF800DA22DF50D8A4FF0020EE08F00F50D926E2
:100D08001050DA22FF0EDF6E120020EE01F00850BC
:100D1800D9260950DA22020EDE18D8A447D020EED0
:100D280010F00850D9260950DA22060EDF6E20EEA0
:100D380008F00850D9260950DA22CAEC0DF0DF6E07
:100D480020EE09F00850D9260950DA2292EC0DF06D
:100D580007C006F0076A0650DF6E20EE0AF008505A
:100D6800D9260950DA2292EC0DF00650DF6E20EEFB
:100D78000BF00850D9260950DA227DEC0DF0065008
:100D8800DF6E20EE0CF00850D9260950DA2297ECD5
:100D98000DF00650DF6E20EE0DF00850D9260950F0
:100DA800DA22BFEC0DF00650DF6E120020EE04F0E0
:100DB8000850D9260950DA22DECF06F0DDCF07F039
:100DC8009AEC07F006C00CF007C00DF020EE08F012
:100DD8000850D9260950DA22DF50D8A40AD00C1CB2
:100DE8000A6E0D1C0B6E31500A14316E32500B1402
:100DF80005D00C503110316E0D503210326E31501A
:100E08003210D8B40AD0CAEC0DF0E806D8B41200F3
:100E18002B80010EC3EC0DF01200CAEC0DF0E806B1
:100E2800D8A412002B80000EC3EC0DF01200560E51
:100E3800096E000E0A6E000E0C6E0A0E0B6E000E86
:100E48000E6E020E0D6E38EC0CF04B0E096E000E95
:100E58000A6E000E0C6E0D0E0B6E000E0E6E020E5C
:100E68000D6E38EC0CF0580E096E000E0A6E000E6E
:100E78000C6E100E0B6E000E0E6E020E0D6E38EC20
:100E88000CF0490E096E000E0A6E000E0C6E130E61
:100E98000B6E000E0E6E020E0D6E38EC0CF0470E47
:100EA800096E000E0A6E000E0C6E160E0B6E000E0A
:100EB8000E6E020E0D6E38EC0CF0450E096E000E2B
:100EC8000A6E000E0C6E190E0B6E000E0E6E020EE0
:100ED8000D6E38EC0CF0430E096E000E0A6E000E13
:100EE8000C6E1C0E0B6E000E0E6E020E0D6E38ECA4
:100EF8000CF0410E096E000E0A6E000E0C6E1F0EED
:100F08000B6E000E0E6E020E0D6E38EC0CF03F0EDE
:100F1800096E000E0A6E000E0C6E220E0B6E000E8D
:100F28000E6E020E0D6E38EC0CF0120006504B18C7
:100F380009E107504C18D8A405D0000E076E010E21
:100F4800066E12000650581809E107505918D8A41F
:100F580005D0000E076E020E066E120006504918E4
:100F680009E107504A18D8A405D0000E076E040EF0
:100F7800066E12000650471809E107504818D8A411
:100F880005D0000E076E080E066E120006504518B2
:100F980009E107504618D8A405D0000E076E100EB8
:100FA800066E12000650431809E107504418D8A4E9
:100FB80005D0000E076E200E066E1200065041186E
:100FC80009E107504218D8A405D0000E076E400E5C
:100FD800066E120006503F1809E107504018D8A4C1
:100FE80005D0000E076E800E066E1200000E076E0A
:100FF800000E066E1200116E0DC014F00EC015F032
:10100800000E136E000E126E0FC006F010C007F02F
:10101800000E096E0A0E086E44EC0BF006C016F0BE
:1010280007C017F01150D8B417D031D0125014108F
:10103800126E13501510136E14C006F015C007F089
:10104800DFEC0BF006C014F007C015F0FF0E1624F5
:10105800166EFF0E1720176E16501710D8B41BD037
:10106800E5D712501410126E13501510136E14C0D9
:1010780006F015C007F094EC0BF006C014F007C09A
:1010880015F0FF0E1624166EFF0E1720176E165059
:101098001710D8A4E6D712C006F013C007F01150F5
:1010A8003CEC05F0120020EE01F00650D92607505E
:1010B800DA22020EDE18D8A421D020EE10F0065055
:1010C800D9260750DA22030EDF6E20EE08F006500C
:1010D800D9260750DA22000EDF6E20EE09F00650FE
:1010E800D9260750DA2240C0DFFF20EE0AF006506A
:1010F800D9260750DA2242C0DFFF120020EE08F09E
:101108000650D9260750DA22DF50086E08500A6EBA
:10111800096A20EE09F00650D9260750DA22DF5076
:101128000B6E0B500910406E0A50416E20EE0AF00B
:101138000650D9260750DA22DF50086E0850426E52
:10114800436A1200000E0F01086F200E096F09870D
:101158004C500A6F4BC00BFF000E0C6F200E0D6F2A
:101168000D8759500E6F58C00FFF000E106F200EDC
:10117800116F11874A50126F49C013FF000E146F88
:10118800200E156F15874850166F47C017FF000EC1
:101198000D01606F200E616F61874650626F45C018
:1011A80063FD000E646F200E656F65874450666F9F
:1011B80043C067FD000E686F200E696F6987425053
:1011C8006A6F41C06BFD000E706F200E716F7187E2
:1011D8004050726F3FC073FD1200000E0B6E09AED7
:1011E80006D0086C091ED8B0092A010E0B6E07AE8E
:1011F80006D0066C071ED8B0072A010E0B1A000E7F
:101208000D6E000E0C6E08500910D8B41CD0010EDB
:101218000A6E04D0D890083609360A2A09AEFAD7D9
:10122800D8900C360D360850065C09500758D8A0DF
:1012380005D00850065E0950075A0C80D89009322C
:1012480008320A2EEDD70B50D8B404D00C6C0D1E02
:10125800D8B00D2A0CC006F00DC007F012003A50A5
:10126800D8A413D0000E076E000E066E000E3CECDC
:1012780005F04FC00DF050C00EF053C00FF054C031
:1012880010F05550FFEC07F012D0000E076E000E5C
:10129800066E55503CEC05F051C00DF052C00EF0F2
:1012A80053C00FF054C010F0000EFFEC07F051C00F
:1012B80006F052C007F094EC0BF006C051F007C0DE
:1012C80052F04FC006F050C007F0DFEC0BF006C03C
:1012D8004FF007C050F01200000E066E000E076EA9
:1012E800200E086E000E096E69EC0DF006C0D2F0F3
:1012F80007C0D3F0010E066E000E076E200E086EB2
:10130800000E096E69EC0DF006C007F0066A06507B
:101318000001D2130750D313D2C02DF0D3C02EF042
:101328002DEC0DF0D0680001CBB1CB91B5EC0DF0F0
:1013380006040710D8A408D033EC09F0000E076E95
:10134800000E066EB0EC0DF0BAEC0BF00400EBD713
:1013580020EE02F00650D9260750DA22030EDF6E7F
:1013680020EE01F00650D9260750DA22010EDF6E72
:101378000850096E0A6AD89009360A36D890093694
:101388000A3620EE06F00650D9260750DA2209C0A0
:10139800DEFF0AC0DDFF20EE04F00650D926075014
:1013A800DA222DC0DEFF2EC0DDFF20EE06F006504B
:1013B800D9260750DA22DF9020EE06F00650D9260B
:1013C8000750DA22DF92120020EE01F00850D926E9
:1013D8000950DA22020EDE18D8A4120020EE10F00E
:1013E8000850D9260950DA22040EDF6E20EE08F0E4
:1013F8000850D9260950DA22A6EC0DF00650DF6E07
:1014080020EE09F00850D9260950DA22A1EC0DF097
:101418000650DF6E20EE0AF00850D9260950DA226D
:101428009CEC0DF00650DF6E20EE0BF00850D9262C
:101438000950DA22ABEC0DF00650DF6E1200500EA8
:101448000D01F06F550EF16F550EF26F550EF36FDB
:10145800000E0F01186F0B0E196F1A691B691C69B2
:101468001D691E691F69000E186F000E196F000EA6
:10147800006F010E016F01872E50026F2DC003FF10
:10148800000E046F010E056F05877F0E066F076952
:10149800A6EC08F0000E0D01E06F110EE16F110EC1
:1014A800E26F110EE36F110EE46FD469030ED56F6E
:1014B800120020EE01F00650D9260750DA22020E5B
:1014C800DE18D8A4120020EE10F00650D9260750D6
:1014D800DA22040EDF6E20EE08F00650D9260750F7
:1014E800DA220550DF6E20EE09F00650D9260750A3
:1014F800DA2204C0DFFF20EE0AF00650D926075092
:10150800DA220B50DF6E20EE0BF00650D92607507A
:10151800DA220AC0DFFF1200800E6F6E6E50E00BF9
:10152800800AD8A4FBD7000E0D01F86F000E0F013A
:10153800406F000E606E000E506F000E0E01206F9F
:10154800000E306F000EA36EA568000EA46E000E8C
:101558000D01FA6F900E776E07EC0DF023EC0AF090
:101568007368000E6F6E6ECF06F0E00E0616D8B4E4
:101578001200F9D7160EF66E1B0EF76E000EF86EF7
:1015880000EE4DF010EE0DF00900F5CFEEFFE5503E
:10159800E150FAE100EED4F012EE20F0EE6AE550E8
:1015A800E150FCE1E250FAE100EE60F0720EEE6A02
:1015B800E806FDE100EE2BF0220EEE6AE806FDE1FA
:1015C8005A905A92000EF86E000170EF09F020EE62
:1015D8000CF00650D9260750DA22DF50086E085062
:1015E800366E376A20EE0DF00650D9260750DA22FB
:1015F800DF50086E0850386E396A20EE0EF006503B
:10160800D9260750DA22DF50086E08503A6E3B6A36
:1016180020EE0FF00650D9260750DA22DF50086E68
:1016280008503C6E3D6A120020EE01F00D50D9269C
:101638000E50DA22020EDE18D8A413D020EE08F0DD
:101648000D50D9260E50DA220CC006F00DC007F056
:10165800000E096E0A0E086E44EC0BF00650DF6EA1
:10166800120020EE08F00D50D9260E50DA22DF5075
:101678000F6E0F500A0DF3CF0CF0F4CF0DF01200DF
:10168800000E0C6E000E0B6E08500910D8B41CD05A
:10169800010E0A6E04D0D890083609360A2A09AE17
:1016A800FAD7D8900B360C360850065C0950075804
:1016B800D8A005D00850065E0950075A0B80D8906C
:1016C800093208320A2EEDD70BC006F00CC007F01D
:1016D800120020EE01F00650D9260750DA22020E39
:1016E800DE18D8A4120020EE10F00650D9260750B4
:1016F800DA22010EDF6E000E0A6E000E096E094A2C
:101708000A2A0A5004E1030E095CD8A0F8D720EE93
:1017180008F00650D9260750DA22FF0EDF6E1200B5
:1017280006A018D0FE0E06140A6E030E07140B6EE0
:10173800D8900B30086E0A300A6E08C00BF0000E05
:101748000A100A6E020E0B100B6E0AC006F00BC0D0
:1017580007F01200D8900730086E0630066E08C0F1
:1017680007F006C006F007C007F012002BA013D040
:10177800020E1B6E000E1E6E000E1F6E000E206EF7
:10178800000E216E040E206E1A0E126E000E136EDD
:10179800C0EC02F02B901A0E0E6E000E0F6E97EC36
:1017A80001F00009D8B412001A0E126E000E136E62
:1017B800C0EC02F0120007A215D0FF0E0614086E46
:1017C800010E0714096ED8900834086E0934096EA2
:1017D800010E0810086E0950096E08C006F009C00D
:1017E80007F01200D8900634066E0734076E06C05C
:1017F80006F007C007F01200010E0E6E000E306EE4
:10180800000E2F6E000E076E030E066E3D0E086E5C
:10181800000E096E89EC0CF00E16000E076E100E05
:10182800066E3B0E086E000E096E89EC0CF00E1663
:10183800120020EE01F00650D9260750DA22020ED7
:10184800DE18D8A4120020EE10F00650D926075052
:10185800DA22010EDF6E20EE08F00650D926075076
:10186800DA22FF0EDF6E120015D0A6B2FED70BC02B
:1018780006F00CC007F009C0D9FF0AC0DAFFDF5034
:10188800086EA4EC0CF00B4A0C2A0D06D8A00E0624
:10189800094A0A2A0D500E10D8B41200E6D720EED5
:1018A80001F00650D9260750DA22020EDE18D8A415
:1018B800120020EE10F00650D9260750DA22010E49
:1018C800DF6E20EE08F00650D9260750DA22FF0E08
:1018D800DF6E120020EE01F00650D9260750DA22FA
:1018E800020EDE18D8A4120020EE10F00650D926F9
:1018F8000750DA22010EDF6E20EE08F00650D926D6
:101908000750DA22FF0EDF6E120006502F240A6EEF
:10191800075030200B6E0A04040E0B58D8A002D0D2
:10192800000E120008C0D9FF09C0DAFF2FC0DEFF81
:1019380030C0DDFF06502F2607503022010E12005E
:101948000750AA6E06C0A9FF08C0A8FFA684000E0B
:10195800F2BE010E356EF29E550EA76EAA0EA76E48
:10196800A68235B002D0F29E01D0F28EA694A6B21D
:10197800FED7120014D0A6B2FED70AC006F00BC0DC
:1019880007F074EC0DF008C0D9FF09C0DAFFDF6E6C
:101998000A4A0B2A084A092A0C06D8A00D060C5038
:1019A8000D10D8B41200E7D79250010B926E9350E5
:1019B800FC0B936E9650F80B966E000E956E000E0B
:1019C800076E000E066E000E3CEC05F0000E076E6A
:1019D800000E066E010E3CEC05F01200000E0A6EB9
:1019E8000A500824D96E000E0920DA6E0A5006241F
:1019F800E16E000E0720E26EDFCFE7FF0A2A070E2E
:101A08000A64EED712007080708270947096709895
:101A1800709A708C708E71867188718A71847192D7
:101A28007190728072927284718C718E1200000EA5
:101A3800016E000E026ECECF01F0CFCF02F000F0A3
:101A48009E0E0226570E012602C0CFFF5B0ECE6EF9
:101A58001200D18000EC0CF0BCEC03F004003EEC6A
:101A68000DF090EC0AF084EC0DF05DEC0DF0D8EC84
:101A78000CF01200000E896E000E8A6E000E8B6E3E
:101A88000C0E926E880E936EBF0E946ED08E00016F
:101A9800CB871200020E076EAA0E066E000E3CECF3
:101AA80005F0000E076E000E066E010E3CEC05F008
:101AB8001200D38CD38AD3883D0ECD6E9E0ECF6E86
:101AC800570ECE6E9D80CD80120006C0F6FF07C06F
:101AD800F7FF08C0F8FF0800F5CF06F0076A120004
:101AE8000750AA6E06C0A9FFA680A69EA69CA8506D
:101AF80012004D50066E4E50076E4D4A4E2A120087
:101B0800F28EF28CD08ED08EF28C9F901200110043
:0B1B180001000100140001FFFF2A0182
:101B2400020E076E200E066E1200000E076E1B0ECC
:101B3400066E1200000E076EFE0E066E1200000EF8
:101B4400076EFE0E066E1200000E076EFE0E066E87
:101B54001200000E076E000E066E120006C033F06F
:101B640007C034F0120033C006F034C007F012008E
:101B740001C033F002C034F01200000E076E066894
:101B84001200066E06C03AF0120006005A921100C6
:081B94003A5012001200120089
:020000040020DA
:08000000FFFFFFFFFFFFFFFF00
:020000040030CA
:0E000000FF081F1EFF8281FF0FC00FE00F40A0
:00000001FF
