:020000040000FA
:040000002FEF00F0EE
:060008004C8232ED0EF007
:100018004C80D8CF27F0E8CF28F0E0CF29F09EA079
:1000280012D087EC0DF0000E266E010E256E25EC21
:100038000EF00001CB81102A140E106403D0000EBC
:10004800106E01809E9029C0E0FF28C0E8FF27C0FD
:10005800D8FF4C90100029EF0BF0F00E2C24326ED4
:10006800FF0E2D20336E20EE01F02A50D9262B509A
:10007800DA22020EDE18D8A48ED020EE10F02A5014
:10008800D9262B50DA22080EDF6E32503310D8A44E
:1000980041D020EE08F02A50D9262B50DA222450DD
:1000A800DF6E20EE09F02A50D9262B50DA2223C021
:1000B800DFFF20EE0AF02A50D9262B50DA224B50C7
:1000C800DF6E20EE0BF02A50D9262B50DA224AC0D8
:1000D800DFFF20EE0CF02A50D9262B50DA222250CE
:1000E800DF6E20EE0DF02A50D9262B50DA2221C0DF
:1000F800DFFF20EE0EF02A50D9262B50DA222050AE
:10010800DF6E20EE0FF02A50D9262B50DA221FC0BE
:10011800DFFF120020EE08F02A50D9262B50DA22F1
:100128001E50DF6E20EE09F02A50D9262B50DA2215
:100138001DC0DFFF20EE0AF02A50D9262B50DA2204
:100148001C50DF6E20EE0BF02A50D9262B50DA22F5
:100158001BC0DFFF20EE0CF02A50D9262B50DA22E4
:100168001A50DF6E20EE0DF02A50D9262B50DA22D5
:1001780019C0DFFF20EE0EF02A50D9262B50DA22C4
:100188001850DF6E20EE0FF02A50D9262B50DA22B5
:1001980017C0DFFF120032503310D8A463D020EE0E
:1001A80008F02A50D9262B50DA22DF502E6E2E5016
:1001B800306E2F6A20EE09F02A50D9262B50DA2209
:1001C800DF50316E31502F10236E3050246E20EEE8
:1001D8000AF02A50D9262B50DA22DF502E6E2E50E4
:1001E800306E2F6A20EE0BF02A50D9262B50DA22D7
:1001F800DF50316E31502F104A6E30504B6E20EE6A
:100208000CF02A50D9262B50DA22DF502E6E2E50B1
:10021800306E2F6A20EE0DF02A50D9262B50DA22A4
:10022800DF50316E31502F10216E3050226E20EE8B
:100238000EF02A50D9262B50DA22DF502E6E2E507F
:10024800306E2F6A20EE0FF02A50D9262B50DA2272
:10025800DF50316E31502F101F6E3050206E10EC71
:1002680009F0120020EE08F02A50D9262B50DA2285
:10027800DF502E6E2E50306E2F6A20EE09F02A5075
:10028800D9262B50DA22DF50316E31502F101D6ED7
:1002980030501E6E20EE0AF02A50D9262B50DA2252
:1002A800DF502E6E2E50306E2F6A20EE0BF02A5043
:1002B800D9262B50DA22DF50316E31502F101B6EA9
:1002C80030501C6E20EE0CF02A50D9262B50DA2222
:1002D800DF502E6E2E50306E2F6A20EE0DF02A5011
:1002E800D9262B50DA22DF50316E31502F10196E7B
:1002F80030501A6E20EE0EF02A50D9262B50DA22F2
:10030800DF502E6E2E50306E2F6A20EE0FF02A50DE
:10031800D9262B50DA22DF50316E31502F10176E4C
:100328003050186E9CD76F500F0B376E37509009AE
:10033800776E18D060CF36F035D050CF36F032D047
:1003480020CE36F02FD030CE36F02CD040CE36F03E
:1003580029D050CE36F026D060CE36F023D070CEDD
:1003680036F020D03750346E356A3550000AD8A49C
:1003780019D03450000AD8B4DDD7010AD8B4DDD773
:10038800030AD8B4DDD7010AD8B4DDD7070AD8B430
:10039800DDD7010AD8B4DDD7030AD8B4DDD7010AFE
:1003A800D8B4DDD736AEA5D020EE03F03250D9262A
:1003B8003350DA2260501F0BDF6E20EE04F032500B
:1003C800D9263350DA2264CFDFFF20EE05F0325011
:1003D800D9263350DA2263CFDFFF20EE06F0325001
:1003E800D9263350DA2262CF34F0030E341662CFA6
:1003F8002AF02B6A000E2D6E080E2C6E5BEC09F0AD
:100408002A503410DF6E6150346E356A050ED8906C
:1004180034363536E82EFBD720EE06F03250D92692
:100428003350DA223450DE123550DD1220EE02F05D
:100438003250D9263350DA22030EDF6E65BC68D0FD
:1004480020EE01F03250D9263350DA22010EDF6E49
:1004580020EE10F03250D9263350DA2265500F0BB7
:10046800DF6E20EE10F03250D9263350DA22080E13
:10047800DF6441D01ED0000E606E3BD0000E0F012D
:100488000ED0000E0E01206F34D0000E0E01306F1A
:1004980030D0000E0E01406F2CD0000E0E01506FB0
:1004A80028D0000E0E01606F24D0000E0E01706F70
:1004B80020D03750346E356A3550000AD8A419D088
:1004C8003450000AD8B4D7D7010AD8B4D7D7030A0A
:1004D800D8B4D7D7010AD8B4D8D7070AD8B4D9D747
:1004E800010AD8B4DAD7030AD8B4DBD7010AD8B4DA
:1004F800DCD7000E1200080E32242A6E000E3320BC
:100508002B6E660E2C6E0F0E2D6E5EEC0DF027D046
:1005180020EE01F03250D9263350DA22020EDF6E77
:100528001ED0000E606E3BD0000E0F010ED0000EE4
:100538000E01206F34D0000E0E01306F30D0000E47
:100548000E01406F2CD0000E0E01506F28D0000E07
:100558000E01606F24D0000E0E01706F20D037504E
:10056800346E356A3550000AD8A419D03450000AC0
:10057800D8B4D7D7010AD8B4D7D7030AD8B4D7D7AD
:10058800010AD8B4D8D7070AD8B4D9D7010AD8B439
:10059800DAD7030AD8B4DBD7010AD8B4DCD7010EFE
:1005A800120020EE06F03650D9263750DA22DF50F6
:1005B800386E38502A6E2B6A000E2D6E040E2C6E83
:1005C8005BEC09F02A503E6E3E04D8B474D03EC0AD
:1005D8003CF03D6A70D036C02CF037C02DF097EC57
:1005E80006F09ED036C02CF037C02DF054EC0AF03F
:1005F80097D036C02AF037C02BF089EC0CF090D099
:1006080036C02AF037C02BF0D8EC0BF089D036C0B2
:100618002AF037C02BF0DAEC0CF082D036C02AF082
:1006280037C02BF0BFEC0CF07BD036C033F037C0AE
:1006380034F0F3EC05F074D036C031F037C032F046
:1006480083EC0BF06DD036C02AF037C02BF037ECB6
:100658000EF066D036C02AF037C02BF0C8EC0AF08E
:100668005FD036C02AF037C02BF0F40E3E242C6E33
:100678002D6AFF0E2D2238EC0EF052D036C02AF02B
:1006880037C02BF0C1EC08F04BD036C02AF037C089
:100698002BF0000E2D6E100E2C6E31EC00F040D0B9
:1006A80036C02AF037C02BF0000E2D6E110E2C6EBE
:1006B80031EC00F035D03E50386E396A3950000AB6
:1006C800D8A42ED03850010AD8B485D7030AD8B494
:1006D80089D7010AD8B48DD7070AD8B491D7010AA7
:1006E800D8B495D7030AD8B499D7010AD8B49DD7F6
:1006F8000E0AD8B4A1D7030AD8B4A5D7010AD8B42A
:10070800A9D7070AD8B4ADD7010AD8B4AAD7020A1C
:10071800D8B4B4D71F0AD8B4B8D7010AD8B4C0D748
:1007280020EE01F03650D9263750DA22020EDE18B4
:10073800D8A4120020EE02F03650D9263750DA221B
:10074800030EDF6E20EE01F03650D9263750DA223C
:10075800010EDF6E20EE04F03650D9263750DA222B
:10076800DE6ADE6ADE6ADD6A3E50040D20EE06F0BF
:100778003650D9263750DA22F3CFDFFF36C02AF0B9
:1007880037C02BF03EC02CF018EC0AF036C02FF022
:1007980037C030F0D8EC03F004D00F0140B9BAEC00
:1007A8000DF060A61200F9D7830E776E60A60AD006
:1007B800840E776E60A606D0850E776E60A602D08E
:1007C800F3D7FF0074B4FDD7000E0001CD6F20EE03
:1007D80004F02F50D9263050DA22DF50646E20EE14
:1007E80005F02F50D9263050DA22DF50636E20EE04
:1007F80006F02F50D9263050DA22DF50316E030E22
:10080800311620EE06F02F50D9263050DA22DF506C
:10081800FC0B080DF3503110626E628620EE06F074
:100828002F50D9263050DA22DECF31F0DDCF32F02A
:10083800050E336ED89032323132332EFBD7315019
:10084800616E000E656E20EE01F02F50D9263050F3
:10085800DA22020EDE18D8A402D0658C5AD020EE17
:1008680010F02F50D9263050DA22DF50316E0F0E9B
:10087800311665503118FE0B3118656E20EE10F0F8
:100888002F50D9263050DA22DF50316ED8903132CD
:10089800070E3116314665503118FD0B3118656E5B
:1008A80020EE10F02F50D9263050DA22DF50316E6A
:1008B800D8903132D8903132030E31163146314654
:1008C80065503118FB0B3118656E20EE10F02F5073
:1008D800D9263050DA22DF50316ED8903132D89094
:1008E8003132D8903132010E311631463146314617
:1008F80065503118F70B3118656E660E2A6E0F0EAB
:100908002B6E080E2F242C6E000E30202D6E5EEC00
:100918000DF060860001CB891200230E2C6E000EAC
:100928002D6E000E2F6E0A0E2E6E000E316E020E08
:10093800306E2AEC0DF0232807E12428D8A404D02F
:10094800000E246E000E236E4A0E2C6E000E2D6EC5
:10095800000E2F6E140E2E6E000E316E020E306ECB
:100968002AEC0DF04A2807E14B28D8A404D0000E41
:100978004B6E000E4A6E210E2C6E000E2D6E000E70
:100988002F6E1E0E2E6E000E316E020E306E2AEC89
:100998000DF0212807E12228D8A404D0000E226EE9
:1009A800000E216E1F0E2C6E000E2D6E000E2F6E87
:1009B800280E2E6E000E316E020E306E2AEC0DF0EF
:1009C8001F2807E12028D8A404D0000E206E000EAE
:1009D8001F6E1D0E2C6E000E2D6E000E2F6E320E29
:1009E8002E6E000E316E020E306E2AEC0DF01D28B0
:1009F80007E11E28D8A404D0000E1E6E000E1D6E3E
:100A08001B0E2C6E000E2D6E000E2F6E3C0E2E6EE1
:100A1800000E316E020E306E2AEC0DF01B2807E135
:100A28001C28D8A404D0000E1C6E000E1B6E190ED4
:100A38002C6E000E2D6E000E2F6E460E2E6E000EC2
:100A4800316E020E306E2AEC0DF0192807E11A28D3
:100A5800D8A404D0000E1A6E000E196E170E2C6E54
:100A6800000E2D6E000E2F6E500E2E6E000E316E83
:100A7800020E306E2AEC0DF0172807E11828D8A4CA
:100A88001200000E186E000E176E12002E6E2E50F9
:100A9800D8A450D02AA003D08C50100902D08C5072
:100AA800EF0B8C6E2AA203D08C50400902D08C50D8
:100AB800BF0B8C6E2AA403D08A50010902D08A5039
:100AC800FE0B8A6E2AA603D08950020902D08950EB
:100AD800FD0B896E2AA803D08950080902D08950D5
:100AE800F70B896E2AAA03D08950200902D08950B1
:100AF800DF0B896E2AAC03D08D50020902D08D50CD
:100B0800FD0B8D6E2AAE03D08950800902D0895022
:100B18007F0B896E2BA003D08C50010902D08C501A
:100B2800FE0B8C6E2BA203D08C50040902D08C5083
:100B3800FB0B8C6E2E04D8A412002AA003D08C5074
:100B4800200902D08C50DF0B8C6E2AA203D08C5067
:100B5800800902D08C507F0B8C6E2AA403D08A5057
:100B6800020902D08A50FD0B8A6E2AA603D089504A
:100B7800040902D08950FB0B896E2AA803D089503A
:100B8800100902D08950EF0B896E2AAA03D08D5024
:100B9800010902D08D50FE0B8D6E2AAC03D08D500A
:100BA800040902D08D50FB0B8D6E2AAE03D08950FC
:100BB800400902D08950BF0B896E2BA003D08C50FE
:100BC800020902D08C50FD0B8C6E2BA204D08C50E5
:100BD80008098C6E12008C50F70B8C6E120020EEF8
:100BE80001F03350D9263450DA22020EDE18D8A488
:100BF80057D020EE10F03350D9263450DA22010EA7
:100C0800DF6E20EE08F03350D9263450DA22D04473
:100C1800E846030B010BDF6E20EE09F03350D926AE
:100C28003450DA220001C6A902D0010E01D0000E0C
:100C3800DF6E20EE0AF03350D9263450DA22C6A1EE
:100C480002D0010E01D0000EDF6E20EE0BF0335003
:100C5800D9263450DA22000EDF6E20EE0CF0335025
:100C6800D9263450DA2236C0DFFF20EE0DF033509B
:100C7800D9263450DA2238C0DFFF20EE0EF0335088
:100C8800D9263450DA223AC0DFFF20EE0FF0335075
:100C9800D9263450DA223CC0DFFFD09CC699120016
:100CA80020EE10F03350D9263450DA22010EDF6ED0
:100CB80020EE0AF03350D9263450DA22DF50D8B467
:100CC8000FD00001C68120EE09F03350D9263450E8
:100CD800DA22DF50D8B41ED0C68793EC07F01AD0BA
:100CE80020EE09F03350D9263450DA22DF50D8B438
:100CF80008D033C02AF034C02BF056EC0BF093EC3C
:100D080007F020EE08F03350D9263450DA22DF50AD
:100D1800D8A4FF0020EE08F03350D9263450DA2248
:100D2800FF0EDF6E120020EE01F02C50D9262D5058
:100D3800DA22020EDE18D8A447D020EE10F02C508C
:100D4800D9262D50DA22060EDF6E20EE08F02C5040
:100D5800D9262D50DA2235EC0EF0DF6E20EE09F0A0
:100D68002C50D9262D50DA22FDEC0DF02BC02AF09C
:100D78002B6A2A50DF6E20EE0AF02C50D9262D500F
:100D8800DA22FDEC0DF02A50DF6E20EE0BF02C502D
:100D9800D9262D50DA22E9EC0DF02A50DF6E20EE2C
:100DA8000CF02C50D9262D50DA2202EC0EF02A50E5
:100DB800DF6E20EE0DF02C50D9262D50DA222AECC9
:100DC8000EF02A50DF6E120020EE04F02C50D926C7
:100DD8002D50DA22DECF2AF0DDCF2BF004EC08F01C
:100DE8002AC030F02BC031F020EE08F02C50D92664
:100DF8002D50DA22DF50D8A40AD0301C2E6E311CB8
:100E08002F6E07502E14076E08502F1405D030503F
:100E18000710076E31500810086E07500810D8B434
:100E280004D0010E2EEC0EF01200000E2EEC0EF087
:100E38001200000E2A6E000E2B6E200E2C6E000E75
:100E48002D6ED5EC0DF02AC03FF02BC040F0010EFE
:100E58002A6E000E2B6E200E2C6E000E2D6ED5EC19
:100E68000DF02AC02BF02A6A2A503F122B5040124C
:100E7800000E2A6E000E2B6E200E2C6E000E2D6EAC
:100E8800000E2F6E760E2E6E9DEC09F0010E2A6E66
:100E9800000E2B6E200E2C6E000E2D6E000E2F6E87
:100EA800000E2E6E9DEC09F0000E2A6E000E2B6EC1
:100EB800200E2C6E000E2D6ED5EC0DF02AC03FF0E2
:100EC8002BC040F0010E2A6E000E2B6E200E2C6EE9
:100ED800000E2D6ED5EC0DF02AC02BF02A6A2A5090
:100EE8003F122B5040123FC003F040C004F099EC71
:100EF8000DF0D0680001CBB1CB9120EC0EF02A04A4
:100F08002B10D8A408D0DBEC09F0000E2B6E000ED5
:100F18002A6E1BEC0EF0FFEC0BF00400EBD7230E4F
:100F28002D6E000E2E6E000E306E0A0E2F6E000E05
:100F3800326E080E316EA4EC0CF04A0E2D6E000EC7
:100F48002E6E000E306E140E2F6E000E326E080ECE
:100F5800316EA4EC0CF0210E2D6E000E2E6E000EDC
:100F6800306E1E0E2F6E000E326E080E316EA4EC1F
:100F78000CF01F0E2D6E000E2E6E000E306E280E19
:100F88002F6E000E326E080E316EA4EC0CF01D0EA2
:100F98002D6E000E2E6E000E306E320E2F6E000E6D
:100FA800326E080E316EA4EC0CF01B0E2D6E000E86
:100FB8002E6E000E306E3C0E2F6E000E326E080E36
:100FC800316EA4EC0CF0190E2D6E000E2E6E000E74
:100FD800306E460E2F6E000E326E080E316EA4EC87
:100FE8000CF0170E2D6E000E2E6E000E306E500E89
:100FF8002F6E000E326E080E316EA4EC0CF012004B
:101008002A50231809E12B502418D8A405D0000E23
:101018002B6E010E2A6E12002A504A1809E12B5035
:101028004B18D8A405D0000E2B6E020E2A6E1200A3
:101038002A50211809E12B502218D8A405D0000EF7
:101048002B6E040E2A6E12002A501F1809E12B502D
:101058002018D8A405D0000E2B6E080E2A6E120098
:101068002A501D1809E12B501E18D8A405D0000ECF
:101078002B6E100E2A6E12002A501B1809E12B50F5
:101088001C18D8A405D0000E2B6E200E2A6E120054
:101098002A50191809E12B501A18D8A405D0000EA7
:1010A8002B6E400E2A6E12002A50171809E12B5099
:1010B8001818D8A405D0000E2B6E800E2A6E1200C8
:1010C800000E2B6E000E2A6E1200356E31C038F0FD
:1010D80032C039F0000E376E000E366E33C02AF07B
:1010E80034C02BF0000E2D6E0A0E2C6EAFEC0BF0F8
:1010F8002AC03AF02BC03BF03550D8B417D031D0C5
:1011080036503810366E37503910376E38C02AF0DE
:1011180039C02BF04BEC0CF02AC038F02BC039F05A
:10112800FF0E3A243A6EFF0E3B203B6E3A503B10BE
:10113800D8B41BD0E5D736503810366E3750391032
:10114800376E38C02AF039C02BF025EC0CF02AC0D5
:1011580038F02BC039F0FF0E3A243A6EFF0E3B20D0
:101168003B6E3A503B10D8A4E6D736C02AF037C0B9
:101178002BF035504AEC05F0120020EE01F02A5011
:10118800D9262B50DA22020EDE18D8A421D020EE60
:1011980010F02A50D9262B50DA22030EDF6E20EEEB
:1011A80008F02A50D9262B50DA22000EDF6E20EEE6
:1011B80009F02A50D9262B50DA2240C0DFFF20EE52
:1011C8000AF02A50D9262B50DA2242C0DFFF12003B
:1011D80020EE08F02A50D9262B50DA22DF502C6E48
:1011E8002C502E6E2D6A20EE09F02A50D9262B504D
:1011F800DA22DF502F6E2F502D10406E2E50416E88
:1012080020EE0AF02A50D9262B50DA22DF502C6E15
:101218002C50426E436A1200000E0F01086F200E18
:10122800096F098724500A6F23C00BFF000E0C6F4B
:10123800200E0D6F0D874B500E6F4AC00FFF000E2A
:10124800106F200E116F11872250126F21C013FFEB
:10125800000E146F200E156F15872050166F1FC0D3
:1012680017FF000E0D01606F200E616F61871E5021
:10127800626F1DC063FD000E646F200E656F658789
:101288001C50666F1BC067FD000E686F200E696FEB
:1012980069871A506A6F19C06BFD000E706F200EB7
:1012A800716F71871850726F17C073FD1200000EAE
:1012B8002F6E2DAE06D02C6C2D1ED8B02D2A010E07
:1012C8002F6E2BAE06D02A6C2B1ED8B02B2A010EFF
:1012D8002F1A000E316E000E306E2C502D10D8B41F
:1012E8001CD0010E2E6E04D0D8902C362D362E2A06
:1012F8002DAEFAD7D890303631362C502A5C2D5086
:101308002B58D8A005D02C502A5E2D502B5A30804F
:10131800D8902D322C322E2EEDD72F50D8B404D0A1
:10132800306C311ED8B0312A30C02AF031C02BF0D1
:1013380012002E0E346E000E356EF2AE03D0306AF7
:10134800302A01D0306A3050326E336A2AC0F6FF34
:101358002BC0F7FF2CC0F8FF34C0D9FF35C0DAFF27
:10136800DECF30F0DDCF31F031C030F0316A3050AF
:10137800F56E0C0034C0D9FF35C0DAFFDF50F56ECA
:101388000C002AC0F6FF2BC0F7FF2CC0F8FFA68E72
:10139800A69CA684F29E550EA76EAA0EA76EA682DC
:1013A80032B002D0F29E01D0F28EA69412001250F2
:1013B800D8A413D0000E2B6E000E2A6E000E4AEC35
:1013C80005F043C031F044C032F047C033F048C0A4
:1013D80034F0495069EC08F012D0000E2B6E000E64
:1013E8002A6E49504AEC05F045C031F046C032F04B
:1013F80047C033F048C034F0000E69EC08F045C02F
:101408002AF046C02BF025EC0CF02AC045F02BC082
:1014180046F043C02AF044C02BF04BEC0CF02AC035
:1014280043F02BC044F0120020EE02F02A50D926D7
:101438002B50DA22030EDF6E20EE01F02A50D92657
:101448002B50DA22010EDF6E2C502D6E2E6AD890AA
:101458002D362E36D8902D362E3620EE06F02A5010
:10146800D9262B50DA222DC0DEFF2EC0DDFF20EE5C
:1014780004F02A50D9262B50DA2203C0DEFF04C01C
:10148800DDFF20EE06F02A50D9262B50DA22DF9015
:1014980020EE06F02A50D9262B50DA22DF921200CD
:1014A80020EE01F02C50D9262D50DA22020EDE183B
:1014B800D8A4120020EE10F02C50D9262D50DA2294
:1014C800040EDF6E20EE08F02C50D9262D50DA22BB
:1014D80011EC0EF02A50DF6E20EE09F02C50D926C0
:1014E8002D50DA220CEC0EF02A50DF6E20EE0AF0B6
:1014F8002C50D9262D50DA2207EC0EF02A50DF6E38
:1015080020EE0BF02C50D9262D50DA2216EC0EF0D6
:101518002A50DF6E1200500E0D01F06F550EF16F5C
:10152800550EF26F550EF36F000E0F01186F0B0E6C
:10153800196F1A691B691C691D691E691F69000EEC
:10154800186F000E196F000E006F010E016F0187F2
:101558000450026F03C003FF000E046F010E056FF5
:1015680005877F0E066F076910EC09F0000E0D0164
:10157800E06F110EE16F110EE26F110EE36F110EA5
:10158800E46F7F0ED46F120020EE01F02A50D926A6
:101598002B50DA22020EDE18D8A4120020EE10F02A
:1015A8002A50D9262B50DA22040EDF6E20EE08F0DE
:1015B8002A50D9262B50DA220550DF6E20EE09F08A
:1015C8002A50D9262B50DA2204C0DFFF20EE0AF079
:1015D8002A50D9262B50DA220B50DF6E20EE0BF062
:1015E8002A50D9262B50DA220AC0DFFF1200800EBB
:1015F8006F6E6E50E00B800AD8A4FBD7000E0D0169
:10160800F86F000E0F01406F000E606E000E506FF5
:10161800000E0E01206F000E306F000EA36EA5683D
:10162800000EA46E000E0D01FA6F900E776E73EC2B
:101638000DF08FEC0AF07368000E6F6E6ECF2AF013
:10164800E00E2A16D8B41200F9D7EE0EF66E1B0E6D
:10165800F76E000EF86E00EE41F010EE0BF0090088
:10166800F5CFEEFFE550E150FAE100EEE1F012EEC1
:1016780020F0EE6AE550E150FCE1E250FAE100EEBC
:1016880060F0700EEE6AE806FDE100EE01F0240E4F
:10169800EE6AE806FDE14C904C92000EF86E0001EF
:1016A8001DEF07F020EE0CF02A50D9262B50DA2235
:1016B800DF502C6E2C50366E376A20EE0DF02A5013
:1016C800D9262B50DA22DF502C6E2C50386E396A0E
:1016D80020EE0EF02A50D9262B50DA22DF502C6E3D
:1016E8002C503A6E3B6A20EE0FF02A50D9262B5028
:1016F800DA22DF502C6E2C503C6E3D6A120020EE30
:1017080001F03150D9263250DA22020EDE18D8A460
:1017180013D020EE08F03150D9263250DA220CC00E
:101728002AF00DC02BF0000E2D6E0A0E2C6EAFECB9
:101738000BF02A50DF6E120020EE08F03150D92647
:101748003250DA22DF50336E33500A0DF3CF0CF0EB
:10175800F4CF0DF01200000E306E000E2F6E2C50DC
:101768002D10D8B41CD0010E2E6E04D0D8902C3673
:101778002D362E2A2DAEFAD7D8902F3630362C504B
:101788002A5C2D502B58D8A005D02C502A5E2D50FD
:101798002B5A2F80D8902D322C322E2EEDD72FC0D9
:1017A8002AF030C02BF0120020EE01F02A50D92682
:1017B8002B50DA22020EDE18D8A4120020EE10F008
:1017C8002A50D9262B50DA22010EDF6E000E2E6E1B
:1017D800000E2D6E2D4A2E2A2E5004E1030E2D5C8C
:1017E800D8A0F8D720EE08F02A50D9262B50DA22B4
:1017F800FF0EDF6E120001A014D0020E0001D16F9F
:10180800000ED46F000ED56F000ED66F000ED76F86
:10181800040ED66FD00E366E000E376ED5EC02F081
:101828000190D00E326E000E336E97EC01F0000975
:10183800D8B41200D00E366E000E376ED5EC02F01A
:1018480012002AA018D0FE0E2A142E6E030E2B1496
:101858002F6ED8902F302C6E2E302E6E2CC02FF07D
:10186800000E2E102E6E020E2F102F6E2EC02AF094
:101878002FC02BF01200D8902B302C6E2A302A6EF5
:101888002CC02BF02AC02AF02BC02BF012002BA260
:1018980015D0FF0E2A142C6E010E2B142D6ED89025
:1018A8002C342C6E2D342D6E010E2C102C6E2D50D8
:1018B8002D6E2CC02AF02DC02BF01200D8902A349F
:1018C8002A6E2B342B6E2AC02AF02BC02BF0120064
:1018D800010E326E000E066E000E056E000E2B6EA7
:1018E800030E2A6E150E2C6E000E2D6EF5EC0CF004
:1018F8003216000E2B6E100E2A6E130E2C6E000E72
:101908002D6EF5EC0CF03216120020EE01F02A5084
:10191800D9262B50DA22020EDE18D8A4120020EEA7
:1019280010F02A50D9262B50DA22010EDF6E20EE55
:1019380008F02A50D9262B50DA22FF0EDF6E12004B
:1019480015D0A6B2FED72FC02AF030C02BF02DC07C
:10195800D9FF2EC0DAFFDF502C6E10EC0DF02F4AA5
:10196800302A3106D8A032062D4A2E2A315032109C
:10197800D8B41200E6D720EE01F02A50D9262B5011
:10198800DA22020EDE18D8A4120020EE10F02A5037
:10199800D9262B50DA22010EDF6E20EE08F02A50ED
:1019A800D9262B50DA22FF0EDF6E120020EE01F04E
:1019B8002A50D9262B50DA22020EDE18D8A412009B
:1019C80020EE10F02A50D9262B50DA22010EDF6EB5
:1019D80020EE08F02A50D9262B50DA22FF0EDF6EAF
:1019E80012002A5005242E6E2B5006202F6E2E042E
:1019F800040E2F58D8A002D0000E12002CC0D9FF18
:101A08002DC0DAFF05C0DEFF06C0DDFF2A5005261F
:101A18002B500622010E12002B50AA6E2AC0A9FFD5
:101A28002CC0A8FFA684000EF2BE010E0D6EF29E19
:101A3800550EA76EAA0EA76EA6820DB002D0F29E12
:101A480001D0F28EA694A6B2FED7120014D0A6B288
:101A5800FED72EC02AF02FC02BF0E0EC0DF02CC0E2
:101A6800D9FF2DC0DAFFDF6E2E4A2F2A2C4A2D2AE5
:101A78003006D8A0310630503110D8B41200E7D75C
:101A88009250010B926E9350FC0B936E9650F80B8C
:101A9800966E000E956E000E2B6E000E2A6E000ECE
:101AA8004AEC05F0000E2B6E000E2A6E010E4AEC71
:101AB80005F01200000E2E6E2E502C24D96E000E4A
:101AC8002D20DA6E2E502A24E16E000E2B20E26EB5
:101AD800DFCFE7FF2E2A070E2E64EED712007080A4
:101AE8007082709470967098709A708C708E7186EF
:101AF8007188718A71847192719072807292728405
:101B0800718C718E1200000E256E000E266ECECFDF
:101B180025F0CFCF26F000F09E0E2626570E25265C
:101B280026C0CFFF5B0ECE6E1200D1806CEC0CF09D
:101B380091EC04F00400AAEC0DF0FBEC0AF0F0ECD8
:101B48000DF0C9EC0DF044EC0DF01200000E896E9A
:101B5800000E8A6E000E8B6E0C0E926E880E936EBF
:101B6800BF0E946ED08E0001CB871200020E2B6E32
:101B7800AA0E2A6E000E4AEC05F0000E2B6E000E1F
:101B88002A6E010E4AEC05F01200D38CD38AD38852
:101B98003D0ECD6E9E0ECF6E570ECE6E9D80CD80C3
:101BA80012002AC0F6FF2BC0F7FF2CC0F8FF080070
:101BB800F5CF2AF02B6A12002B50AA6E2AC0A9FF73
:101BC800A680A69EA69CA850120041502A6E42509C
:101BD8002B6E414A422A1200F28EF28CD08ED08EA1
:101BE800F28C9F9012001100010001001400012ADC
:011BF80001EB
:101BFA00020E2B6E200E2A6E1200000E2B6E1B0E8A
:101C0A002A6E1200000E2B6EFE0E2A6E1200000EB5
:101C1A002B6EFE0E2A6E1200000E2B6EFE0E2A6E20
:101C2A001200000E2B6E000E2A6E12002AC009F056
:101C3A002BC00AF0120009C02AF00AC02BF01200C9
:101C4A0025C009F026C00AF01200000E2B6E2A6881
:101C5A0012002A6E2AC012F0120006004C921100DD
:081C6A001250120012001200DA
:020000040020DA
:08000000FFFFFFFFFFFFFFFF00
:020000040030CA
:0E000000FF081F1EFF8281FF0FC00FE00F40A0
:00000001FF
