:020000040000FA
:040000002EEF00F0EF
:0600080059826CED08F0C6
:100018005980D8CF03F0E8CF04F0E0CF05F09EA0D8
:1000280011D0E0EC07F0000E026E010E016E5AECE2
:1000380008F044804D2A140E4D6403D0000E4D6E16
:1000480040809E9005C0E0FF04C0E8FF03C0D8FFD1
:1000580059901000B1EF06F020EE01F00C50D926AF
:100068000D50DA22020EDE18D8A47FD020EE10F050
:100078000C50D9260D50DA22080EDF6E000E246EC1
:10008800000E236E23C010F024C011F0D890103653
:1000980011360CC012F00DC013F01050122611507A
:1000A8001322080E1224D96E000E1320DA6E0EC029
:1000B80014F00FC015F0D89014361536D8901436B1
:1000C80015362350142624501522D8901436153688
:1000D800D890143615360E0E1424E16E000E152035
:1000E800E26EE6CF16F0E5CF17F017C016F0176AE4
:1000F8001650DF6E0EC010F00FC011F0D8901036F9
:100108001136D8901036113623501026245011225B
:10011800D89010361136D890103611360E0E10249D
:10012800D96E000E1120DA6E23C012F024C013F02D
:10013800D890123613360CC014F00DC015F01250BA
:10014800142613501522090E1424E16E000E1520F2
:10015800E26EDFCFE7FF234A242A245005E1040E8C
:10016800235CD8B012008ED7120020EE0BF00C5092
:10017800D9260D50DA22DF50106E20EE0AF00C500E
:10018800D9260D50DA22DF501010116E1150216E51
:10019800226A20EE09F00C50D9260D50DA22DF50E1
:1001A800106E20EE08F00C50D9260D50DA22DF50E0
:1001B8001010116E11501F6E206A000E246E000E72
:1001C800236E23C010F024C011F0D89010361136D9
:1001D8000CC012F00DC013F010501226115013224B
:1001E800090E1224D96E000E1320DA6EDF50146E39
:1001F80023C015F024C016F0D890153616360CC05A
:1002080017F00DC018F01550172616501822080EB2
:100218001724D96E000E1820DA6EDF501410196EEC
:100228001A6A0EC01BF00FC01CF0D8901B361C3683
:10023800D8901B361C3623501B2624501C22D890DD
:100248001B361C36D8901B361C360E0E1B24D96E56
:10025800000E1C20DA6E19C0DEFF1AC0DDFF0EC0CA
:1002680010F00FC011F0D89010361136D890103613
:10027800113610C006F011C007F0000E096E440ECA
:10028800086ECDEC07F0C60E126E000E136E065007
:1002980012260750132223C006F024C007F0000ED0
:1002A800096E440E086ECDEC07F006501226075072
:1002B80013220EC014F00FC015F0D890143615365E
:1002C800D890143615362350142624501522D89069
:1002D80014361536D89014361536100E1424D96EE7
:1002E800000E1520DA6E12C0DEFF13C0DDFF234AB0
:1002F800242A245005E1040E235CD8B0120061D7EB
:1003080012006F500F0B136E13509009776E18D0B0
:1003180060CF12F035D050CF12F032D020CE12F08C
:100328002FD030CE12F02CD040CE12F029D050CEA3
:1003380012F026D060CE12F023D070CE12F020D06A
:100348001350106E116A1150000AD8A419D0105019
:10035800000AD8B4DDD7010AD8B4DDD7030AD8B467
:10036800DDD7010AD8B4DDD7070AD8B4DDD7010A2A
:10037800D8B4DDD7030AD8B4DDD7010AD8B4DDD79D
:1003880012AEA5D020EE03F00E50D9260F50DA2277
:1003980060501F0BDF6E20EE04F00E50D9260F5070
:1003A800DA2264CFDFFF20EE05F00E50D9260F5079
:1003B800DA2263CFDFFF20EE06F00E50D9260F5069
:1003C800DA2262CF10F0030E101662CF06F0076A29
:1003D800000E096E080E086ED2EC05F006501010DB
:1003E800DF6E6150106E116A050ED8901036113606
:1003F800E82EFBD720EE06F00E50D9260F50DA2251
:100408001050DE121150DD1220EE02F00E50D926E7
:100418000F50DA22030EDF6E65BC68D020EE01F0C3
:100428000E50D9260F50DA22010EDF6E20EE10F0A2
:100438000E50D9260F50DA2265500F0BDF6E20EED2
:1004480010F00E50D9260F50DA22080EDF6441D082
:100458001ED0000E606E3BD0000E0F010ED0000EB5
:100468000E01206F34D0000E0E01306F30D0000E18
:100478000E01406F2CD0000E0E01506F28D0000ED8
:100488000E01606F24D0000E0E01706F20D0135043
:10049800106E116A1150000AD8A419D01050000A21
:1004A800D8B4D7D7010AD8B4D7D7030AD8B4D7D77E
:1004B800010AD8B4D8D7070AD8B4D9D7010AD8B40A
:1004C800DAD7030AD8B4DBD7010AD8B4DCD7000ED0
:1004D8001200080E0E24066E000E0F20076E660E20
:1004E800086E0F0E096EA4EC07F027D020EE01F07D
:1004F8000E50D9260F50DA22020EDF6E1ED0000EE3
:10050800606E3BD0000E0F010ED0000E0E01206F62
:1005180034D0000E0E01306F30D0000E0E01406F47
:100528002CD0000E0E01506F28D0000E0E01606F07
:1005380024D0000E0E01706F20D01350106E116A77
:100548001150000AD8A419D01050000AD8B4D7D72F
:10055800010AD8B4D7D7030AD8B4D7D7010AD8B470
:10056800D8D7070AD8B4D9D7010AD8B4DAD7030A32
:10057800D8B4DBD7010AD8B4DCD7010E1200830E39
:10058800776E60A60AD0840E776E60A606D0850EB8
:10059800776E60A602D0F3D7FF0074B4FDD7000EC3
:1005A800466E20EE04F00B50D9260C50DA22DF50AC
:1005B800646E20EE05F00B50D9260C50DA22DF507D
:1005C800636E20EE06F00B50D9260C50DA22DF506D
:1005D8000D6E030E0D1620EE06F00B50D9260C50AA
:1005E800DA22DF50FC0B080DF3500D10626E6286A4
:1005F80020EE06F00B50D9260C50DA22DECF0DF093
:10060800DDCF0EF0050E0F6ED8900E320D320F2E84
:10061800FBD70D50616E000E656E20EE01F00B5099
:10062800D9260C50DA22020EDE18D8A402D0658C26
:100638005AD020EE10F00B50D9260C50DA22DF5099
:100648000D6E0F0E0D1665500D18FE0B0D18656E0C
:1006580020EE10F00B50D9260C50DA22DF500D6E28
:10066800D8900D32070E0D160D4665500D18FD0B6E
:100678000D18656E20EE10F00B50D9260C50DA22BA
:10068800DF500D6ED8900D32D8900D32030E0D1636
:100698000D460D4665500D18FB0B0D18656E20EEC6
:1006A80010F00B50D9260C50DA22DF500D6ED8907E
:1006B8000D32D8900D32D8900D32010E0D160D4620
:1006C8000D460D4665500D18F70B0D18656E660E34
:1006D800066E0F0E076E080E0B24086E000E0C2017
:1006E800096EA4EC07F06086448812000A6E0A506E
:1006F800D8A450D006A003D08C50100902D08C503A
:10070800EF0B8C6E06A203D08C50400902D08C509F
:10071800BF0B8C6E06A403D08A50010902D08A5000
:10072800FE0B8A6E06A603D08950020902D08950B2
:10073800FD0B896E06A803D08950080902D089509C
:10074800F70B896E06AA03D08950200902D0895078
:10075800DF0B896E06AC03D08D50020902D08D5094
:10076800FD0B8D6E06AE03D08950800902D08950EA
:100778007F0B896E07A003D08C50010902D08C50E2
:10078800FE0B8C6E07A203D08C50040902D08C504B
:10079800FB0B8C6E0A04D8A4120006A003D08C5060
:1007A800200902D08C50DF0B8C6E06A203D08C502F
:1007B800800902D08C507F0B8C6E06A403D08A501F
:1007C800020902D08A50FD0B8A6E06A603D0895012
:1007D800040902D08950FB0B896E06A803D0895002
:1007E800100902D08950EF0B896E06AA03D08D50EC
:1007F800010902D08D50FE0B8D6E06AC03D08D50D2
:10080800040902D08D50FB0B8D6E06AE03D08950C3
:10081800400902D08950BF0B896E07A003D08C50C5
:10082800020902D08C50FD0B8C6E07A204D08C50AC
:1008380008098C6E12008C50F70B8C6E120020EE9B
:1008480001F00B50D9260C50DA22020EDE18D8A47B
:1008580047D020EE10F00B50D9260C50DA22060EA5
:10086800DF6E20EE08F00B50D9260C50DA226FEC20
:1008780008F0DF6E20EE09F00B50D9260C50DA2272
:1008880046EC08F007C006F0076A0650DF6E20EE57
:100898000AF00B50D9260C50DA2246EC08F0065024
:1008A800DF6E20EE0BF00B50D9260C50DA2238EC14
:1008B80008F00650DF6E20EE0CF00B50D9260C50D5
:1008C800DA224BEC08F00650DF6E20EE0DF00B50EC
:1008D800D9260C50DA2264EC08F00650DF6E1200BC
:1008E8000EC117F00FC118F00B0E17181810D8A466
:1008F80013D017C013F018C014F0000E1A6E000EB3
:10090800196E01EC08F0194A1A2A900E195C010EAA
:100918001A58D8B013D0F5D717C015F018C016F06C
:10092800000E1A6E000E196EF2EC07F0194A1A2A18
:10093800900E195C010E1A58D8A0F6D720EE04F0D4
:100948000B50D9260C50DA222B0EDE180CE1DE04EF
:10095800D8A4120020EE08F00B50D9260C50DA2249
:10096800DF5068EC08F0120020EE06F02550D9267A
:100978002650DA22DF50276E2750066E076A000ECF
:10098800096E040E086ED2EC05F00650296E14D0DC
:1009980025C00BF026C00CF023EC04F019D025C0BC
:1009A8000CF026C00DF0F00E29240E6E0F6AFF0E13
:1009B8000F2230EC00F00CD02950276E286A2850FE
:1009C800000AD8A4ECD72750010AD8B4E1D7E7D752
:1009D80020EE01F02550D9262650DA22020EDE1824
:1009E800D8A4120020EE02F02550D9262650DA228B
:1009F800030EDF6E20EE01F02550D9262650DA22AC
:100A0800010EDF6E20EE04F02550D9262650DA229A
:100A1800DE6ADE6ADE6ADD6A2950040D20EE06F021
:100A28002550D9262650DA22F3CFDFFF25C006F05D
:100A380026C007F029C008F088EC05F025C00BF0A7
:100A480026C00CF0C3EC02F004D00F0140B9F2EC60
:100A580007F060A61200F9D7116E0DC014F00EC091
:100A680015F0000E136E000E126E0FC006F010C0C7
:100A780007F0000E096E0A0E086EDEEC06F006C0DE
:100A880016F007C017F01150D8B417D031D0125053
:100A98001410126E13501510136E14C006F015C002
:100AA80007F052EC07F006C014F007C015F0FF0E6F
:100AB8001624166EFF0E1720176E16501710D8B48E
:100AC8001BD0E5D712501410126E13501510136E68
:100AD80014C006F015C007F007EC07F006C014F0C4
:100AE80007C015F0FF0E1624166EFF0E1720176E9E
:100AF80016501710D8A4E6D712C006F013C007F096
:100B080011507AEC03F0120020EE02F00650D926BC
:100B18000750DA22030EDF6E20EE01F00650D926C8
:100B28000750DA22010EDF6E0850096E0A6AD89063
:100B380009360A36D89009360A3620EE06F00650ED
:100B4800D9260750DA2209C0DEFF0AC0DDFF2C0EC5
:100B5800096E010E0A6E20EE42F0DECF0BF0DDCFFB
:100B68000CF009500B260A500C2220EE04F0065017
:100B7800D9260750DA220BC0DEFF0CC0DDFF20EEBD
:100B880006F00650D9260750DA22DF9020EE06F04C
:100B98000650D9260750DA22DF921200000E0B6E9B
:100BA80009AE06D0086C091ED8B0092A010E0B6ED2
:100BB80007AE06D0066C071ED8B0072A010E0B1A1E
:100BC800000E0D6E000E0C6E08500910D8B41CD023
:100BD800010E0A6E04D0D890083609360A2A09AEE2
:100BE800FAD7D8900C360D360850065C09500758CD
:100BF800D8A005D00850065E0950075A0C80D89036
:100C0800093208320A2EEDD70B50D8B404D00C6C38
:100C18000D1ED8B00D2A0CC006F00DC007F012004A
:100C28004F50D8A413D0000E076E000E066E000EAB
:100C38007AEC03F052C00DF053C00EF056C00FF01E
:100C480057C010F0585030EC05F012D0000E076E67
:100C5800000E066E58507AEC03F054C00DF055C0E3
:100C68000EF056C00FF057C010F0000E30EC05F033
:100C780054C006F055C007F007EC07F006C054F062
:100C880007C055F052C006F053C007F052EC07F009
:100C980006C052F007C053F01200500E0D01F06F5D
:100CA800550EF16F550EF26F550EF36F000E0F01D2
:100CB800186F0B0E196F1A691B691C691D69000EE4
:100CC8001E6F000E1F6F000E006F010E016F01876F
:100CD8004350026F028D42C003FF000E046F010EE5
:100CE800056F05877F0E066F0769000E086F200ED7
:100CF800096F0987000E0A6F000E0B6F1200800E35
:100D08006F6E6E50E00B800AD8A4FBD7000E0D0161
:100D1800F86F000E0F01406F000E606E000E506FEE
:100D2800000E0E01206F000E306F000EA36EA56836
:100D3800000EA46E000E0D01FA6F900E776EB9ECDE
:100D480007F051EC06F07368000E6F6E6ECF06F078
:100D5800E00E0616D8B41200F9D7BE0EF66E100EC5
:100D6800F76E000EF86E00EE50F010EE09F0090074
:100D7800F5CFEEFFE550E150FAE100EEC6F012EED5
:100D880020F0EE6AE550E150FCE1E250FAE100EEB5
:100D980060F0660EEE6AE806FDE100EE3BF0150E27
:100DA800EE6AE806FDE159905992000EF86E0001CE
:100DB8008DEF07F0000E0B6E000E0A6E085009103A
:100DC800D8B41CD0010E0C6E04D0D8900836093661
:100DD8000C2A09AEFAD7D8900A360B360850065CAA
:100DE80009500758D8A005D00850065E0950075A80
:100DF8000A80D890093208320C2EEDD70AC006F0C6
:100E08000BC007F0120006A018D0FE0E06140A6EDA
:100E1800030E07140B6ED8900B30086E0A300A6E5A
:100E280008C00BF0000E0A100A6E020E0B100B6EB3
:100E38000AC006F00BC007F01200D8900730086E01
:100E48000630066E08C007F006C006F007C007F0B7
:100E5800120040A013D0020E2B6E000E2E6E000E54
:100E68002F6E000E306E000E316E040E306E2A0E9C
:100E7800256E000E266EB8EC04F040902A0E0E6E19
:100E8800000E0F6E85EC01F00009D8B412002A0E8E
:100E9800256E000E266EB8EC04F0120007A215D0DD
:100EA800FF0E0614086E010E0714096ED890083458
:100EB800086E0934096E010E0810086E0950096E93
:100EC80008C006F009C007F01200D8900634066E74
:100ED8000734076E06C006F007C007F012009250EC
:100EE800010B926E9350FC0B936E9650F80B966E16
:100EF800000E956E000E076E000E066E000E7AEC60
:100F080003F0000E076E000E066E010E7AEC03F079
:100F180012001FEC08F0D06844B0449055EC08F07B
:100F280006040710D8A408D014EC06F0000E076ECB
:100F3800000E066E50EC08F02DEC07F00400ECD71C
:100F4800000E0A6E0A500824D96E000E0920DA6EC7
:100F58000A500624E16E000E0720E26EDFCFE7FF9D
:100F68000A2A070E0A64EED7120070807082709405
:100F780070967098709A708C708E71867188718A6C
:100F8800718471927190728072927284718C718E78
:100F9800120006500802F3CF0AF0F4CF0BF0065007
:100FA8000902F3500B2607500802F3500B260AC01B
:100FB80006F00BC007F01200000E016E000E026E64
:100FC800CECF01F0CFCF02F000F09E0E0226570ED2
:100FD800012602C0CFFF5B0ECE6E1200020E076E16
:100FE800AA0E066E000E7AEC03F0000E076E000ED5
:100FF800066E010E7AEC03F01200000E076E000E6A
:10100800066E000E7AEC03F0020E076EAA0E066E4C
:10101800010E7AEC03F01200000E896E000E8A6E43
:10102800000E8B6E0C0E926E880E936EBF0E946E31
:10103800D08E44861200D180040010EC08F083ECB6
:1010480006F03FEC08F02CEC08F073EC07F0120007
:10105800D38CD38AD3883D0ECD6E9E0ECF6E570E9D
:10106800CE6E9D80CD8012005050066E5150076E96
:10107800504A512A1200F28EF28CD08ED08EF28C09
:101088009F901200020E076E200E066E1200000ED0
:10109800076E1B0E066E120006C047F007C048F028
:1010A800120047C006F048C007F0120001C047F020
:0F10B80002C048F01200110001000100140001F5
:1010C800000E076E06681200066E06C04FF012008A
:0A10D8000600599211004F5012005B
:020000040020DA
:08000000FFFFFFFFFFFFFFFF00
:020000040030CA
:0E000000FF081F1EFF8281FF0FC00FE00F40A0
:00000001FF
