:020000040000FA
:040000002FEF00F0EE
:060008004C8245ED0DF0F5
:100018004C80D8CF27F0E8CF28F0E0CF29F09EA079
:1000280012D0A4EC0CF0000E266E010E256E38ECF2
:100038000DF00001CB81122A140E126403D0000EB9
:10004800126E01809E9029C0E0FF28C0E8FF27C0FB
:10005800D8FF4C9010002EEF0AF0F00E2C24326ED0
:10006800FF0E2D20336E20EE01F02A50D9262B509A
:10007800DA22020EDE18D8A48ED020EE10F02A5014
:10008800D9262B50DA22080EDF6E32503310D8A44E
:1000980041D020EE08F02A50D9262B50DA224B50B6
:1000A800DF6E20EE09F02A50D9262B50DA224AC0FA
:1000B800DFFF20EE0AF02A50D9262B50DA224950C9
:1000C800DF6E20EE0BF02A50D9262B50DA2248C0DA
:1000D800DFFF20EE0CF02A50D9262B50DA222450CC
:1000E800DF6E20EE0DF02A50D9262B50DA2223C0DD
:1000F800DFFF20EE0EF02A50D9262B50DA222250AC
:10010800DF6E20EE0FF02A50D9262B50DA2221C0BC
:10011800DFFF120020EE08F02A50D9262B50DA22F1
:100128002050DF6E20EE09F02A50D9262B50DA2213
:100138001FC0DFFF20EE0AF02A50D9262B50DA2202
:100148001E50DF6E20EE0BF02A50D9262B50DA22F3
:100158001DC0DFFF20EE0CF02A50D9262B50DA22E2
:100168001C50DF6E20EE0DF02A50D9262B50DA22D3
:100178001BC0DFFF20EE0EF02A50D9262B50DA22C2
:100188001A50DF6E20EE0FF02A50D9262B50DA22B3
:1001980019C0DFFF120032503310D8A463D020EE0C
:1001A80008F02A50D9262B50DA22DF502E6E2E5016
:1001B800306E2F6A20EE09F02A50D9262B50DA2209
:1001C800DF50316E31502F104A6E30504B6E20EE9A
:1001D8000AF02A50D9262B50DA22DF502E6E2E50E4
:1001E800306E2F6A20EE0BF02A50D9262B50DA22D7
:1001F800DF50316E31502F10486E3050496E20EE6E
:100208000CF02A50D9262B50DA22DF502E6E2E50B1
:10021800306E2F6A20EE0DF02A50D9262B50DA22A4
:10022800DF50316E31502F10236E3050246E20EE87
:100238000EF02A50D9262B50DA22DF502E6E2E507F
:10024800306E2F6A20EE0FF02A50D9262B50DA2272
:10025800DF50316E31502F10216E3050226E51EC2C
:1002680008F0120020EE08F02A50D9262B50DA2286
:10027800DF502E6E2E50306E2F6A20EE09F02A5075
:10028800D9262B50DA22DF50316E31502F101F6ED5
:100298003050206E20EE0AF02A50D9262B50DA2250
:1002A800DF502E6E2E50306E2F6A20EE0BF02A5043
:1002B800D9262B50DA22DF50316E31502F101D6EA7
:1002C80030501E6E20EE0CF02A50D9262B50DA2220
:1002D800DF502E6E2E50306E2F6A20EE0DF02A5011
:1002E800D9262B50DA22DF50316E31502F101B6E79
:1002F80030501C6E20EE0EF02A50D9262B50DA22F0
:10030800DF502E6E2E50306E2F6A20EE0FF02A50DE
:10031800D9262B50DA22DF50316E31502F10196E4A
:1003280030501A6E9CD76F500F0B376E37509009AC
:10033800776E18D060CF36F035D050CF36F032D047
:1003480020CE36F02FD030CE36F02CD040CE36F03E
:1003580029D050CE36F026D060CE36F023D070CEDD
:1003680036F020D03750346E356A3550000AD8A49C
:1003780019D03450000AD8B4DDD7010AD8B4DDD773
:10038800030AD8B4DDD7010AD8B4DDD7070AD8B430
:10039800DDD7010AD8B4DDD7030AD8B4DDD7010AFE
:1003A800D8B4DDD736AEA5D020EE03F03250D9262A
:1003B8003350DA2260501F0BDF6E20EE04F032500B
:1003C800D9263350DA2264CFDFFF20EE05F0325011
:1003D800D9263350DA2263CFDFFF20EE06F0325001
:1003E800D9263350DA2262CF34F0030E341662CFA6
:1003F8002AF02B6A000E2D6E080E2C6E9CEC08F06D
:100408002A503410DF6E6150346E356A050ED8906C
:1004180034363536E82EFBD720EE06F03250D92692
:100428003350DA223450DE123550DD1220EE02F05D
:100438003250D9263350DA22030EDF6E65BC68D0FD
:1004480020EE01F03250D9263350DA22010EDF6E49
:1004580020EE10F03250D9263350DA2265500F0BB7
:10046800DF6E20EE10F03250D9263350DA22080E13
:10047800DF6441D01ED0000E606E3BD0000E0F012D
:100488000ED0000E0E01206F34D0000E0E01306F1A
:1004980030D0000E0E01406F2CD0000E0E01506FB0
:1004A80028D0000E0E01606F24D0000E0E01706F70
:1004B80020D03750346E356A3550000AD8A419D088
:1004C8003450000AD8B4D7D7010AD8B4D7D7030A0A
:1004D800D8B4D7D7010AD8B4D8D7070AD8B4D9D747
:1004E800010AD8B4DAD7030AD8B4DBD7010AD8B4DA
:1004F800DCD7000E1200080E32242A6E000E3320BC
:100508002B6E660E2C6E0F0E2D6E7BEC0CF027D02A
:1005180020EE01F03250D9263350DA22020EDF6E77
:100528001ED0000E606E3BD0000E0F010ED0000EE4
:100538000E01206F34D0000E0E01306F30D0000E47
:100548000E01406F2CD0000E0E01506F28D0000E07
:100558000E01606F24D0000E0E01706F20D037504E
:10056800346E356A3550000AD8A419D03450000AC0
:10057800D8B4D7D7010AD8B4D7D7030AD8B4D7D7AD
:10058800010AD8B4D8D7070AD8B4D9D7010AD8B439
:10059800DAD7030AD8B4DBD7010AD8B4DCD7010EFE
:1005A800120020EE06F03650D9263750DA22DF50F6
:1005B800386E38502A6E2B6A000E2D6E040E2C6E83
:1005C8009CEC08F02A503E6E3E04D8B474D03EC06D
:1005D8003CF03D6A70D036C02CF037C02DF0DDEC11
:1005E80005F09ED036C02CF037C02DF057EC09F03E
:1005F80097D036C02AF037C02BF08EEC0BF090D095
:1006080036C02AF037C02BF0DDEC0AF089D036C0AE
:100618002AF037C02BF0DFEC0BF082D036C02AF07E
:1006280037C02BF0C4EC0BF07BD036C033F037C0AA
:1006380034F03AEC05F074D036C031F037C032F0FF
:1006480088EC0AF06DD036C02AF037C02BF04AEC9F
:100658000DF066D036C02AF037C02BF0C9EC09F08F
:100668005FD036C02AF037C02BF0F40E3E242C6E33
:100678002D6AFF0E2D224BEC0DF052D036C02AF019
:1006880037C02BF002EC08F04BD036C02AF037C048
:100698002BF0000E2D6E100E2C6E31EC00F040D0B9
:1006A80036C02AF037C02BF0000E2D6E110E2C6EBE
:1006B80031EC00F035D03E50386E396A3950000AB6
:1006C800D8A42ED03850010AD8B485D7030AD8B494
:1006D80089D7010AD8B48DD7070AD8B491D7010AA7
:1006E800D8B495D7030AD8B499D7010AD8B49DD7F6
:1006F8000E0AD8B4A1D7030AD8B4A5D7010AD8B42A
:10070800A9D7070AD8B4ADD7010AD8B4AAD7020A1C
:10071800D8B4B4D71F0AD8B4B8D7010AD8B4C0D748
:1007280020EE01F03650D9263750DA22020EDE18B4
:10073800D8A4120020EE02F03650D9263750DA221B
:10074800030EDF6E20EE01F03650D9263750DA223C
:10075800010EDF6E20EE04F03650D9263750DA222B
:10076800DE6ADE6ADE6ADD6A3E50040D20EE06F0BF
:100778003650D9263750DA22F3CFDFFF36C02AF0B9
:1007880037C02BF03EC02CF01BEC09F036C02FF020
:1007980037C030F0D8EC03F004D00F0140B9D7ECE3
:1007A8000CF060A61200F9D7830E776E60A60AD007
:1007B800840E776E60A606D0850E776E60A602D08E
:1007C800F3D7FF0074B4FDD7000E0001CD6F20EE03
:1007D80004F02F50D9263050DA22DF50646E20EE14
:1007E80005F02F50D9263050DA22DF50636E20EE04
:1007F80006F02F50D9263050DA22DF50316E030E22
:10080800311620EE06F02F50D9263050DA22DF506C
:10081800FC0B080DF3503110626E628620EE06F074
:100828002F50D9263050DA22DECF31F0DDCF32F02A
:10083800050E336ED89032323132332EFBD7315019
:10084800616E000E656E20EE01F02F50D9263050F3
:10085800DA22020EDE18D8A402D0658C5AD020EE17
:1008680010F02F50D9263050DA22DF50316E0F0E9B
:10087800311665503118FE0B3118656E20EE10F0F8
:100888002F50D9263050DA22DF50316ED8903132CD
:10089800070E3116314665503118FD0B3118656E5B
:1008A80020EE10F02F50D9263050DA22DF50316E6A
:1008B800D8903132D8903132030E31163146314654
:1008C80065503118FB0B3118656E20EE10F02F5073
:1008D800D9263050DA22DF50316ED8903132D89094
:1008E8003132D8903132010E311631463146314617
:1008F80065503118F70B3118656E660E2A6E0F0EAB
:100908002B6E080E2F242C6E000E30202D6E7BECE3
:100918000CF060860001CB8912002E6E2E50D8A4F0
:1009280050D02AA003D08C50100902D08C50EF0B65
:100938008C6E2AA203D08C50400902D08C50BF0B79
:100948008C6E2AA403D08A50010902D08A50FE0B6B
:100958008A6E2AA603D08950020902D08950FD0B5D
:10096800896E2AA803D08950080902D08950F70B4C
:10097800896E2AAA03D08950200902D08950DF0B3A
:10098800896E2AAC03D08D50020902D08D50FD0B20
:100998008D6E2AAE03D08950800902D089507F0B12
:1009A800896E2BA003D08C50010902D08C50FE0B0D
:1009B8008C6E2BA203D08C50040902D08C50FB0BF8
:1009C8008C6E2E04D8A412002AA003D08C502009C3
:1009D80002D08C50DF0B8C6E2AA203D08C50800979
:1009E80002D08C507F0B8C6E2AA403D08A50020947
:1009F80002D08A50FD0B8A6E2AA603D089500409BA
:100A080002D08950FB0B896E2AA803D0895010099F
:100A180002D08950EF0B896E2AAA03D08D500109A4
:100A280002D08D50FE0B8D6E2AAC03D08D50040978
:100A380002D08D50FB0B8D6E2AAE03D08950400931
:100A480002D08950BF0B896E2BA003D08C500209AD
:100A580002D08C50FD0B8C6E2BA204D08C50080950
:100A68008C6E12008C50F70B8C6E120020EE01F089
:100A78003350D9263450DA22020EDE18D8A457D0C3
:100A880020EE10F03350D9263450DA22010EDF6EF2
:100A980020EE08F03350D9263450DA22D044E84604
:100AA800030B010BDF6E20EE09F03350D9263450CA
:100AB800DA220001C6A902D0010E01D0000EDF6EB5
:100AC80020EE0AF03350D9263450DA22C6A102D0DB
:100AD800010E01D0000EDF6E20EE0BF03350D92648
:100AE8003450DA22000EDF6E20EE0CF03350D92697
:100AF8003450DA2236C0DFFF20EE0DF03350D9260D
:100B08003450DA2238C0DFFF20EE0EF03350D926F9
:100B18003450DA223AC0DFFF20EE0FF03350D926E6
:100B28003450DA223CC0DFFFD09CC699120020EE78
:100B380010F03350D9263450DA22010EDF6E20EE41
:100B48000AF03350D9263450DA22DF50D8B40ED008
:100B58000001C68120EE09F03350D9263450DA223C
:100B6800DF50D8B41DD063EC06F01AD020EE09F09F
:100B78003350D9263450DA22DF50D8B408D033C0E5
:100B88002AF034C02BF05BEC0AF063EC06F020EEA0
:100B980008F03350D9263450DA22DF50D8A4FF00A9
:100BA80020EE08F03350D9263450DA22FF0EDF6EDB
:100BB800120020EE01F02C50D9262D50DA22020E18
:100BC800DE18D8A447D020EE10F02C50D9262D508E
:100BD800DA22060EDF6E20EE08F02C50D9262D50B2
:100BE800DA2248EC0DF0DF6E20EE09F02C50D92601
:100BF8002D50DA2210EC0DF02BC02AF02B6A2A5067
:100C0800DF6E20EE0AF02C50D9262D50DA2210EC97
:100C18000DF02A50DF6E20EE0BF02C50D9262D5007
:100C2800DA22FBEC0CF02A50DF6E20EE0CF02C5090
:100C3800D9262D50DA2215EC0DF02A50DF6E20EE61
:100C48000DF02C50D9262D50DA223DEC0DF02A500B
:100C5800DF6E120020EE04F02C50D9262D50DA2237
:100C6800DECF2AF0DDCF2BF045EC07F02AC030F0BC
:100C78002BC031F020EE08F02C50D9262D50DA2266
:100C8800DF50D8A40AD0301C2E6E311C2F6E0950AC
:100C98002E14096E0A502F1405D030500910096E11
:100CA80031500A100A6E09500A10D8B404D0010E47
:100CB80041EC0DF01200000E41EC0DF012004A0E4E
:100CC8002D6E000E2E6E000E306E010E2F6E000E71
:100CD800326E020E316EA9EC0BF0480E2D6E000E2E
:100CE8002E6E000E306E040E2F6E000E326E020E47
:100CF800316EA9EC0BF0230E2D6E000E2E6E000E39
:100D0800306E070E2F6E000E326E020E316EA9EC99
:100D18000BF0210E2D6E000E2E6E000E306E0A0E98
:100D28002F6E000E326E020E316EA9EC0BF01F0E04
:100D38002D6E000E2E6E000E306E0D0E2F6E000EF4
:100D4800326E020E316EA9EC0BF01D0E2D6E000EE8
:100D58002E6E000E306E100E2F6E000E326E020ECA
:100D6800316EA9EC0BF01B0E2D6E000E2E6E000ED0
:100D7800306E130E2F6E000E326E020E316EA9EC1D
:100D88000BF0190E2D6E000E2E6E000E306E160E24
:100D98002F6E000E326E020E316EA9EC0BF01200AF
:100DA8004A0E2C6E000E2D6E000E2F6E010E2E6E4A
:100DB800000E316E020E306E2FEC0CF0480E2C6EC9
:100DC800000E2D6E000E2F6E040E2E6E000E316E6C
:100DD800020E306E2FEC0CF0230E2C6E000E2D6ED2
:100DE800000E2F6E070E2E6E000E316E020E306E44
:100DF8002FEC0CF0210E2C6E000E2D6E000E2F6EB7
:100E08000A0E2E6E000E316E020E306E2FEC0CF0B4
:100E18001F0E2C6E000E2D6E000E2F6E0D0E2E6EF8
:100E2800000E316E020E306E2FEC0CF01D0E2C6E83
:100E3800000E2D6E000E2F6E100E2E6E000E316EEF
:100E4800020E306E2FEC0CF01B0E2C6E000E2D6E69
:100E5800000E2F6E130E2E6E000E316E020E306EC7
:100E68002FEC0CF0190E2C6E000E2D6E000E2F6E4E
:100E7800160E2E6E000E316E020E306E2FEC0CF038
:100E880012002A504A1809E12B504B18D8A405D053
:100E9800000E2B6E010E2A6E12002A50481809E126
:100EA8002B504918D8A405D0000E2B6E020E2A6EBE
:100EB80012002A50231809E12B502418D8A405D071
:100EC800000E2B6E040E2A6E12002A50211809E11A
:100ED8002B502218D8A405D0000E2B6E080E2A6EAF
:100EE80012002A501F1809E12B502018D8A405D049
:100EF800000E2B6E100E2A6E12002A501D1809E1E2
:100F08002B501E18D8A405D0000E2B6E200E2A6E6A
:100F180012002A501B1809E12B501C18D8A405D020
:100F2800000E2B6E400E2A6E12002A50191809E185
:100F38002B501A18D8A405D0000E2B6E800E2A6EDE
:100F48001200000E2B6E000E2A6E1200356E31C094
:100F580038F032C039F0000E376E000E366E33C0EE
:100F68002AF034C02BF0000E2D6E0A0E2C6EB4EC55
:100F78000AF02AC03AF02BC03BF03550D8B417D04D
:100F880031D036503810366E37503910376E38C079
:100F98002AF039C02BF050EC0BF02AC038F02BC0E7
:100FA80039F0FF0E3A243A6EFF0E3B203B6E3A5062
:100FB8003B10D8B41BD0E5D736503810366E3750B2
:100FC8003910376E38C02AF039C02BF02AEC0BF0F4
:100FD8002AC038F02BC039F0FF0E3A243A6EFF0EC3
:100FE8003B203B6E3A503B10D8A4E6D736C02AF0D7
:100FF80037C02BF0355091EC04F0120020EE01F0D0
:101008002A50D9262B50DA22020EDE18D8A421D075
:1010180020EE10F02A50D9262B50DA22030EDF6E6C
:1010280020EE08F02A50D9262B50DA22000EDF6E67
:1010380020EE09F02A50D9262B50DA2240C0DFFFD3
:1010480020EE0AF02A50D9262B50DA2242C0DFFFC0
:10105800120020EE08F02A50D9262B50DA22DF5051
:101068002C6E2C502E6E2D6A20EE09F02A50D926AF
:101078002B50DA22DF502F6E2F502D10406E2E503D
:10108800416E20EE0AF02A50D9262B50DA22DF5082
:101098002C6E2C50426E436A1200000E0F01086F2E
:1010A800200E096F09874B500A6F4AC00BFF000ECC
:1010B8000C6F200E0D6F0D8749500E6F48C00FFF43
:1010C800000E106F200E116F11872450126F23C06D
:1010D80013FF000E146F200E156F15872250166F20
:1010E80021C017FF000E0D01606F200E616F618730
:1010F8002050626F1FC063FD000E646F200E656F85
:1011080065871E50666F1DC067FD000E686F200E54
:10111800696F69871C506A6F1BC06BFD000E706F8A
:10112800200E716F71871A50726F19C073FD12000B
:10113800000E2F6E2DAE06D02C6C2D1ED8B02D2A89
:10114800010E2F6E2BAE06D02A6C2B1ED8B02B2A80
:10115800010E2F1A000E316E000E306E2C502D101D
:10116800D8B41CD0010E2E6E04D0D8902C362D3653
:101178002E2A2DAEFAD7D890303631362C502A5C2C
:101188002D502B58D8A005D02C502A5E2D502B5A04
:101198003080D8902D322C322E2EEDD72F50D8B447
:1011A80004D0306C311ED8B0312A30C02AF031C09A
:1011B8002BF012001450D8A413D0000E2B6E000E82
:1011C8002A6E000E91EC04F041C031F042C032F0BA
:1011D80045C033F046C034F04750AAEC07F012D0AF
:1011E800000E2B6E000E2A6E475091EC04F043C09F
:1011F80031F044C032F045C033F046C034F0000E40
:10120800AAEC07F043C02AF044C02BF02AEC0BF0FC
:101218002AC043F02BC044F041C02AF042C02BF052
:1012280050EC0BF02AC041F02BC042F0120020EE27
:1012380002F02A50D9262B50DA22030EDF6E20EE58
:1012480001F02A50D9262B50DA22010EDF6E2C50DD
:101258002D6E2E6AD8902D362E36D8902D362E36F5
:1012680020EE06F02A50D9262B50DA222DC0DEFFB8
:101278002EC0DDFF20EE04F02A50D9262B50DA22AA
:1012880003C0DEFF04C0DDFF20EE06F02A50D92699
:101298002B50DA22DF9020EE06F02A50D9262B5068
:1012A800DA22DF92120020EE01F02C50D9262D50C0
:1012B800DA22020EDE18D8A4120020EE10F02C500C
:1012C800D9262D50DA22040EDF6E20EE08F02C50BD
:1012D800D9262D50DA2224EC0DF02A50DF6E20EEAC
:1012E80009F02C50D9262D50DA221FEC0DF02A5087
:1012F800DF6E20EE0AF02C50D9262D50DA221AEC97
:101308000DF02A50DF6E20EE0BF02C50D9262D5010
:10131800DA2229EC0DF02A50DF6E1200500E0D0172
:10132800F06F550EF16F550EF26F550EF36F000EFC
:101338000F01186F0B0E196F1A691B691C691D695B
:101348001E691F69000E186F000E196F000E006FDE
:10135800010E016F01870450026F03C003FF000EE6
:10136800046F010E056F05877F0E066F076951EC44
:1013780008F0000E0D01E06F110EE16F110EE26F23
:10138800110EE36F110EE46F120020EE01F02A50E7
:10139800D9262B50DA22020EDE18D8A4120020EE2D
:1013A80010F02A50D9262B50DA22040EDF6E20EED8
:1013B80008F02A50D9262B50DA220550DF6E20EE8D
:1013C80009F02A50D9262B50DA2204C0DFFF20EE7C
:1013D8000AF02A50D9262B50DA220B50DF6E20EE65
:1013E8000BF02A50D9262B50DA220AC0DFFF120050
:1013F800800E6F6E6E50E00B800AD8A4FBD7000EEB
:101408000D01F86F000E0F01406F000E606E000EA8
:10141800506F000E0E01206F000E306F000EA36E8D
:10142800A568000EA46E000E0D01FA6F000E046E82
:10143800240E036E900E776E90EC0CF092EC09F08F
:101448007368000E6F6E6ECF2AF0E00E2A16D8B4BD
:101458001200F9D7120EF66E1A0EF76E000EF86E1D
:1014680000EE3FF010EE0DF00900F5CFEEFFE5506D
:10147800E150FAE100EEDFF012EE20F0EE6AE550FE
:10148800E150FCE1E250FAE100EE60F06E0EEE6A27
:10149800E806FDE100EE01F0240EEE6AE806FDE143
:1014A8004C904C92000EF86E000163EF0CF020EEA9
:1014B8000CF02A50D9262B50DA22DF502C6E2C50F3
:1014C800366E376A20EE0DF02A50D9262B50DA22D4
:1014D800DF502C6E2C50386E396A20EE0EF02A50F0
:1014E800D9262B50DA22DF502C6E2C503A6E3B6AEC
:1014F80020EE0FF02A50D9262B50DA22DF502C6E1E
:101508002C503C6E3D6A120020EE01F03150D92675
:101518003250DA22020EDE18D8A413D020EE08F0DA
:101528003150D9263250DA220CC02AF00DC02BF0E7
:10153800000E2D6E0A0E2C6EB4EC0AF02A50DF6EE7
:10154800120020EE08F03150D9263250DA22DF504E
:10155800336E33500A0DF3CF0CF0F4CF0DF01200B8
:10156800000E306E000E2F6E2C502D10D8B41CD0EB
:10157800010E2E6E04D0D8902C362D362E2A2DAE84
:10158800FAD7D8902F3630362C502A5C2D502B584D
:10159800D8A005D02C502A5E2D502B5A2F80D890D9
:1015A8002D322C322E2EEDD72FC02AF030C02BF042
:1015B800120020EE01F02A50D9262B50DA22020E12
:1015C800DE18D8A4120020EE10F02A50D9262B508D
:1015D800DA22010EDF6E000E2E6E000E2D6E2D4AE1
:1015E8002E2A2E5004E1030E2D5CD8A0F8D720EE49
:1015F80008F02A50D9262B50DA22FF0EDF6E12008F
:1016080001A014D0020E0001CF6F000ED26F000EA1
:10161800D36F000ED46F000ED56F040ED46FCE0EAC
:10162800366E000E376ED5EC02F00190CE0E326E9B
:10163800000E336E97EC01F00009D8B41200CE0EFC
:10164800366E000E376ED5EC02F012002AA018D0C4
:10165800FE0E2A142E6E030E2B142F6ED8902F30E8
:101668002C6E2E302E6E2CC02FF0000E2E102E6EEB
:10167800020E2F102F6E2EC02AF02FC02BF0120052
:10168800D8902B302C6E2A302A6E2CC02BF02AC012
:101698002AF02BC02BF012002BA215D0FF0E2A1413
:1016A8002C6E010E2B142D6ED8902C342C6E2D34EC
:1016B8002D6E010E2C102C6E2D502D6E2CC02AF084
:1016C8002DC02BF01200D8902A342A6E2B342B6EA2
:1016D8002AC02AF02BC02BF01200010E306E000E2B
:1016E800066E000E056E000E2B6E030E2A6E170E88
:1016F8002C6E000E2D6EFAEC0BF03016000E2B6ED1
:10170800100E2A6E150E2C6E000E2D6EFAEC0BF0D4
:101718003016120020EE01F02A50D9262B50DA227A
:10172800020EDE18D8A4120020EE10F02A50D92696
:101738002B50DA22010EDF6E20EE08F02A50D9264F
:101748002B50DA22FF0EDF6E120015D0A6B2FED79C
:101758002FC02AF030C02BF02DC0D9FF2EC0DAFFE1
:10176800DF502C6E15EC0CF02F4A302A3106D8A029
:1017780032062D4A2E2A31503210D8B41200E6D73C
:1017880020EE01F02A50D9262B50DA22020EDE185C
:10179800D8A4120020EE10F02A50D9262B50DA22B5
:1017A800010EDF6E20EE08F02A50D9262B50DA22DF
:1017B800FF0EDF6E120020EE01F02A50D9262B50C2
:1017C800DA22020EDE18D8A4120020EE10F02A50F9
:1017D800D9262B50DA22010EDF6E20EE08F02A50AF
:1017E800D9262B50DA22FF0EDF6E12002A5005246C
:1017F8002E6E2B5006202F6E2E04040E2F58D8A0C4
:1018080002D0000E12002CC0D9FF2DC0DAFF05C08F
:10181800DEFF06C0DDFF2A5005262B500622010EEA
:1018280012002B50AA6E2AC0A9FF2CC0A8FFA684BC
:10183800000EF2BE010E0F6EF29E550EA76EAA0E96
:10184800A76EA6820FB002D0F29E01D0F28EA694A7
:10185800A6B2FED7120014D0A6B2FED72EC02AF028
:101868002FC02BF0F2EC0CF02CC0D9FF2DC0DAFF02
:10187800DF6E2E4A2F2A2C4A2D2A3006D8A0310690
:1018880030503110D8B41200E7D79250010B926E45
:101898009350FC0B936E9650F80B966E000E956E57
:1018A800000E2B6E000E2A6E000E91EC04F0000E56
:1018B8002B6E000E2A6E010E91EC04F01200B6ECAD
:1018C8000CF0D0680001CBB1CB9133EC0DF02A04B9
:1018D8002B10D8A408D0DEEC08F0000E2B6E000EFA
:1018E8002A6E2EEC0DF004EC0BF00400EBD7000E82
:1018F8002E6E2E502C24D96E000E2D20DA6E2E500E
:101908002A24E16E000E2B20E26EDFCFE7FF2E2A9D
:10191800070E2E64EED71200708070827094709655
:101928007098709A708C708E71867188718A7184C3
:1019380071927190728072927284718C718E1200A1
:10194800000E256E000E266ECECF25F0CFCF26F0E6
:1019580000F09E0E2626570E252626C0CFFF5B0ECA
:10196800CE6E1200D18071EC0BF0D4EC06F00400BE
:10197800C7EC0CF0FCEC09F002EC0DF0E6EC0CF016
:1019880049EC0CF01200000E896E000E8A6E000EF3
:101998008B6E0C0E926E880E936EBF0E946ED08E68
:1019A8000001CB871200020E2B6EAA0E2A6E000EC3
:1019B80091EC04F0000E2B6E000E2A6E010E91ECD5
:1019C80004F01200D38CD38AD3883D0ECD6E9E0EC0
:1019D800CF6E570ECE6E9D80CD8012002B50AA6E12
:1019E8002AC0A9FFA680A69EA69CA85012003F5018
:1019F8002A6E40502B6E3F4A402A1200F28EF28C1B
:101A0800D08ED08EF28C9F90120011000100010040
:071A18001400016F000A0039
:101A2000020E2B6E200E2A6E1200000E2B6E1B0E65
:101A30002A6E1200000E2B6EFE0E2A6E1200000E91
:101A40002B6EFE0E2A6E1200000E2B6EFE0E2A6EFC
:101A50001200000E2B6E000E2A6E12002AC00BF030
:101A60002BC00CF012000BC02AF00CC02BF012009F
:101A700025C00BF026C00CF01200000E2B6E2A6859
:101A800012002A6E2AC014F0120006004C921100B7
:081A90001450120012001200B4
:020000040020DA
:0800000004FFFFFFFFFFFFFFFB
:020000040030CA
:0E000000FF081F1EFF8281FF0FC00FE00F40A0
:00000001FF
