:020000040000FA
:040000002EEF00F0EF
:060008004A8223ED0BF01B
:100018004A80D8CF23F0E8CF24F0E0CF25F09EA087
:1000280011D083EC0AF0000E226E010E216E11EC45
:100038000BF005801E2A140E1E6403D0000E1E6EDF
:1000480001809E9025C0E0FF24C0E8FF23C0D8FFB0
:100058004A901000A7EF08F0F00E2824366EFF0E25
:100068002920376E20EE01F02650D9262750DA22B3
:10007800020EDE18D8A48ED020EE10F02650D92615
:100088002750DA22080EDF6E36503710D8A441D038
:1000980020EE08F02650D9262750DA221750DF6EB6
:1000A80020EE09F02650D9262750DA2216C0DFFFA5
:1000B80020EE0AF02650D9262750DA221550DF6E96
:1000C80020EE0BF02650D9262750DA2214C0DFFF85
:1000D80020EE0CF02650D9262750DA221350DF6E76
:1000E80020EE0DF02650D9262750DA2212C0DFFF65
:1000F80020EE0EF02650D9262750DA221150DF6E56
:1001080020EE0FF02650D9262750DA2210C0DFFF44
:10011800120020EE08F02650D9262750DA220F5078
:10012800DF6E20EE09F02650D9262750DA220EC0BD
:10013800DFFF20EE0AF02650D9262750DA220D508C
:10014800DF6E20EE0BF02650D9262750DA220CC09D
:10015800DFFF20EE0CF02650D9262750DA220B506C
:10016800DF6E20EE0DF02650D9262750DA220AC07D
:10017800DFFF20EE0EF02650D9262750DA2209504C
:10018800DF6E20EE0FF02650D9262750DA2208C05D
:10019800DFFF120020EE0AF02650D9262750DA2277
:1001A800DF502A6E2A502C6E2B6A20EE0BF0265058
:1001B800D9262750DA22DF502D6E2D502B10326EA3
:1001C8002C50336E20EE08F02650D9262750DA221C
:1001D800DF502A6E2A502C6E2B6A20EE09F026502A
:1001E800D9262750DA22DF502D6E2D502B10346E71
:1001F8002C50356E36503710D8A461D020EE08F058
:100208002650D9262750DA22DF502A6E2A502C6E23
:100218002B6A20EE09F02650D9262750DA22DF5023
:100228002D6E2D502B10166E2C50176E20EE0AF0E6
:100238002650D9262750DA22DF502A6E2A502C6EF3
:100248002B6A20EE0BF02650D9262750DA22DF50F1
:100258002D6E2D502B10146E2C50156E20EE0CF0B8
:100268002650D9262750DA22DF502A6E2A502C6EC3
:100278002B6A20EE0DF02650D9262750DA22DF50BF
:100288002D6E2D502B10126E2C50136E20EE0EF08A
:100298002650D9262750DA22DF502A6E2A502C6E93
:1002A8002B6A20EE0FF02650D9262750DA22DF508D
:1002B8002D6E2D502B10106E2C50116E120020EE4A
:1002C80008F02650D9262750DA22DF502A6E2A5005
:1002D8002C6E2B6A20EE09F02650D9262750DA22F8
:1002E800DF502D6E2D502B100E6E2C500F6E20EE01
:1002F8000AF02650D9262750DA22DF502A6E2A50D3
:100308002C6E2B6A20EE0BF02650D9262750DA22C5
:10031800DF502D6E2D502B100C6E2C500D6E20EED4
:100328000CF02650D9262750DA22DF502A6E2A50A0
:100338002C6E2B6A20EE0DF02650D9262750DA2293
:10034800DF502D6E2D502B100A6E2C500B6E20EEA8
:100358000EF02650D9262750DA22DF502A6E2A506E
:100368002C6E2B6A20EE0FF02650D9262750DA2261
:10037800DF502D6E2D502B10086E2C50096E120078
:100388006F500F0B336E33509009776E18D060CFD3
:1003980032F035D050CF32F032D020CE32F02FD0DC
:1003A80030CE32F02CD040CE32F029D050CE32F0C0
:1003B80026D060CE32F023D070CE32F020D0335029
:1003C800306E316A3150000AD8A419D03050000A72
:1003D800D8B4DDD7010AD8B4DDD7030AD8B4DDD73D
:1003E800010AD8B4DDD7070AD8B4DDD7010AD8B4D2
:1003F800DDD7030AD8B4DDD7010AD8B4DDD732AEC9
:10040800A5D020EE03F02E50D9262F50DA226050C6
:100418001F0BDF6E20EE04F02E50D9262F50DA2263
:1004280064CFDFFF20EE05F02E50D9262F50DA22B8
:1004380063CFDFFF20EE06F02E50D9262F50DA22A8
:1004480062CF30F0030E301662CF26F0276A000E16
:10045800296E080E286E50EC07F026503010DF6E1B
:100468006150306E316A050ED89030363136E82E3C
:10047800FBD720EE06F02E50D9262F50DA22305026
:10048800DE123150DD1220EE02F02E50D9262F5008
:10049800DA22030EDF6E65BC68D020EE01F02E5024
:1004A800D9262F50DA22010EDF6E20EE10F02E50E2
:1004B800D9262F50DA2265500F0BDF6E20EE10F090
:1004C8002E50D9262F50DA22080EDF6441D01ED0D4
:1004D800000E606E3BD0000E0F010ED0000E0E0114
:1004E800206F34D0000E0E01306F30D0000E0E0198
:1004F800406F2CD0000E0E01506F28D0000E0E0158
:10050800606F24D0000E0E01706F20D03350306E13
:10051800316A3150000AD8A419D03050000AD8B432
:10052800D7D7010AD8B4D7D7030AD8B4D7D7010A7E
:10053800D8B4D8D7070AD8B4D9D7010AD8B4DAD7E3
:10054800030AD8B4DBD7010AD8B4DCD7000E1200EE
:10055800080E2E24266E000E2F20276E660E286E9B
:100568000F0E296E5AEC0AF027D020EE01F02E501B
:10057800D9262F50DA22020EDF6E1ED0000E606ED2
:100588003BD0000E0F010ED0000E0E01206F34D0AC
:10059800000E0E01306F30D0000E0E01406F2CD0CF
:1005A800000E0E01506F28D0000E0E01606F24D08F
:1005B800000E0E01706F20D03350306E316A31500A
:1005C800000AD8A419D03050000AD8B4D7D7010AE5
:1005D800D8B4D7D7030AD8B4D7D7010AD8B4D8D74C
:1005E800070AD8B4D9D7010AD8B4DAD7030AD8B4D5
:1005F800DBD7010AD8B4DCD7010E120020EE06F0D2
:100608003850D9263950DA22DF503A6E3A50266EE1
:10061800276A000E296E040E286E50EC07F026504B
:10062800406E4004D8B478D040C03EF03F6A74D0E1
:1006380038C02BF039C02CF069EC05F0A2D038C0D6
:1006480028F039C029F00BEC08F09BD038C026F010
:1006580039C027F0D8EC09F094D038C026F039C05A
:1006680027F029EC09F08DD038C026F039C027F0E2
:100678000EEC0AF086D038C026F039C027F0F3EC2B
:1006880009F07FD038C026F039C027F0F6EC05F025
:1006980078D038C02DF039C02EF0D4EC08F071D0E5
:1006A80038C026F039C027F028EC0BF06AD038C0E3
:1006B80026F039C027F046EC08F063D038C026F0A1
:1006C80039C027F0F40E4024286E296AFF0E29222B
:1006D80029EC0BF056D038C026F039C027F0BDEC15
:1006E80009F04FD038C026F039C027F0F00E40246A
:1006F800286E296AFF0E292230EC00F042D038C05B
:1007080026F039C027F0EF0E4024286E296AFF0E24
:10071800292230EC00F035D040503A6E3B6A3B500D
:10072800000AD8A42ED03A50010AD8B481D7030AB7
:10073800D8B485D7010AD8B489D7070AD8B48DD7D1
:10074800010AD8B491D7030AD8B495D7010AD8B406
:1007580099D70E0AD8B49DD7030AD8B4A1D7010AED
:10076800D8B4A5D7070AD8B4A9D7010AD8B4A6D748
:10077800020AD8B4B0D71F0AD8B4B4D7010AD8B47B
:10078800BED720EE01F03850D9263950DA22020EB1
:10079800DE18D8A4120020EE02F03850D9263950BD
:1007A800DA22030EDF6E20EE01F03850D9263950D8
:1007B800DA22010EDF6E20EE04F03850D9263950C7
:1007C800DA22DE6ADE6ADE6ADD6A4050040D20EE57
:1007D80006F03850D9263950DA22F3CFDFFF38C077
:1007E80026F039C027F040C028F0C0EC06F038C029
:1007F8002BF039C02CF009EC04F004D00F0140B9FB
:1008080095EC0AF060A61200F9D7830E776E60A601
:100818000AD0840E776E60A606D0850E776E60A625
:1008280002D0F3D7FF0074B4FDD7000E076E20EE98
:1008380004F02B50D9262C50DA22DF50646E20EEBB
:1008480005F02B50D9262C50DA22DF50636E20EEAB
:1008580006F02B50D9262C50DA22DF502D6E030ECD
:100868002D1620EE06F02B50D9262C50DA22DF5018
:10087800FC0B080DF3502D10626E628620EE06F018
:100888002B50D9262C50DA22DECF2DF0DDCF2EF0DA
:10089800050E2F6ED8902E322D322F2EFBD72D50CD
:1008A800616E000E656E20EE01F02B50D9262C509B
:1008B800DA22020EDE18D8A402D0658C5AD020EEB7
:1008C80010F02B50D9262C50DA22DF502D6E0F0E47
:1008D8002D1665502D18FE0B2D18656E20EE10F0A4
:1008E8002B50D9262C50DA22DF502D6ED8902D327D
:1008F800070E2D162D4665502D18FD0B2D18656E0B
:1009080020EE10F02B50D9262C50DA22DF502D6E15
:10091800D8902D32D8902D32030E2D162D462D4607
:1009280065502D18FB0B2D18656E20EE10F02B501E
:10093800D9262C50DA22DF502D6ED8902D32D8903F
:100948002D32D8902D32010E2D162D462D462D46CE
:1009580065502D18F70B2D18656E660E266E0F0E56
:10096800276E080E2B24286E000E2C20296E5AECB8
:100978000AF06086058812002A6E2A50D8A450D042
:1009880026A003D08C50100902D08C50EF0B8C6E2F
:1009980026A203D08C50400902D08C50BF0B8C6E1D
:1009A80026A403D08A50010902D08A50FE0B8A6E11
:1009B80026A603D08950020902D08950FD0B896E02
:1009C80026A803D08950080902D08950F70B896EF0
:1009D80026AA03D08950200902D08950DF0B896EDE
:1009E80026AC03D08D50020902D08D50FD0B8D6EC0
:1009F80026AE03D08950800902D089507F0B896EBA
:100A080027A003D08C50010902D08C50FE0B8C6EAD
:100A180027A203D08C50040902D08C50FB0B8C6E9B
:100A28002A04D8A4120026A003D08C50200902D092
:100A38008C50DF0B8C6E26A203D08C50800902D01C
:100A48008C507F0B8C6E26A403D08A50020902D0EA
:100A58008A50FD0B8A6E26A603D08950040902D05D
:100A68008950FB0B896E26A803D08950100902D043
:100A78008950EF0B896E26AA03D08D50010902D048
:100A88008D50FE0B8D6E26AC03D08D50040902D01C
:100A98008D50FB0B8D6E26AE03D08950400902D0D5
:100AA8008950BF0B896E27A003D08C50020902D051
:100AB8008C50FD0B8C6E27A204D08C5008098C6ECC
:100AC80012008C50F70B8C6E120020EE01F02B50A8
:100AD800D9262C50DA22020EDE18D8A447D020EEF0
:100AE80010F02B50D9262C50DA22060EDF6E20EE9D
:100AF80008F02B50D9262C50DA2226EC0BF0DF6EAA
:100B080020EE09F02B50D9262C50DA22E9EC0AF015
:100B180027C026F0276A2650DF6E20EE0AF02B50F9
:100B2800D9262C50DA22E9EC0AF02650DF6E20EEA6
:100B38000BF02B50D9262C50DA22DBEC0AF0265089
:100B4800DF6E20EE0CF02B50D9262C50DA22EEEC7A
:100B58000AF02650DF6E20EE0DF02B50D9262C50CF
:100B6800DA221BEC0BF02650DF6E1200000E276E07
:100B78000B0E266ECFEC07F00009D8B40FD0000E8C
:100B8800306E000E2F6EA4EC0AF02F4A302A900E19
:100B98002F5C010E3058D8B00FD0F5D7000E306E4C
:100BA800000E2F6E95EC0AF02F4A302A900E2F5C1B
:100BB800010E3058D8A0F6D720EE04F02B50D926D5
:100BC8002C50DA222B0EDE180CE1DE04D8A4120019
:100BD80020EE08F02B50D9262C50DA22DF501FECDB
:100BE8000BF0120020EE01F02650D9262750DA2209
:100BF800020EDE18D8A457D020EE10F02650D926C1
:100C08002750DA22010EDF6E20EE08F02650D92692
:100C18002750DA22D044E846030B010BDF6E20EEA2
:100C280009F02650D9262750DA220001C6A902D099
:100C3800010E01D0000EDF6E20EE0AF02650D926F4
:100C48002750DA22C6A102D0010E01D0000EDF6EB5
:100C580020EE0BF02650D9262750DA22000EDF6E40
:100C680020EE0CF02650D9262750DA2236C0DFFFB6
:100C780020EE0DF02650D9262750DA2238C0DFFFA3
:100C880020EE0EF02650D9262750DA223AC0DFFF90
:100C980020EE0FF02650D9262750DA223CC0DFFF7D
:100CA800D09CC699120020EE10F02650D926275065
:100CB800DA22010EDF6E20EE08F02650D9262750E2
:100CC800DA22FF0EDF6E1200316E2DC034F02EC016
:100CD80035F0000E336E000E326E2FC026F030C095
:100CE80027F0000E296E0A0E286E00EC09F026C0C7
:100CF80036F027C037F03150D8B417D031D0325041
:100D08003410326E33503510336E34C026F035C08F
:100D180027F09CEC09F026C034F027C035F0FF0E10
:100D28003624366EFF0E3720376E36503710D8B45B
:100D38001BD0E5D732503410326E33503510336E35
:100D480034C026F035C027F076EC09F026C034F020
:100D580027C035F0FF0E3624366EFF0E3720376E6B
:100D680036503710D8A4E6D732C026F033C027F063
:100D78003150C0EC04F0120020EE02F02650D926C3
:100D88002750DA22030EDF6E20EE01F02650D92616
:100D98002750DA22010EDF6E2850296E2A6AD89071
:100DA80029362A36D89029362A3620EE06F02650DB
:100DB800D9262750DA2229C0DEFF2AC0DDFF2C0EF3
:100DC800296E010E2A6E20EE03F0DECF2BF0DDCF68
:100DD8002CF029502B262A502C2220EE04F02650E5
:100DE800D9262750DA222BC0DEFF2CC0DDFF20EEEB
:100DF80006F02650D9262750DA22DF9020EE06F09A
:100E08002650D9262750DA22DF921200500E0D0103
:100E1800F06F550EF16F550EF26F550EF36F000E11
:100E28000F01186F0B0E196F1A691B691C691D6970
:100E3800000E1E6F000E1F6F000E186F000E196F48
:100E4800000E1A6F000E1B6F000E006F010E016F6F
:100E580001870450026F028D03C003FF000E046F68
:100E6800010E056F05877F0E066F0769000E086F74
:100E7800200E096F0987000E0A6F000E0B6F000E17
:100E88000C6F000E0D6F000E0E6F0E51000E0F6FDF
:100E98000F0E0D01D46F1200000E2B6E29AE06D076
:100EA800286C291ED8B0292A010E2B6E27AE06D031
:100EB800266C271ED8B0272A010E2B1A000E2D6E7D
:100EC800000E2C6E28502910D8B41CD0010E2A6EA2
:100ED80004D0D890283629362A2A29AEFAD7D890AD
:100EE8002C362D362850265C29502758D8A005D0F6
:100EF8002850265E2950275A2C80D890293228322B
:100F08002A2EEDD72B50D8B404D02C6C2D1ED8B077
:100F18002D2A2CC026F02DC027F012002050D8A46E
:100F280013D0000E276E000E266E000EC0EC04F0E3
:100F380043C02DF044C02EF047C02FF048C030F019
:100F4800495068EC06F012D0000E276E000E266E8F
:100F58004950C0EC04F045C02DF046C02EF047C003
:100F68002FF048C030F0000E68EC06F045C026F0BF
:100F780046C027F076EC09F026C045F027C046F0B9
:100F880043C026F044C027F09CEC09F026C043F08B
:100F980027C044F012002650161806E127501718EB
:100FA800D8A402D0010E12002650141804E12750CC
:100FB8001518D8B4F7D72650121804E1275013187B
:100FC800D8B4F0D72650101804E127501118D8B417
:100FD800E9D726500E1804E127500F18D8B4E2D7E5
:100FE80026500C1804E127500D18D8B4DBD726502A
:100FF8000A1804E127500B18D8B4D4D7265008187B
:1010080004E127500918D8B4CDD7000E120020EEFD
:1010180001F02850D9262950DA22020EDE18D8A469
:10102800120020EE10F02850D9262950DA22040E9A
:10103800DF6E20EE08F02850D9262950DA22FDEC80
:101048000AF02650DF6E20EE09F02850D9262950E4
:10105800DA22F8EC0AF02650DF6E20EE0AF028506B
:10106800D9262950DA22F3EC0AF02650DF6E20EE5A
:101078000BF02850D9262950DA2202EC0BF0265022
:10108800DF6E120020EE01F02650D9262750DA2212
:10109800020EDE18D8A4120020EE10F02650D92631
:1010A8002750DA22040EDF6E20EE08F02650D926EB
:1010B8002750DA220550DF6E20EE09F02650D92697
:1010C8002750DA2204C0DFFF20EE0AF02650D92686
:1010D8002750DA220B50DF6E20EE0BF02650D9266F
:1010E8002750DA220AC0DFFF1200800E6F6E6E50A2
:1010F800E00B800AD8A4FBD7000E0D01F86F000E94
:101108000F01406F000E606E000E506F000E0E0152
:10111800206F000E306F000EA36EA568000EA46E3F
:10112800000E0D01FA6F900E776E6FEC0AF00AEC64
:1011380007F07368000E6F6E6ECF26F0E00E26166D
:10114800D8B41200F9D72C0EF66E160EF76E000EF4
:10115800F86E00EE41F010EE09F00900F5CFEEFF51
:10116800E550E150FAE100EEDCF012EE20F0EE6A14
:10117800E550E150FCE1E250FAE100EE60F06B0E60
:10118800EE6AE806FDE100EE01F0200EEE6AE806E0
:10119800FDE14A904A92000EF86E000143EF0AF012
:1011A80020EE01F02D50D9262E50DA22020EDE183C
:1011B800D8A413D020EE08F02D50D9262E50DA22CC
:1011C8000CC026F00DC027F0000E296E0A0E286EFE
:1011D80000EC09F02650DF6E120020EE08F02D50CA
:1011E800D9262E50DA22DF502F6E2F500A0DF3CF5A
:1011F8000CF0F4CF0DF01200000E2C6E000E2B6ECA
:1012080028502910D8B41CD0010E2A6E04D0D890CA
:10121800283629362A2A29AEFAD7D8902B362C36E2
:101228002850265C29502758D8A005D02850265E7B
:101238002950275A2B80D890293228322A2EEDD7C8
:101248002BC026F02CC027F0120020EE01F026500B
:10125800D9262750DA22020EDE18D8A4120020EE72
:1012680010F02650D9262750DA22010EDF6E000E24
:101278002A6E000E296E294A2A2A2A5004E1030EF2
:10128800295CD8A0F8D720EE08F02650D926275098
:10129800DA22FF0EDF6E120001A014D0020E000148
:1012A800CC6F000ECF6F000ED06F000ED16F000E06
:1012B800D26F040ED16FCB0E386E000E396E02EC71
:1012C80003F00190CB0E2E6E000E2F6EC4EC01F0D1
:1012D8000009D8B41200CB0E386E000E396E02EC3D
:1012E80003F0120026A018D0FE0E26142A6E030E54
:1012F80027142B6ED8902B30286E2A302A6E28C0DF
:101308002BF0000E2A102A6E020E2B102B6E2AC00C
:1013180026F02BC027F01200D8902730286E2630F0
:10132800266E28C027F026C026F027C027F0120016
:1013380027A215D0FF0E2614286E010E2714296E39
:10134800D8902834286E2934296E010E2810286E6A
:101358002950296E28C026F029C027F01200D890FD
:101368002634266E2734276E26C026F027C027F09D
:10137800120020EE01F02650D9262750DA22020E5C
:10138800DE18D8A4120020EE10F02650D9262750D7
:10139800DA22010EDF6E20EE08F02650D9262750FB
:1013A800DA22FF0EDF6E120020EE01F02650D92659
:1013B8002750DA22020EDE18D8A4120020EE10F010
:1013C8002650D9262750DA22010EDF6E20EE08F0CB
:1013D8002650D9262750DA22FF0EDF6E120020EEA3
:1013E80001F02650D9262750DA22020EDE18D8A49A
:1013F800120020EE10F02650D9262750DA22010ECE
:10140800DF6E20EE08F02650D9262750DA22FF0E8C
:10141800DF6E120020EE01F02650D9262750DA227E
:10142800020EDE18D8A4120020EE10F02650D9269D
:101438002750DA22010EDF6E20EE08F02650D9265A
:101448002750DA22FF0EDF6E12009250010B926EC7
:101458009350FC0B936E9650F80B966E000E956E9B
:10146800000E276E000E266E000EC0EC04F0000E73
:10147800276E000E266E010EC0EC04F01200C2ECBE
:101488000AF0D06805B005900CEC0BF02604271084
:10149800D8A408D092EC07F0000E276E000E266E36
:1014A80007EC0BF050EC09F00400ECD7000E2A6EA4
:1014B8002A502824D96E000E2920DA6E2A502624B4
:1014C800E16E000E2720E26EDFCFE7FF2A2A070E23
:1014D8002A64EED7120070807082709470967098AB
:1014E800709A708C708E71867188718A718471920D
:1014F8007190728072927284718C718E1200000EDB
:10150800216E000E226ECECF21F0CFCF22F000F058
:101518009E0E2226570E212622C0CFFF5B0ECE6ECE
:101528001200020E276EAA0E266E000EC0EC04F002
:10153800000E276E000E266E010EC0EC04F012009D
:10154800000E276E000E266E000EC0EC04F0020E90
:10155800276EAA0E266E010EC0EC04F01200000ED3
:10156800896E000E8A6E000E8B6E0C0E926E880EBF
:10157800936EBF0E946ED08E05861200D180040043
:10158800B3EC0AF079EC08F0E2EC0AF0CFEC0AF0E0
:1015980029EC0AF01200D38CD38AD3883D0ECD6E85
:1015A8009E0ECF6E570ECE6E9D80CD80120041509C
:1015B800266E4250276E414A422A1200F28EF28C61
:1015C800D08ED08EF28C9F901200020E276E200EC5
:1015D800266E1200000E276E1B0E266E1200000EDD
:1015E800276EFE0E266E1200000E276EFE0E266E69
:1015F8001200000E276EFE0E266E1200000E276ED9
:10160800000E266E120026C018F027C019F012002E
:1016180018C026F019C027F0120021C018F022C007
:0D16280019F0120011000100010014000172
:10163600000E276E26681200266E26C020F01200C5
:0E16460006004A9211002050120012001200FD
:020000040020DA
:08000000FFFFFFFFFFFFFFFF00
:020000040030CA
:0E000000FF081F1EFF8281FF0FC00FE00F40A0
:00000001FF
