:100000000EEF00F0FF00FF0004EF06F000EF06F037
:100010001200FF00FF00FF000CEF06F0DAEF01F026
:10002000166E000E1B6E16506F500F0B1A6E1A5084
:100030009009776E18D060CF1BF02ED050CF1BF0F8
:100040002BD020CE1BF028D030CE1BF025D040CEB8
:100050001BF022D050CE1BF01FD060CE1BF01CD066
:1000600070CE1BF019D01A50000AD8B4E4D7010A98
:10007000D8B4E4D7030AD8B4E4D7010AD8B4E4D793
:10008000070AD8B4E4D7010AD8B4E4D7030AD8B42D
:10009000E4D7010AD8B4E4D71BAEDCD00F0E196E3A
:1000A000660E186E166E000E1C6E165016D01C5082
:1000B000010DF3501824D96EF4501920DA6E265031
:1000C000010D0001600EF324E16E0001000EF4202A
:1000D000E26EDFCFE7FF262A1C2A070E1C64E7D753
:1000E0000A0E276034D0166E000E1C6E16501BD000
:1000F0001C50010D0001600EF324D96E0001000EAA
:10010000F420DA6EDF50166E176A27500A0D1C5065
:10011000F326000EF4221750F41802E11650F318DB
:10012000D8A404D01C2A070E1C64E2D71C50080A6D
:10013000D8A406D0166E000E266E1650272A42D07E
:10014000166E000E266E165006EC00F03BD03F0EE9
:10015000266438D088EC03F01FC001F020C002F004
:1001600021C003F022C004F0400E1F24056E000ED3
:100170002020066E000E2120076E000E2220086E41
:1001800036EC03F01FC001F020C002F021C003F0E4
:1001900022C004F0000E066E400E056E0001000E37
:1001A000086E0001600E076EADEC02F0400E1F26D7
:1001B000000E2022000E2122000E2222166E000EBA
:1001C000266E1650F40ED76E240ED66E166E000EE6
:1001D000256E1650040025D0000E606E3BD0000E38
:1001E0000F010F0112D0000E0E010E01206F32D050
:1001F000000E0E010E01306F2DD0000E0E010E010B
:10020000406F28D0000E0E010E01506F23D0000E5B
:100210000E010E01606F1ED0000E0E010E01706FF8
:1002200019D01A50000AD8B4D7D7010AD8B4D7D7F2
:10023000030AD8B4D8D7010AD8B4DAD7070AD8B491
:10024000DCD7010AD8B4DED7030AD8B4E0D7010A54
:10025000D8B4E2D71200D0503F0B3C0AD8A406EC29
:1002600000F01D6E050E1E6E1D5092689368929AE6
:1002700073EC03F09468949C000ED56ED550F80B87
:100280000509D56EF29AF294F40ED76E240ED66E4E
:10029000D58E800E6F6E6E50E00B800AD8A4FBD70F
:1002A000900E776E70807082708470967098709ADD
:1002B000708C708E71867188718A71847192719060
:1002C000728072927284718C718E718C718E000E3C
:1002D0000D010D01F06FE00E0F010F01186F0B0EF5
:1002E0000F010F01196F0F010F011A690F010F01A3
:1002F0001B69600E0F010F01006F010E0F010F014E
:10030000016F0F010F010187400E0F010F01026FF6
:10031000000E0F010F01036F010E0D010D01D46FCF
:10032000000E0D010D01D56F000E606E000E0F0165
:100330000F01506F000E0E010E01206F000E0E0116
:100340000E01306F000E0E010E01406F000E0E0107
:100350000E01506F000E0E010E01606F000E0E01B7
:100360000E01706F000E6F6E6E50E00BD8A4FCD7BC
:10037000000E1F6E0C0E206E000E216E000E226EFF
:100380001D6E000E256E1D501D6E000E266E1D503A
:100390001D6E000E276E1D5010EC00F0F2A4FCD76D
:1003A000F29404001E50252A255CD8A0F5D706EC4F
:1003B00000F0F2D700EE60F0410EEE6AE806FDE1D3
:1003C00000EE1FF0090EEE6AE806FDE1F60EF66E8D
:1003D000030EF76E000EF86E00EE28F010EE07F038
:1003E0000900F5CFEEFFE550E150FAE1000EF86E9E
:1003F00000012BEF01F00100010014000100FF00DB
:1004000002000141FF00000E056E010E046E016640
:1004100050D002A003D08C50100902D08C50EF0BAA
:100420008C6E02A203D08C50400902D08C50BF0BBE
:100430008C6E02A403D08A50010902D08A50FE0BB0
:100440008A6E02A603D08950020902D08950FD0BA2
:10045000896E02A803D08950080902D08950F70B91
:10046000896E02AA03D08950200902D08950DF0B7F
:10047000896E02AC03D08D50020902D08D50FD0B65
:100480008D6E02AE03D08950800902D089507F0B57
:10049000896E03A003D08C50010902D08C50FE0B52
:1004A0008C6E03A203D08C50040902D08C50FB0B3D
:1004B0008C6E0104D8A450D002A003D08C50200927
:1004C00002D08C50DF0B8C6E02A203D08C508009BE
:1004D00002D08C507F0B8C6E02A403D08A5002098C
:1004E00002D08A50FD0B8A6E02A603D089500409FF
:1004F00002D08950FB0B896E02A803D089501009E5
:1005000002D08950EF0B896E02AA03D08D500109E9
:1005100002D08D50FE0B8D6E02AC03D08D500409BD
:1005200002D08D50FB0B8D6E02AE03D08950400976
:1005300002D08950BF0B896E03A003D08C500209F2
:1005400002D08C50FD0B8C6E03A203D08C50080996
:1005500002D08C50F70B8C6E1200096E000E0D6EDF
:100560000950096E000E0E6E095001C012F002C053
:1005700013F003C014F004C015F0060E096ED890F5
:100580000432033202320132092EF9D7060ED89016
:100590000136023603360436E82EF9D7400E01261E
:1005A000000E0222000E0322000E04221250000848
:1005B00001240D6E56D012C00FF013C010F014C0FD
:1005C00011F01CD007C0D9FF08C0DAFFDF500FC000
:1005D000F6FF10C0F7FF11C0F8FFF56E0C00074AD8
:1005E000082A010E0F26000E1022000E1122050609
:1005F000D8A0060606500510D8B404D00D060D2864
:10060000D8A4E0D70FC00AF010C00BF011C00CF056
:1006100012C00FF013C010F014C011F0A68EA69CEB
:10062000A684F2AE05D0F29E096E010E0E6E095040
:10063000550EA76EAA0EA76EA682A6940E50D8B429
:1006400005D0F28E096E000E0E6E0950096E400E36
:100650000D6E09500A50126E0B50136E0C50146E32
:10066000156A06500510D8B41200A5D7096E000E01
:100670000A6E095001C00BF002C00CF003C00DF06F
:1006800004C00EF025D00DC0F8FF0CC0F7FF0BC062
:10069000F6FFA68EA69CA684A688F2AE05D0F29E92
:1006A000096E010E0A6E0950550EA76EAA0EA76EAE
:1006B000A6820A50D8A4F28E400E0B240B6E000EB8
:1006C0000C200C6E000E0D200D6E000E0E200E6E16
:1006D00005500B5C06500C5807500D5808500E582A
:1006E000D8B01200D0D7066E000E016E0650000E74
:1006F000036E000E026E03EC02F0066E010E016E38
:100700000650020E036EAA0E026E03EC02F01200F7
:10071000066E000E016E0650020E036EAA0E026EE9
:1007200003EC02F0066E010E016E0650000E036E21
:10073000000E026E03EC02F01200FF00FF00FF004B
:040C00002FEF06F0DC
:060C08004C82D2ED15F054
:100C18004C80D8CF03F0E8CF04F0E0CF05F09EA0D9
:100C280012D031EC15F0000E026E010E016EC5EC0B
:100C380015F00001CF81372A140E376403D0000E57
:100C4800376ECB819E9005C0E0FF04C0E8FF03C06B
:100C5800D8FF4C901000A7EF11F0F00E08240E6E8C
:100C6800FF0E09200F6E20EE01F00650D92607501E
:100C7800DA22020EDE18D8A48ED020EE10F006502C
:100C8800D9260750DA22080EDF6E0E500F10D8A4AE
:100C980041D020EE08F00650D9260750DA2233500A
:100CA800DF6E20EE09F00650D9260750DA2232C04E
:100CB800DFFF20EE0AF00650D9260750DA22475007
:100CC800DF6E20EE0BF00650D9260750DA2246C018
:100CD800DFFF20EE0CF00650D9260750DA223150FB
:100CE800DF6E20EE0DF00650D9260750DA2230C00C
:100CF800DFFF20EE0EF00650D9260750DA222F50DB
:100D0800DF6E20EE0FF00650D9260750DA222EC0EB
:100D1800DFFF120020EE08F00650D9260750DA222D
:100D28002D50DF6E20EE09F00650D9260750DA2242
:100D38002CC0DFFF20EE0AF00650D9260750DA2231
:100D48002B50DF6E20EE0BF00650D9260750DA2222
:100D58002AC0DFFF20EE0CF00650D9260750DA2211
:100D68002950DF6E20EE0DF00650D9260750DA2202
:100D780028C0DFFF20EE0EF00650D9260750DA22F1
:100D88002750DF6E20EE0FF00650D9260750DA22E2
:100D980026C0DFFF12000E500F10D8A463D020EE3B
:100DA80008F00650D9260750DA22DF500A6E0A509A
:100DB8000C6E0B6A20EE09F00650D9260750DA228D
:100DC800DF500D6E0D500B10326E0C50336E20EE4E
:100DD8000AF00650D9260750DA22DF500A6E0A5068
:100DE8000C6E0B6A20EE0BF00650D9260750DA225B
:100DF800DF500D6E0D500B10466E0C50476E20EEF6
:100E08000CF00650D9260750DA22DF500A6E0A5035
:100E18000C6E0B6A20EE0DF00650D9260750DA2228
:100E2800DF500D6E0D500B10306E0C50316E20EEF1
:100E38000EF00650D9260750DA22DF500A6E0A5003
:100E48000C6E0B6A20EE0FF00650D9260750DA22F6
:100E5800DF500D6E0D500B102E6E0C502F6E9EEC49
:100E680010F0120020EE08F00650D9260750DA22BA
:100E7800DF500A6E0A500C6E0B6A20EE09F006501D
:100E8800D9260750DA22DF500D6E0D500B102C6E4C
:100E98000C502D6E20EE0AF00650D9260750DA22A3
:100EA800DF500A6E0A500C6E0B6A20EE0BF00650EB
:100EB800D9260750DA22DF500D6E0D500B102A6E1E
:100EC8000C502B6E20EE0CF00650D9260750DA2273
:100ED800DF500A6E0A500C6E0B6A20EE0DF00650B9
:100EE800D9260750DA22DF500D6E0D500B10286EF0
:100EF8000C50296E20EE0EF00650D9260750DA2243
:100F0800DF500A6E0A500C6E0B6A20EE0FF0065086
:100F1800D9260750DA22DF500D6E0D500B10266EC1
:100F28000C50276E9CD76F500F0B136E13509009FF
:100F3800776E18D060CF12F02ED050CF12F02BD091
:100F480020CE12F028D030CE12F025D040CE12F0AC
:100F580022D050CE12F01FD060CE12F01CD070CE2E
:100F680012F019D01350000AD8B4E4D7010AD8B443
:100F7800E4D7030AD8B4E4D7010AD8B4E4D7070AF7
:100F8800D8B4E4D7010AD8B4E4D7030AD8B4E4D76C
:100F9800010AD8B4E4D712AE9ED020EE03F00E506A
:100FA800D9260F50DA2260501F0BDF6E20EE04F0B6
:100FB8000E50D9260F50DA2264CFDFFF20EE05F05D
:100FC8000E50D9260F50DA2263CFDFFF20EE06F04D
:100FD8000E50D9260F50DA2262CF10F0030E1016E9
:100FE80062CF06F0076A000E096E080E086EE9EC7B
:100FF80010F006501010DF6E6150106E116A050E69
:10100800D89010361136E82EFBD720EE06F00E5099
:10101800D9260F50DA221050DE121150DD1220EEC0
:1010280002F00E50D9260F50DA22030EDF6E65BC8F
:1010380061D020EE01F00E50D9260F50DA22010EB1
:10104800DF6E20EE10F00E50D9260F50DA226550D0
:101058000F0BDF6E20EE10F00E50D9260F50DA225B
:10106800080EDF643AD01ED0000E606E34D0000E39
:101078000F010ED0000E0E01206F2DD0000E0E01B4
:10108800306F29D0000E0E01406F25D0000E0E01E2
:10109800506F21D0000E0E01606F1DD0000E0E01A2
:1010A800706F19D01350000AD8B4DED7010AD8B42B
:1010B800DED7030AD8B4DED7010AD8B4DFD7070AC7
:1010C800D8B4E0D7010AD8B4E1D7030AD8B4E2D734
:1010D800010AD8B4E3D7000E1200080E0E24066EDB
:1010E800000E0F20076E660E086E0F0E096E08ECD4
:1010F80015F027D020EE01F00E50D9260F50DA2235
:10110800020EDF6E1ED0000E606E34D0000E0F018E
:101118000ED0000E0E01206F2DD0000E0E01306F84
:1011280029D0000E0E01406F25D0000E0E01506F21
:1011380021D0000E0E01606F1DD0000E0E01706FE1
:1011480019D01350000AD8B4DED7010AD8B4DED7B4
:10115800030AD8B4DED7010AD8B4DFD7070AD8B44F
:10116800E0D7010AD8B4E1D7030AD8B4E2D7010A14
:10117800D8B4E3D7010E120020EE06F01450D92699
:101188001550DA22DF50166E1650066E076A000EEA
:10119800096E040E086EE9EC10F006501B6E1B0475
:1011A800D8B474D01BC019F01A6A70D014C008F0F3
:1011B80015C009F058EC0DF097D014C00CF015C00C
:1011C8000DF072EC0EF090D014C00CF015C00DF0BC
:1011D800ECEC0DF089D014C006F015C007F09EECB9
:1011E80013F082D014C006F015C007F09FEC14F07D
:1011F8007BD014C006F015C007F084EC14F074D04E
:1012080014C011F015C012F0B4EC0CF06DD014C07D
:101218000DF015C00EF022EC13F066D014C006F0E5
:1012280015C007F0D9EC15F05FD014C006F015C052
:1012380007F094EC12F058D014C006F015C007F06F
:10124800F40E1B24086E096AFF0E0922DAEC15F069
:101258004BD014C006F015C007F04FEC10F044D086
:1012680014C006F015C007F0000E096E100E086EC7
:1012780031EC06F039D014C006F015C007F0000EA6
:10128800096E110E086E31EC06F02ED01B50010AC3
:10129800D8B48CD7030AD8B490D7010AD8B494D755
:1012A800070AD8B498D7010AD8B49CD7030AD8B487
:1012B800A0D7010AD8B4A4D70E0AD8B4A8D7030A6D
:1012C800D8B4ACD7010AD8B4B0D7070AD8B4B4D7C1
:1012D800010AD8B4B1D7020AD8B4BBD71F0AD8B408
:1012E800BFD7010AD8B4C7D720EE01F01450D926C9
:1012F8001550DA22020EDE18D8A4120020EE02F0F1
:101308001450D9261550DA22030EDF6E20EE01F0B4
:101318001450D9261550DA22010EDF6E20EE04F0A3
:101328001450D9261550DA22DE6ADE6ADE6ADD6AD2
:101338001B50040D20EE06F01450D9261550DA2261
:10134800F3CFDFFF14C006F015C007F01BC008F08C
:10135800E4EC11F014C00BF015C00CF052EC0BF0DB
:1013680004D00F0140B964EC15F060A61200F9D75B
:101378004A0E096E000E0A6E000E0C6E6E0E0B6E93
:10138800000E0E6E020E0D6E69EC14F0000E0A6E61
:10139800710E096E32C00BF033C00CF024C00DF092
:1013A80025C00EF03EC00FF03FC010F0EBEC13F07C
:1013B800000E0A6E740E096E46C00BF047C00CF0A2
:1013C80024C00DF025C00EF03EC00FF03FC010F055
:1013D800EBEC13F0000E0A6E770E096E30C00BF0BE
:1013E80031C00CF024C00DF025C00EF03EC00FF047
:1013F8003FC010F0EBEC13F0000E0A6E7A0E096E87
:101408002EC00BF02FC00CF024C00DF025C00EF03C
:101418003EC00FF03FC010F0EBEC13F0000E0A6E68
:101428007D0E096E2CC00BF02DC00CF024C00DF001
:1014380025C00EF03EC00FF03FC010F0EBEC13F0EB
:10144800000E0A6E810E096E2AC00BF02BC00CF03C
:1014580024C00DF025C00EF03EC00FF03FC010F0C4
:10146800EBEC13F0000E0A6E830E096E28C00BF029
:1014780029C00CF024C00DF025C00EF03EC00FF0BE
:101488003FC010F0EBEC13F0000E0A6E860E096EEA
:1014980026C00BF027C00CF024C00DF025C00EF0BC
:1014A8003EC00FF03FC010F0EBEC13F0050E076ED6
:1014B800780E066E22C008F0BAEC14F0050E076E1E
:1014C800790E066E2350086EBAEC14F0050E076EFE
:1014D800A00E066E3CC008F0BAEC14F0050E076EBC
:1014E800A10E066E3D50086EBAEC14F0050E076E9C
:1014F800C80E066E20C008F0BAEC14F0050E076E90
:10150800F00E066E3AC008F0BAEC14F012004A0E5B
:10151800086E000E096E000E0B6E6E0E0A6E000E3F
:101528000D6E020E0C6ED4EC14F0000E096E710EE6
:10153800086E24C00AF025C00BF03EC00CF03FC076
:101548000DF02BEC11F008C032F009C033F0000E9A
:10155800096E740E086E24C00AF025C00BF03EC058
:101568000CF03FC00DF02BEC11F008C046F009C09C
:1015780047F0000E096E770E086E24C00AF025C0E9
:101588000BF03EC00CF03FC00DF02BEC11F008C082
:1015980030F009C031F0000E096E7A0E086E24C0D2
:1015A8000AF025C00BF03EC00CF03FC00DF02BEC4C
:1015B80011F008C02EF009C02FF0000E096E7D0E44
:1015C800086E24C00AF025C00BF03EC00CF03FC0E6
:1015D8000DF02BEC11F008C02CF009C02DF0000E16
:1015E800096E800E086E24C00AF025C00BF03EC0BC
:1015F8000CF03FC00DF02BEC11F008C02AF009C028
:101608002BF0000E096E830E086E24C00AF025C068
:101618000BF03EC00CF03FC00DF02BEC11F008C0F1
:1016280028F009C029F0000E096E860E086E24C045
:101638000AF025C00BF03EC00CF03FC00DF02BECBB
:1016480011F008C026F009C027F0050E076E780EC5
:10165800066E93EC15F0156E1550226E236A050E72
:10166800076EA00E066E93EC15F0156E15503C6EC5
:101678003D6A050E076EC80E066E93EC15F0156EE2
:101688001550206E216A050E076EF00E066E93EC5B
:1016980015F0156E15503A6E3B6A1200830E776E80
:1016A80060A60AD0840E776E60A606D0850E776E87
:1016B80060A602D0F3D7FF0074B4FDD7000E000176
:1016C800D16F20EE04F00B50D9260C50DA22DF50EF
:1016D800646E20EE05F00B50D9260C50DA22DF504C
:1016E800636E20EE06F00B50D9260C50DA22DF503C
:1016F8000D6E030E0D1620EE06F00B50D9260C5079
:10170800DA22DF50FC0B080DF3500D10626E628672
:1017180020EE06F00B50D9260C50DA22DECF0DF061
:10172800DDCF0EF0050E0F6ED8900E320D320F2E53
:10173800FBD70D50616E000E656E20EE01F00B5068
:10174800D9260C50DA22020EDE18D8A402D0658CF5
:101758005AD020EE10F00B50D9260C50DA22DF5068
:101768000D6E0F0E0D1665500D18FE0B0D18656EDB
:1017780020EE10F00B50D9260C50DA22DF500D6EF7
:10178800D8900D32070E0D160D4665500D18FD0B3D
:101798000D18656E20EE10F00B50D9260C50DA2289
:1017A800DF500D6ED8900D32D8900D32030E0D1605
:1017B8000D460D4665500D18FB0B0D18656E20EE95
:1017C80010F00B50D9260C50DA22DF500D6ED8904D
:1017D8000D32D8900D32D8900D32010E0D160D46EF
:1017E8000D460D4665500D18F70B0D18656E660E03
:1017F800066E0F0E076E080E0B24086E000E0C20E6
:10180800096E08EC15F060860001CF8912000A6E97
:101818000A50D8A450D006A003D08C50100902D08A
:101828008C50EF0B8C6E06A203D08C50400902D06E
:101838008C50BF0B8C6E06A403D08A50010902D0CD
:101848008A50FE0B8A6E06A603D08950020902D080
:101858008950FD0B896E06A803D08950080902D06B
:101868008950F70B896E06AA03D08950200902D047
:101878008950DF0B896E06AC03D08D50020902D067
:101888008D50FD0B8D6E06AE03D08950800902D0B5
:1018980089507F0B896E07A003D08C50010902D0B4
:1018A8008C50FE0B8C6E07A203D08C50040902D01A
:1018B8008C50FB0B8C6E0A04D8A4120006A003D02F
:1018C8008C50200902D08C50DF0B8C6E06A203D0FE
:1018D8008C50800902D08C507F0B8C6E06A403D0EC
:1018E8008A50020902D08A50FD0B8A6E06A603D0E0
:1018F8008950040902D08950FB0B896E06A803D0D1
:101908008950100902D08950EF0B896E06AA03D0BE
:101918008D50010902D08D50FE0B8D6E06AC03D0A0
:101928008D50040902D08D50FB0B8D6E06AE03D08E
:101938008950400902D08950BF0B896E07A003D097
:101948008C50020902D08C50FD0B8C6E07A204D07B
:101958008C5008098C6E12008C50F70B8C6E12009C
:1019680020EE01F01150D9261250DA22020EDE18AC
:10197800D8A457D020EE10F01150D9261250DA22F0
:10198800080EDF6E20EE08F01150D9261250DA2228
:10199800D044E846030B010BDF6E20EE09F011502E
:1019A800D9261250DA220001C6A902D0010E01D0B0
:1019B800000EDF6E20EE0AF01150D9261250DA22FE
:1019C800C6A102D0010E01D0000EDF6E20EE0BF092
:1019D8001150D9261250DA22000EDF6E20EE0CF0DC
:1019E8001150D9261250DA2236C0DFFF20EE0DF052
:1019F8001150D9261250DA2238C0DFFF20EE0EF03F
:101A08001150D9261250DA223AC0DFFF20EE0FF02B
:101A18001150D9261250DA223CC0DFFFD09CC6995B
:101A2800120020EE10F01150D9261250DA22010EC1
:101A3800DF6E20EE0AF01150D9261250DA22DF505C
:101A4800D8B40FD00001C68120EE09F01150D92674
:101A58001250DA22DF50D8B41ED0C687BCEC09F089
:101A68001AD020EE09F01150D9261250DA22DF5090
:101A7800D8B408D011C006F012C007F0F5EC12F087
:101A8800BCEC09F020EE08F01150D9261250DA22E9
:101A9800DF50D8A4FF0020EE08F01150D9261250CC
:101AA800DA22FF0EDF6E120020EE01F00850D92670
:101AB8000950DA22020EDE18D8A447D020EE10F022
:101AC8000850D9260950DA22060EDF6E20EE08F0FB
:101AD8000850D9260950DA22D7EC15F0DF6E20EE2F
:101AE80009F00850D9260950DA22B1EC15F007C0E0
:101AF80006F0076A0650DF6E20EE0AF00850D92675
:101B08000950DA22B1EC15F00650DF6E20EE0BF02A
:101B18000850D9260950DA229CEC15F00650DF6EE1
:101B280020EE0CF00850D9260950DA22B6EC15F050
:101B38000650DF6E20EE0DF00850D9260950DA2243
:101B4800CAEC15F00650DF6E120020EE04F00850C3
:101B5800D9260950DA22DECF06F0DDCF07F0E8EC0F
:101B68000EF006C00CF007C00DF020EE08F008508B
:101B7800D9260950DA22DF50D8A40AD00C1C0A6EE4
:101B88000D1C0B6E1E500A141E6E1F500B1405D030
:101B98000C501E101E6E0D501F101F6E1E501F1071
:101BA800D8B40BD0D7EC15F0E806D8B41200000171
:101BB800CB81010ECEEC15F01200D7EC15F0E8063B
:101BC800D8A412000001CB81000ECEEC15F0120053
:101BD80020EE01F00C50D9260D50DA22020EDE1844
:101BE800D8A439D020EE10F00C50D9260D50DA22A6
:101BF800060EDF6E20EE08F00C50D9260D50DA22C2
:101C08002150DF6E20EE09F00C50D9260D50DA2253
:101C180020C0DFFF20EE0AF00C50D9260D50DA2242
:101C28003B50DF6E20EE0BF00C50D9260D50DA2217
:101C38003AC0DFFF20EE0CF00C50D9260D50DA2206
:101C4800000EDF6E20EE0DF00C50D9260D50DA2272
:101C5800000EDF6E120020EE09F00C50D9260D5050
:101C6800DA22DF500E6E0E50066E076A000E096EFD
:101C780008685CEC12F020EE08F00C50D9260D50E4
:101C8800DA22DF500F6E0F50116E106A06501010D6
:101C9800206E07501110216E20EE0BF00C50D92643
:101CA8000D50DA22DF500E6E0E50066E076A000ED7
:101CB800096E08685CEC12F020EE0AF00C50D92688
:101CC8000D50DA22DF500F6E0F50116E106A065059
:101CD80010103A6E075011103B6E120020EE01F002
:101CE8000C50D9260D50DA22020EDE18D8A429D0BD
:101CF80020EE10F00C50D9260D50DA22040EDF6EBB
:101D080020EE08F00C50D9260D50DA222350DF6E51
:101D180020EE09F00C50D9260D50DA2222C0DFFF40
:101D280020EE0AF00C50D9260D50DA223D50DF6E15
:101D380020EE0BF00C50D9260D50DA223CC0DFFF04
:101D4800120020EE09F00C50D9260D50DA22DF508F
:101D58000E6E0E50066E076A000E096E08685CEC7F
:101D680012F020EE08F00C50D9260D50DA22DF5080
:101D78000F6E0F50116E106A06501010226E075029
:101D88001110236E20EE0BF00C50D9260D50DA22DC
:101D9800DF500E6E0E50066E076A000E096E086858
:101DA8005CEC12F020EE0AF00C50D9260D50DA2225
:101DB800DF500F6E0F50116E106A065010103C6EF7
:101DC800075011103D6E12000650321809E10750F5
:101DD8003318D8A405D0000E076E010E066E120047
:101DE8000650461809E107504718D8A405D0000E38
:101DF800076E020E066E12000650301809E10750F1
:101E08003118D8A405D0000E076E040E066E120015
:101E180006502E1809E107502F18D8A405D0000E37
:101E2800076E080E066E120006502C1809E10750BE
:101E38002D18D8A405D0000E076E100E066E1200DD
:101E480006502A1809E107502B18D8A405D0000E0F
:101E5800076E200E066E12000650281809E107507A
:101E68002918D8A405D0000E076E400E066E120081
:101E78000650261809E107502718D8A405D0000EE7
:101E8800076E800E066E1200000E076E000E066EBC
:101E98001200000E066E000E076E200E086E000E71
:101EA800096E7FEC15F006C01CF007C01DF0010E8E
:101EB800066E000E076E200E086E000E096E7FEC8F
:101EC80015F006C007F0066A06501C1207501D12CE
:101ED800000E066E000E076E200E086E000E096ECC
:101EE800000E0B6E760E0A6E69EC11F0010E066E8E
:101EF800000E076E200E086E000E096E000E0B6EA7
:101F0800400E0A6E69EC11F01CC0CDF01DC0CEF079
:101F180043EC15F0D0680001CFB1CF91C0EC15F0BB
:101F280006040710D8A408D0FEEC0FF0000E076EC8
:101F3800000E066EBBEC15F077EC13F0ABEC15F069
:101F48000400E9D7116E0DC014F00EC015F0000E94
:101F5800136E000E126E0FC006F010C007F0000ED0
:101F6800096E0A0E086E4EEC13F006C016F007C094
:101F780017F01150D8B417D031D012501410126E77
:101F880013501510136E14C006F015C007F00EECB0
:101F980014F006C014F007C015F0FF0E1624166ED4
:101FA800FF0E1720176E16501710D8B41BD0E5D7A0
:101FB80012501410126E13501510136E14C006F040
:101FC80015C007F0C5EC13F006C014F007C015F0F3
:101FD800FF0E1624166EFF0E1720176E16501710D8
:101FE800D8A4E6D712C006F013C007F011500BECC6
:101FF8000CF012003950D8A425D04850D8B414D0C9
:10200800000E076E000E066E000E0BEC0CF040C0C2
:102018000DF041C00EF044C00FF045C010F049501B
:10202800A6EC0FF0480622D0000E486E40C00DF016
:1020380041C00EF0000E106E640E0F6E4950A6ECF3
:102048000FF014D0000E076E000E066E49500BEC10
:102058000CF042C00DF043C00EF044C00FF045C074
:1020680010F0000EA6EC0FF0640E486E42C006F0A9
:1020780043C007F0C5EC13F006C042F007C043F0B8
:1020880040C006F041C007F00EEC14F006C040F066
:1020980007C041F0120020EE01F00650D926075083
:1020A800DA22020EDE18D8A421D020EE10F0065055
:1020B800D9260750DA22030EDF6E20EE08F006500C
:1020C800D9260750DA22000EDF6E20EE09F00650FE
:1020D800D9260750DA2240C0DFFF20EE0AF006506A
:1020E800D9260750DA2242C0DFFF120020EE08F09E
:1020F8000650D9260750DA22DF50086E08500A6EBB
:10210800096A20EE09F00650D9260750DA22DF5076
:102118000B6E0B500910406E0A50416E20EE0AF00B
:102128000650D9260750DA22DF50086E0850426E52
:10213800436A1200000E0F01086F200E096F09870D
:1021480033500A6F32C00BFF000E0C6F200E0D6F5C
:102158000D8747500E6F46C00FFF000E106F200E00
:10216800116F11873150126F30C013FF000E146FBA
:10217800200E156F15872F50166F2EC017FF000EF3
:102188000D01606F200E616F61872D50626F2CC04A
:1021980063FD000E646F200E656F65872B50666FB8
:1021A8002AC067FD000E686F200E696F6987295085
:1021B8006A6F28C06BFD000E706F200E716F7187FB
:1021C8002750726F26C073FD1200000E0B6E09AE09
:1021D80006D0086C091ED8B0092A010E0B6E07AE8E
:1021E80006D0066C071ED8B0072A010E0B1A000E7F
:1021F8000D6E000E0C6E08500910D8B41CD0010EDC
:102208000A6E04D0D890083609360A2A09AEFAD7D9
:10221800D8900C360D360850065C09500758D8A0DF
:1022280005D00850065E0950075A0C80D89009322C
:1022380008320A2EEDD70B50D8B404D00C6C0D1E02
:10224800D8B00D2A0CC006F00DC007F0120008C067
:1022580006F009C007F093EC15F00E6E0E50136EE1
:10226800146A000E0E6EFF0E0F6E010E0824066E25
:10227800000E0920076E93EC15F0106E1050126EC8
:10228800116A0E5011160F50121613501110136EBA
:1022980014501210146E132803E11428D8B40CD06B
:1022A8000A50135C0B501458D8A006D013500C5C7D
:1022B80014500D58D8B004D0000E146E000E136ED2
:1022C80013C008F014C009F012000A0E106E000EB8
:1022D800116EF2AE03D00C6A0C2A01D00C6A0C50B5
:1022E8000E6E0F6A06C0F6FF07C0F7FF08C0F8FFBA
:1022F80010C0D9FF11C0DAFFDECF0CF0DDCF0DF032
:102308000DC00CF00D6A0C50F56E0C0010C0D9FF12
:1023180011C0DAFFDF50F56E0C0006C0F6FF07C0EB
:10232800F7FF08C0F8FFA68EA69CA684F29E550E5D
:10233800A76EAA0EA76EA6820EB002D0F29E01D09A
:10234800F28EA6941200AA0EF66E2B0EF76E000EF1
:10235800F86E00EEEFF010EE04F00900F5CFEEFF96
:10236800E550E150FAE1140EF66E2B0EF76E000EF2
:10237800F86E00EE3AF010EE12F00900F5CFEEFF1D
:10238800E550E150FAE100EEF3F012EE20F0EE6ACB
:10239800E550E150FCE1E250FAE100EE60F07E0E1B
:1023A800EE6AE806FDE100EE1EF01C0EEE6AE80695
:1023B800FDE14C904C92000EF86E00014DEF0FF0CD
:1023C80020EE02F00650D9260750DA22030EDF6EFF
:1023D80020EE01F00650D9260750DA22010EDF6EF2
:1023E8000850096E0A6AD89009360A36D890093614
:1023F8000A3620EE06F00650D9260750DA2209C020
:10240800DEFF0AC0DDFF20EE04F00650D926075093
:10241800DA22CDC0DEFFCEC0DDFF20EE06F006508A
:10242800D9260750DA22DF9020EE06F00650D9268A
:102438000750DA22DF921200500E0D01F06F550E90
:10244800F16F550EF26F550EF36F000E0F01186FF6
:102458000B0E196F1A691B691C691D691E691F69B2
:10246800000E186F000E196F000E006F010E016F3D
:1024780001870001CE510F01026FCDC003FF000E8E
:10248800046F010E056F05877F0E066F07699EECC6
:1024980010F0000E0D01E06F110EE16F110EE26FEA
:1024A800110EE36F110EE46FD469030ED56F12009D
:1024B800000E0B6E07AE06D0066C071ED8B0072AB2
:1024C800010E0B6E09AE04D0086C091ED8B0092A9B
:1024D80008500910D8B418D0010E0A6E04D0D8904C
:1024E800083609360A2A09AEFAD70850065C095098
:1024F8000758D8A004D00850065E0950075AD8904B
:10250800093208320A2EF1D70B50D8B404D0066C21
:10251800071ED8B0072A06C006F007C007F0120049
:1025280020EE01F00650D9260750DA22020EDE18F6
:10253800D8A4120020EE10F00650D9260750DA224F
:10254800040EDF6E20EE08F00650D9260750DA2276
:102558000550DF6E20EE09F00650D9260750DA2222
:1025680004C0DFFF20EE0AF00650D9260750DA2211
:102578000B50DF6E20EE0BF00650D9260750DA22FA
:102588000AC0DFFF1200800E6F6E6E50E00B800AEB
:10259800D8A4FBD7000E0D01F86F000E0F01406F95
:1025A800000E606E000E506F000E0E01206F000EC0
:1025B800306F000EA36EA568000EA46E000E0D010C
:1025C800FA6F900E776E1DEC15F020EC12F0736820
:1025D800000E6F6E6ECF06F0E00E0616D8B412002D
:1025E800F9D720EE0CF00650D9260750DA22DF5032
:1025F800086E0850366E376A20EE0DF00650D92660
:102608000750DA22DF50086E0850386E396A20EE1B
:102618000EF00650D9260750DA22DF50086E08500F
:102628003A6E3B6A20EE0FF00650D9260750DA22A0
:10263800DF50086E08503C6E3D6A120020EE01F033
:102648000D50D9260E50DA22020EDE18D8A413D067
:1026580020EE08F00D50D9260E50DA220CC006F0F4
:102668000DC007F0000E096E0A0E086E4EEC13F04E
:102678000650DF6E120020EE08F00D50D9260E50DD
:10268800DA22DF500F6E0F500A0DF3CF0CF0F4CFA3
:102698000DF01200000E0C6E000E0B6E08500910A3
:1026A800D8B41CD0010E0A6E04D0D890083609366A
:1026B8000A2A09AEFAD7D8900B360C360850065CB1
:1026C80009500758D8A005D00850065E0950075A87
:1026D8000B80D890093208320A2EEDD70BC006F0CD
:1026E8000CC007F012000001CBA114D0020EDF6F5E
:1026F800000EE26F000EE36F000EE46F000EE56F50
:10270800040EE46FDE0E146E000E156EC0EC08F0B9
:102718000001CB91DE0E0E6E000E0F6E97EC07F0E7
:102728000009D8B41200DE0E146E000E156EC0EC4F
:1027380008F0120020EE01F00650D9260750DA22E0
:10274800020EDE18D8A4120020EE10F00650D9268A
:102758000750DA22010EDF6E000E0A6E000E096EB7
:10276800094A0A2A0A5004E1030E095CD8A0F8D7DE
:1027780020EE08F00650D9260750DA22FF0EDF6E49
:10278800120006A018D0FE0E06140A6E030E0714D7
:102798000B6ED8900B30086E0A300A6E08C00BF02A
:1027A800000E0A100A6E020E0B100B6E0AC006F01D
:1027B8000BC007F01200D8900730086E0630066E7E
:1027C80008C007F006C006F007C007F012000D5059
:1027D8000B5C0E500C58D8A006D00B500F5C0C5058
:1027E8001058D8B004D0000E0C6E000E0B6E09C045
:1027F80006F00AC007F00BC008F0BAEC14F0010E9E
:102808000924066E000E0A20076E0C50086EBAECFA
:1028180014F0120007A215D0FF0E0614086E010E60
:102828000714096ED8900834086E0934096E010E31
:102838000810086E0950096E08C006F009C007F0B4
:102848001200D8900634066E0734076E06C006F0EC
:1028580007C007F01200010E0E6E000E0001D36FC4
:10286800000ED26F000E076E030E066EDC0E086EA9
:10287800000E096E4DEC14F00E16000E076E100EC9
:10288800066EDA0E086E000E096E4DEC14F00E1688
:10289800120006500001D2250A6E0750D3210B6E94
:1028A8000A04040E0B58D8A002D0000E120008C06B
:1028B800D9FF09C0DAFFD2C0DEFFD3C0DDFF065062
:1028C800D2270750D323010E120015D0A6B2FED787
:1028D8000BC006F00CC007F009C0D9FF0AC0DAFF28
:1028E800DF50086EBAEC14F00B4A0C2A0D06D8A07B
:1028F8000E06094A0A2A0D500E10D8B41200E6D75F
:1029080020EE01F00650D9260750DA22020EDE1812
:10291800D8A4120020EE10F00650D9260750DA226B
:10292800010EDF6E20EE08F00650D9260750DA2295
:10293800FF0EDF6E120020EE01F00650D926075078
:10294800DA22020EDE18D8A4120020EE10F006508B
:10295800D9260750DA22010EDF6E20EE08F0065065
:10296800D9260750DA22FF0EDF6E12000750AA6E32
:1029780006C0A9FF08C0A8FFA684000EF2BE010E7B
:10298800346EF29E550EA76EAA0EA76EA68234B0BC
:1029980002D0F29E01D0F28EA694A6B2FED7120003
:1029A80014D0A6B2FED70AC006F00BC007F093EC0D
:1029B80015F008C0D9FF09C0DAFFDF6E0A4A0B2AF2
:1029C800084A092A0C06D8A00D060C500D10D8B4D8
:1029D8001200E7D79250010B926E9350FC0B936E46
:1029E8009650F80B966E000E956E000E076E000E50
:1029F800066E000E0BEC0CF0000E076E000E066E55
:102A0800010E0BEC0CF01200000E0A6E0A5008249E
:102A1800D96E000E0920DA6E0A500624E16E000E07
:102A28000720E26EDFCFE7FF0A2A070E0A64EED717
:102A3800120070807082709470967098709A708C82
:102A4800708E71867188718A7184719271907280AA
:102A580072927284718C718E1200000E016E000EDB
:102A6800026ECECF01F0CFCF02F000F09E0E02260C
:102A7800570E012602C0CFFF5B0ECE6E1200D1802A
:102A88002FEC14F08BEC0AF0040054EC15F0C7ECB2
:102A980012F0A4EC15F073EC15F0EEEC14F0120043
:102AA800000E896E000E8A6E000E8B6E0C0E926EF2
:102AB800880E936EBF0E946ED08E0001CF871200E1
:102AC800020E076EAA0E066E000E0BEC0CF0000E3E
:102AD800076E000E066E010E0BEC0CF01200D38C84
:102AE800D38AD3883D0ECD6E9E0ECF6E570ECE6E16
:102AF8009D80CD80120006C0F6FF07C0F7FF08C012
:102B0800F8FF0800F5CF06F0076A1200FFFFFFFF85
:102B1800FFFF0100010014002A011401FFFF075004
:102B2800AA6E06C0A9FFA680A69EA69CA850120061
:102B38000001EF51066EF051076EEF4BF02B1200BB
:102B4800F28EF28CD08ED08EF28C9F901200000103
:102B5800C6A11200C693C6911200020E076E200E7F
:102B6800066E1200000E076E1B0E066E120006C0DF
:102B7800D6F007C0D7F01200D6C006F0D7C007F0CD
:102B8800120001C0D6F002C0D7F01200000E076E86
:102B980006681200066E06C039F0120006004C9254
:0E2BA8001100110064003950120012001200DA
:020000040020DA
:08000000FFFFFFFFFFFFFFFF00
:020000040030CA
:0E000000FF081F1EFF8281FF0FC00FE00F40A0
:00000001FF
