:100000000EEF00F0FF00FF0004EF06F000EF06F037
:100010001200FF00FF00FF000CEF06F0DAEF01F026
:10002000166E000E1B6E16506F500F0B1A6E1A5084
:100030009009776E18D060CF1BF02ED050CF1BF0F8
:100040002BD020CE1BF028D030CE1BF025D040CEB8
:100050001BF022D050CE1BF01FD060CE1BF01CD066
:1000600070CE1BF019D01A50000AD8B4E4D7010A98
:10007000D8B4E4D7030AD8B4E4D7010AD8B4E4D793
:10008000070AD8B4E4D7010AD8B4E4D7030AD8B42D
:10009000E4D7010AD8B4E4D71BAEDCD00F0E196E3A
:1000A000660E186E166E000E1C6E165016D01C5082
:1000B000010DF3501824D96EF4501920DA6E265031
:1000C000010D0001600EF324E16E0001000EF4202A
:1000D000E26EDFCFE7FF262A1C2A070E1C64E7D753
:1000E0000A0E276034D0166E000E1C6E16501BD000
:1000F0001C50010D0001600EF324D96E0001000EAA
:10010000F420DA6EDF50166E176A27500A0D1C5065
:10011000F326000EF4221750F41802E11650F318DB
:10012000D8A404D01C2A070E1C64E2D71C50080A6D
:10013000D8A406D0166E000E266E1650272A42D07E
:10014000166E000E266E165006EC00F03BD03F0EE9
:10015000266438D088EC03F01FC001F020C002F004
:1001600021C003F022C004F0400E1F24056E000ED3
:100170002020066E000E2120076E000E2220086E41
:1001800036EC03F01FC001F020C002F021C003F0E4
:1001900022C004F0000E066E400E056E0001000E37
:1001A000086E0001600E076EADEC02F0400E1F26D7
:1001B000000E2022000E2122000E2222166E000EBA
:1001C000266E1650F40ED76E240ED66E166E000EE6
:1001D000256E1650040025D0000E606E3BD0000E38
:1001E0000F010F0112D0000E0E010E01206F32D050
:1001F000000E0E010E01306F2DD0000E0E010E010B
:10020000406F28D0000E0E010E01506F23D0000E5B
:100210000E010E01606F1ED0000E0E010E01706FF8
:1002200019D01A50000AD8B4D7D7010AD8B4D7D7F2
:10023000030AD8B4D8D7010AD8B4DAD7070AD8B491
:10024000DCD7010AD8B4DED7030AD8B4E0D7010A54
:10025000D8B4E2D71200D0503F0B3C0AD8A406EC29
:1002600000F01D6E050E1E6E1D5092689368929AE6
:1002700073EC03F09468949C000ED56ED550F80B87
:100280000509D56EF29AF294F40ED76E240ED66E4E
:10029000D58E800E6F6E6E50E00B800AD8A4FBD70F
:1002A000900E776E70807082708470967098709ADD
:1002B000708C708E71867188718A71847192719060
:1002C000728072927284718C718E718C718E000E3C
:1002D0000D010D01F06FE00E0F010F01186F0B0EF5
:1002E0000F010F01196F0F010F011A690F010F01A3
:1002F0001B69600E0F010F01006F010E0F010F014E
:10030000016F0F010F010187400E0F010F01026FF6
:10031000000E0F010F01036F010E0D010D01D46FCF
:10032000000E0D010D01D56F000E606E000E0F0165
:100330000F01506F000E0E010E01206F000E0E0116
:100340000E01306F000E0E010E01406F000E0E0107
:100350000E01506F000E0E010E01606F000E0E01B7
:100360000E01706F000E6F6E6E50E00BD8A4FCD7BC
:10037000000E1F6E0C0E206E000E216E000E226EFF
:100380001D6E000E256E1D501D6E000E266E1D503A
:100390001D6E000E276E1D5010EC00F0F2A4FCD76D
:1003A000F29404001E50252A255CD8A0F5D706EC4F
:1003B00000F0F2D700EE60F0410EEE6AE806FDE1D3
:1003C00000EE1FF0090EEE6AE806FDE1F60EF66E8D
:1003D000030EF76E000EF86E00EE28F010EE07F038
:1003E0000900F5CFEEFFE550E150FAE1000EF86E9E
:1003F00000012BEF01F00100010014000100FF00DB
:1004000002000141FF00000E056E010E046E016640
:1004100050D002A003D08C50100902D08C50EF0BAA
:100420008C6E02A203D08C50400902D08C50BF0BBE
:100430008C6E02A403D08A50010902D08A50FE0BB0
:100440008A6E02A603D08950020902D08950FD0BA2
:10045000896E02A803D08950080902D08950F70B91
:10046000896E02AA03D08950200902D08950DF0B7F
:10047000896E02AC03D08D50020902D08D50FD0B65
:100480008D6E02AE03D08950800902D089507F0B57
:10049000896E03A003D08C50010902D08C50FE0B52
:1004A0008C6E03A203D08C50040902D08C50FB0B3D
:1004B0008C6E0104D8A450D002A003D08C50200927
:1004C00002D08C50DF0B8C6E02A203D08C508009BE
:1004D00002D08C507F0B8C6E02A403D08A5002098C
:1004E00002D08A50FD0B8A6E02A603D089500409FF
:1004F00002D08950FB0B896E02A803D089501009E5
:1005000002D08950EF0B896E02AA03D08D500109E9
:1005100002D08D50FE0B8D6E02AC03D08D500409BD
:1005200002D08D50FB0B8D6E02AE03D08950400976
:1005300002D08950BF0B896E03A003D08C500209F2
:1005400002D08C50FD0B8C6E03A203D08C50080996
:1005500002D08C50F70B8C6E1200096E000E0D6EDF
:100560000950096E000E0E6E095001C012F002C053
:1005700013F003C014F004C015F0060E096ED890F5
:100580000432033202320132092EF9D7060ED89016
:100590000136023603360436E82EF9D7400E01261E
:1005A000000E0222000E0322000E04221250000848
:1005B00001240D6E56D012C00FF013C010F014C0FD
:1005C00011F01CD007C0D9FF08C0DAFFDF500FC000
:1005D000F6FF10C0F7FF11C0F8FFF56E0C00074AD8
:1005E000082A010E0F26000E1022000E1122050609
:1005F000D8A0060606500510D8B404D00D060D2864
:10060000D8A4E0D70FC00AF010C00BF011C00CF056
:1006100012C00FF013C010F014C011F0A68EA69CEB
:10062000A684F2AE05D0F29E096E010E0E6E095040
:10063000550EA76EAA0EA76EA682A6940E50D8B429
:1006400005D0F28E096E000E0E6E0950096E400E36
:100650000D6E09500A50126E0B50136E0C50146E32
:10066000156A06500510D8B41200A5D7096E000E01
:100670000A6E095001C00BF002C00CF003C00DF06F
:1006800004C00EF025D00DC0F8FF0CC0F7FF0BC062
:10069000F6FFA68EA69CA684A688F2AE05D0F29E92
:1006A000096E010E0A6E0950550EA76EAA0EA76EAE
:1006B000A6820A50D8A4F28E400E0B240B6E000EB8
:1006C0000C200C6E000E0D200D6E000E0E200E6E16
:1006D00005500B5C06500C5807500D5808500E582A
:1006E000D8B01200D0D7066E000E016E0650000E74
:1006F000036E000E026E03EC02F0066E010E016E38
:100700000650020E036EAA0E026E03EC02F01200F7
:10071000066E000E016E0650020E036EAA0E026EE9
:1007200003EC02F0066E010E016E0650000E036E21
:10073000000E026E03EC02F01200FF00FF00FF004B
:040C00002FEF06F0DC
:060C08005A820CED15F00C
:100C18005A80D8CF03F0E8CF04F0E0CF05F09EA0CB
:100C280012D059EC14F0000E026E010E016EFFECAA
:100C380014F00001CB813C2A140E3C6403D0000E52
:100C48003C6E2D809E9005C0E0FF04C0E8FF03C005
:100C5800D8FF5A9010008FEF11F0F00E08240E6E96
:100C6800FF0E09200F6E20EE01F00650D92607501E
:100C7800DA22020EDE18D8A48ED020EE10F006502C
:100C8800D9260750DA22080EDF6E0E500F10D8A4AE
:100C980041D020EE08F00650D9260750DA224C50F1
:100CA800DF6E20EE09F00650D9260750DA224BC035
:100CB800DFFF20EE0AF00650D9260750DA225950F5
:100CC800DF6E20EE0BF00650D9260750DA2258C006
:100CD800DFFF20EE0CF00650D9260750DA224A50E2
:100CE800DF6E20EE0DF00650D9260750DA2249C0F3
:100CF800DFFF20EE0EF00650D9260750DA224850C2
:100D0800DF6E20EE0FF00650D9260750DA2247C0D2
:100D1800DFFF120020EE08F00650D9260750DA222D
:100D28004650DF6E20EE09F00650D9260750DA2229
:100D380045C0DFFF20EE0AF00650D9260750DA2218
:100D48004450DF6E20EE0BF00650D9260750DA2209
:100D580043C0DFFF20EE0CF00650D9260750DA22F8
:100D68004250DF6E20EE0DF00650D9260750DA22E9
:100D780041C0DFFF20EE0EF00650D9260750DA22D8
:100D88004050DF6E20EE0FF00650D9260750DA22C9
:100D98003FC0DFFF12000E500F10D8A463D020EE22
:100DA80008F00650D9260750DA22DF500A6E0A509A
:100DB8000C6E0B6A20EE09F00650D9260750DA228D
:100DC800DF500D6E0D500B104B6E0C504C6E20EE1C
:100DD8000AF00650D9260750DA22DF500A6E0A5068
:100DE8000C6E0B6A20EE0BF00650D9260750DA225B
:100DF800DF500D6E0D500B10586E0C50596E20EED2
:100E08000CF00650D9260750DA22DF500A6E0A5035
:100E18000C6E0B6A20EE0DF00650D9260750DA2228
:100E2800DF500D6E0D500B10496E0C504A6E20EEBF
:100E38000EF00650D9260750DA22DF500A6E0A5003
:100E48000C6E0B6A20EE0FF00650D9260750DA22F6
:100E5800DF500D6E0D500B10476E0C50486ED6ECDF
:100E68000FF0120020EE08F00650D9260750DA22BB
:100E7800DF500A6E0A500C6E0B6A20EE09F006501D
:100E8800D9260750DA22DF500D6E0D500B10456E33
:100E98000C50466E20EE0AF00650D9260750DA228A
:100EA800DF500A6E0A500C6E0B6A20EE0BF00650EB
:100EB800D9260750DA22DF500D6E0D500B10436E05
:100EC8000C50446E20EE0CF00650D9260750DA225A
:100ED800DF500A6E0A500C6E0B6A20EE0DF00650B9
:100EE800D9260750DA22DF500D6E0D500B10416ED7
:100EF8000C50426E20EE0EF00650D9260750DA222A
:100F0800DF500A6E0A500C6E0B6A20EE0FF0065086
:100F1800D9260750DA22DF500D6E0D500B103F6EA8
:100F28000C50406E9CD7560E086E000E096E000ECF
:100F38000B6E6E0E0A6E000E0D6E020E0C6EFCEC41
:100F480013F04B0E086E000E096E000E0B6E710E3C
:100F58000A6E000E0D6E020E0C6EFCEC13F04B28A0
:100F680003E14C28D8B411D035504B5C36504C585E
:100F7800D8B002D0010E01D0000E0E6E0F6A0E50CE
:100F88004D5C0F504E58D8B004D0000E4C6E000E79
:100F98004B6E580E086E000E096E000E0B6E740E26
:100FA8000A6E000E0D6E020E0C6EFCEC13F0582843
:100FB80003E15928D8B411D03550585C36505958E7
:100FC800D8B002D0010E01D0000E0E6E0F6A0E507E
:100FD8004D5C0F504E58D8B004D0000E596E000E1C
:100FE800586E490E086E000E096E000E0B6E770ED5
:100FF8000A6E000E0D6E020E0C6EFCEC13F0492802
:1010080003E14A28D8B411D03550495C36504A58C3
:10101800D8B002D0010E01D0000E0E6E0F6A0E502D
:101028004D5C0F504E58D8B004D0000E4A6E000EDA
:10103800496E470E086E000E096E000E0B6E7A0E92
:101048000A6E000E0D6E020E0C6EFCEC13F04728B3
:1010580003E14828D8B411D03550475C3650485879
:10106800D8B002D0010E01D0000E0E6E0F6A0E50DD
:101078004D5C0F504E58D8B004D0000E486E000E8C
:10108800476E450E086E000E096E000E0B6E7D0E43
:101098000A6E000E0D6E020E0C6EFCEC13F0452865
:1010A80003E14628D8B411D03550455C365046582F
:1010B800D8B002D0010E01D0000E0E6E0F6A0E508D
:1010C8004D5C0F504E58D8B004D0000E466E000E3E
:1010D800456E430E086E000E096E000E0B6E800EF4
:1010E8000A6E000E0D6E020E0C6EFCEC13F0432817
:1010F80003E14428D8B411D03550435C36504458E5
:10110800D8B002D0010E01D0000E0E6E0F6A0E503C
:101118004D5C0F504E58D8B004D0000E446E000EEF
:10112800436E410E086E000E096E000E0B6E830EA4
:101138000A6E000E0D6E020E0C6EFCEC13F04128C8
:1011480003E14228D8B411D03550415C365042589A
:10115800D8B002D0010E01D0000E0E6E0F6A0E50EC
:101168004D5C0F504E58D8B004D0000E426E000EA1
:10117800416E3F0E086E000E096E000E0B6E860E55
:101188000A6E000E0D6E020E0C6EFCEC13F03F287A
:1011980003E14028D8B411D035503F5C3650405850
:1011A800D8B002D0010E01D0000E0E6E0F6A0E509C
:1011B8004D5C0F504E58D8B01200000E406E000E15
:1011C8003F6E12006F500F0B136E13509009776E1D
:1011D80018D060CF12F02ED050CF12F02BD020CEE6
:1011E80012F028D030CE12F025D040CE12F022D006
:1011F80050CE12F01FD060CE12F01CD070CE12F07C
:1012080019D01350000AD8B4E4D7010AD8B4E4D7E7
:10121800030AD8B4E4D7010AD8B4E4D7070AD8B483
:10122800E4D7010AD8B4E4D7030AD8B4E4D7010A4A
:10123800D8B4E4D712AE9ED020EE03F00E50D926D3
:101248000F50DA2260501F0BDF6E20EE04F00E50B4
:10125800D9260F50DA2264CFDFFF20EE05F00E50BA
:10126800D9260F50DA2263CFDFFF20EE06F00E50AA
:10127800D9260F50DA2262CF10F0030E101662CF73
:1012880006F0076A000E096E080E086E21EC10F0D1
:1012980006501010DF6E6150106E116A050ED8905E
:1012A80010361136E82EFBD720EE06F00E50D92660
:1012B8000F50DA221050DE121150DD1220EE02F02B
:1012C8000E50D9260F50DA22030EDF6E65BC61D0AE
:1012D80020EE01F00E50D9260F50DA22010EDF6EF3
:1012E80020EE10F00E50D9260F50DA2265500F0B61
:1012F800DF6E20EE10F00E50D9260F50DA22080EBD
:10130800DF643AD01ED0000E606E34D0000E0F019C
:101318000ED0000E0E01206F2DD0000E0E01306F82
:1013280029D0000E0E01406F25D0000E0E01506F1F
:1013380021D0000E0E01606F1DD0000E0E01706FDF
:1013480019D01350000AD8B4DED7010AD8B4DED7B2
:10135800030AD8B4DED7010AD8B4DFD7070AD8B44D
:10136800E0D7010AD8B4E1D7030AD8B4E2D7010A12
:10137800D8B4E3D7000E1200080E0E24066E000E35
:101388000F20076E660E086E0F0E096E30EC14F013
:1013980027D020EE01F00E50D9260F50DA22020E87
:1013A800DF6E1ED0000E606E34D0000E0F010ED01E
:1013B800000E0E01206F2DD0000E0E01306F29D0C7
:1013C800000E0E01406F25D0000E0E01506F21D087
:1013D800000E0E01606F1DD0000E0E01706F19D047
:1013E8001350000AD8B4DED7010AD8B4DED7030AEE
:1013F800D8B4DED7010AD8B4DFD7070AD8B4E0D703
:10140800010AD8B4E1D7030AD8B4E2D7010AD8B49C
:10141800E3D7010E1200560E096E000E0A6E000E7A
:101428000C6E6E0E0B6E000E0E6E020E0D6E76ECCE
:1014380013F035504B5C36504C58D8B002D0010EE2
:1014480001D0000E0F6E106A0F504D5C10504E58B0
:10145800D8B004D0000E4C6E000E4B6E4B0E096EC9
:10146800000E0A6E000E0C6E710E0B6E000E0E6EE4
:10147800020E0D6E76EC13F03550585C3650595804
:10148800D8B002D0010E01D0000E0F6E106A0F50B6
:101498004D5C10504E58D8B004D0000E596E000E56
:1014A800586E580E096E000E0A6E000E0C6E740E01
:1014B8000B6E000E0E6E020E0D6E76EC13F03550AC
:1014C800495C36504A58D8B002D0010E01D0000EFF
:1014D8000F6E106A0F504D5C10504E58D8B004D0A3
:1014E800000E4A6E000E496E490E096E000E0A6E15
:1014F800000E0C6E770E0B6E000E0E6E020E0D6E49
:1015080076EC13F03550475C36504858D8B002D0C6
:10151800010E01D0000E0F6E106A0F504D5C105076
:101528004E58D8B004D0000E486E000E476E470ED5
:10153800096E000E0A6E000E0C6E7A0E0B6E000E0F
:101548000E6E020E0D6E76EC13F03550455C36507B
:101558004658D8B002D0010E01D0000E0F6E106AA6
:101568000F504D5C10504E58D8B004D0000E466E47
:10157800000E456E450E096E000E0A6E000E0C6ECA
:101588007D0E0B6E000E0E6E020E0D6E76EC13F0D5
:101598003550435C36504458D8B002D0010E01D0C3
:1015A800000E0F6E106A0F504D5C10504E58D8B098
:1015B80004D0000E446E000E436E430E096E000EFA
:1015C8000A6E000E0C6E800E0B6E000E0E6E020E72
:1015D8000D6E76EC13F03550415C36504258D8B059
:1015E80002D0010E01D0000E0F6E106A0F504D5C34
:1015F80010504E58D8B004D0000E426E000E416E06
:10160800410E096E000E0A6E000E0C6E830E0B6EF4
:10161800000E0E6E020E0D6E76EC13F035503F5C28
:1016280036504058D8B002D0010E01D0000E0F6ECF
:10163800106A0F504D5C10504E58D8B004D0000EB0
:10164800406E000E3F6E3F0E096E000E0A6E000ED1
:101658000C6E860E0B6E000E0E6E020E0D6E76EC84
:1016680013F0120020EE06F01450D9261550DA2295
:10167800DF50166E1650066E076A000E096E040ECD
:10168800086E21EC10F006501B6E1B04D8B474D001
:101698001BC019F01A6A70D014C008F015C009F000
:1016A80038EC0EF097D014C008F015C009F01AEC09
:1016B80011F090D014C006F015C007F05BEC13F0E1
:1016C80089D014C006F015C007F0ABEC12F082D038
:1016D80014C006F015C007F0ACEC13F07BD014C0B2
:1016E80006F015C007F091EC13F074D014C011F097
:1016F80015C012F094EC0DF06DD014C00DF015C0AB
:101708000EF056EC12F066D014C006F015C007F0C3
:1017180012EC15F05FD014C006F015C007F0C8EC45
:1017280011F058D014C006F015C007F0F40E1B24B1
:10173800086E096AFF0E092213EC15F04BD014C08D
:1017480006F015C007F087EC0FF044D014C006F07F
:1017580015C007F0000E096E100E086E31EC06F089
:1017680039D014C006F015C007F0000E096E110E2E
:10177800086E31EC06F02ED01B50010AD8B48CD775
:10178800030AD8B490D7010AD8B494D7070AD8B4B2
:1017980098D7010AD8B49CD7030AD8B4A0D7010AAD
:1017A800D8B4A4D70E0AD8B4A8D7030AD8B4ACD7EB
:1017B800010AD8B4B0D7070AD8B4B4D7010AD8B444
:1017C800B1D7020AD8B4BBD71F0AD8B4BFD7010A09
:1017D800D8B4C7D720EE01F01450D9261550DA2214
:1017E800020EDE18D8A4120020EE02F01450D926FA
:1017F8001550DA22030EDF6E20EE01F01450D926C0
:101808001550DA22010EDF6E20EE04F01450D926AE
:101818001550DA22DE6ADE6ADE6ADD6A1B50040DC4
:1018280020EE06F01450D9261550DA22F3CFDFFF48
:1018380014C006F015C007F01BC008F0DEEC10F06D
:1018480014C00BF015C00CF032EC0CF004D00F01F2
:1018580040B98CEC14F060A61200F9D7830E776EAD
:1018680060A60AD0840E776E60A606D0850E776EC5
:1018780060A602D0F3D7FF0074B4FDD7000E0001B4
:10188800CD6F20EE04F00B50D9260C50DA22DF5031
:10189800646E20EE05F00B50D9260C50DA22DF508A
:1018A800636E20EE06F00B50D9260C50DA22DF507A
:1018B8000D6E030E0D1620EE06F00B50D9260C50B7
:1018C800DA22DF50FC0B080DF3500D10626E6286B1
:1018D80020EE06F00B50D9260C50DA22DECF0DF0A0
:1018E800DDCF0EF0050E0F6ED8900E320D320F2E92
:1018F800FBD70D50616E000E656E20EE01F00B50A7
:10190800D9260C50DA22020EDE18D8A402D0658C33
:101918005AD020EE10F00B50D9260C50DA22DF50A6
:101928000D6E0F0E0D1665500D18FE0B0D18656E19
:1019380020EE10F00B50D9260C50DA22DF500D6E35
:10194800D8900D32070E0D160D4665500D18FD0B7B
:101958000D18656E20EE10F00B50D9260C50DA22C7
:10196800DF500D6ED8900D32D8900D32030E0D1643
:101978000D460D4665500D18FB0B0D18656E20EED3
:1019880010F00B50D9260C50DA22DF500D6ED8908B
:101998000D32D8900D32D8900D32010E0D160D462D
:1019A8000D460D4665500D18F70B0D18656E660E41
:1019B800066E0F0E076E080E0B24086E000E0C2024
:1019C800096E30EC14F060860001CB8912000A6EB3
:1019D8000A50D8A450D006A003D08C50100902D0C9
:1019E8008C50EF0B8C6E06A203D08C50400902D0AD
:1019F8008C50BF0B8C6E06A403D08A50010902D00C
:101A08008A50FE0B8A6E06A603D08950020902D0BE
:101A18008950FD0B896E06A803D08950080902D0A9
:101A28008950F70B896E06AA03D08950200902D085
:101A38008950DF0B896E06AC03D08D50020902D0A5
:101A48008D50FD0B8D6E06AE03D08950800902D0F3
:101A580089507F0B896E07A003D08C50010902D0F2
:101A68008C50FE0B8C6E07A203D08C50040902D058
:101A78008C50FB0B8C6E0A04D8A4120006A003D06D
:101A88008C50200902D08C50DF0B8C6E06A203D03C
:101A98008C50800902D08C507F0B8C6E06A403D02A
:101AA8008A50020902D08A50FD0B8A6E06A603D01E
:101AB8008950040902D08950FB0B896E06A803D00F
:101AC8008950100902D08950EF0B896E06AA03D0FD
:101AD8008D50010902D08D50FE0B8D6E06AC03D0DF
:101AE8008D50040902D08D50FB0B8D6E06AE03D0CD
:101AF8008950400902D08950BF0B896E07A003D0D6
:101B08008C50020902D08C50FD0B8C6E07A204D0B9
:101B18008C5008098C6E12008C50F70B8C6E1200DA
:101B280020EE01F01150D9261250DA22020EDE18EA
:101B3800D8A457D020EE10F01150D9261250DA222E
:101B4800080EDF6E20EE08F01150D9261250DA2266
:101B5800D044E846030B010BDF6E20EE09F011506C
:101B6800D9261250DA220001C6A902D0010E01D0EE
:101B7800000EDF6E20EE0AF01150D9261250DA223C
:101B8800C6A102D0010E01D0000EDF6E20EE0BF0D0
:101B98001150D9261250DA22000EDF6E20EE0CF01A
:101BA8001150D9261250DA2236C0DFFF20EE0DF090
:101BB8001150D9261250DA2238C0DFFF20EE0EF07D
:101BC8001150D9261250DA223AC0DFFF20EE0FF06A
:101BD8001150D9261250DA223CC0DFFFD09CC6999A
:101BE800120020EE10F01150D9261250DA22010E00
:101BF800DF6E20EE0AF01150D9261250DA22DF509B
:101C0800D8B40FD00001C68120EE09F01150D926B2
:101C18001250DA22DF50D8B41ED0C6870FEC0AF073
:101C28001AD020EE09F01150D9261250DA22DF50CE
:101C3800D8B408D011C006F012C007F029EC12F091
:101C48000FEC0AF020EE08F01150D9261250DA22D3
:101C5800DF50D8A4FF0020EE08F01150D92612500A
:101C6800DA22FF0EDF6E120020EE01F00850D926AE
:101C78000950DA22020EDE18D8A447D020EE10F060
:101C88000850D9260950DA22060EDF6E20EE08F039
:101C98000850D9260950DA220FEC15F0DF6E20EE35
:101CA80009F00850D9260950DA22D7EC14F007C0F9
:101CB80006F0076A0650DF6E20EE0AF00850D926B3
:101CC8000950DA22D7EC14F00650DF6E20EE0BF044
:101CD8000850D9260950DA22BBEC14F00650DF6E02
:101CE80020EE0CF00850D9260950DA22DCEC14F06A
:101CF8000650DF6E20EE0DF00850D9260950DA2282
:101D080004EC15F00650DF6E120020EE04F00850C7
:101D1800D9260950DA22DECF06F0DDCF07F0CAEC6B
:101D28000EF006C00CF007C00DF020EE08F00850C9
:101D3800D9260950DA22DF50D8A40AD00C1C0A6E22
:101D48000D1C0B6E33500A14336E34500B1405D02F
:101D58000C503310336E0D503410346E3350341031
:101D6800D8B40AD00FEC15F0E806D8B412002D80CC
:101D7800010E08EC15F012000FEC15F0E806D8A4D7
:101D880012002D80000E08EC15F0120006504B18BA
:101D980009E107504C18D8A405D0000E076E010EB3
:101DA800066E12000650581809E107505918D8A4B1
:101DB80005D0000E076E020E066E12000650491876
:101DC80009E107504A18D8A405D0000E076E040E82
:101DD800066E12000650471809E107504818D8A4A3
:101DE80005D0000E076E080E066E12000650451844
:101DF80009E107504618D8A405D0000E076E100E4A
:101E0800066E12000650431809E107504418D8A47A
:101E180005D0000E076E200E066E120006504118FF
:101E280009E107504218D8A405D0000E076E400EED
:101E3800066E120006503F1809E107504018D8A452
:101E480005D0000E076E800E066E1200000E076E9B
:101E5800000E066E1200116E0DC014F00EC015F0C3
:101E6800000E136E000E126E0FC006F010C007F0C1
:101E7800000E096E0A0E086E82EC12F006C016F00B
:101E880007C017F01150D8B417D031D01250141021
:101E9800126E13501510136E14C006F015C007F01B
:101EA8001DEC13F006C014F007C015F0FF0E162441
:101EB800166EFF0E1720176E16501710D8B41BD0C9
:101EC800E5D712501410126E13501510136E14C06B
:101ED80006F015C007F0D2EC12F006C014F007C0E7
:101EE80015F0FF0E1624166EFF0E1720176E1650EB
:101EF8001710D8A4E6D712C006F013C007F0115087
:101F0800EBEC0CF0120020EE01F00650D926075039
:101F1800DA22020EDE18D8A421D020EE10F00650E6
:101F2800D9260750DA22030EDF6E20EE08F006509D
:101F3800D9260750DA22000EDF6E20EE09F006508F
:101F4800D9260750DA2240C0DFFF20EE0AF00650FB
:101F5800D9260750DA2242C0DFFF120020EE08F02F
:101F68000650D9260750DA22DF50086E08500A6E4C
:101F7800096A20EE09F00650D9260750DA22DF5008
:101F88000B6E0B500910406E0A50416E20EE0AF09D
:101F98000650D9260750DA22DF50086E0850426EE4
:101FA800436A1200000E0F01086F200E096F09879F
:101FB8004C500A6F4BC00BFF000E0C6F200E0D6FBC
:101FC8000D8759500E6F58C00FFF000E106F200E6E
:101FD800116F11874A50126F49C013FF000E146F1A
:101FE800200E156F15874850166F47C017FF000E53
:101FF8000D01606F200E616F61874650626F45C0AA
:1020080063FD000E646F200E656F65874450666F30
:1020180043C067FD000E686F200E696F69874250E4
:102028006A6F41C06BFD000E706F200E716F718773
:102038004050726F3FC073FD1200000E0B6E09AE68
:1020480006D0086C091ED8B0092A010E0B6E07AE1F
:1020580006D0066C071ED8B0072A010E0B1A000E10
:102068000D6E000E0C6E08500910D8B41CD0010E6D
:102078000A6E04D0D890083609360A2A09AEFAD76B
:10208800D8900C360D360850065C09500758D8A071
:1020980005D00850065E0950075A0C80D8900932BE
:1020A80008320A2EEDD70B50D8B404D00C6C0D1E94
:1020B800D8B00D2A0CC006F00DC007F01200000EB3
:1020C800066E000E076E200E086E000E096EA7EC55
:1020D80014F006C0D8F007C0D9F0010E066E000E45
:1020E800076E200E086E000E096EA7EC14F006C0ED
:1020F80007F0066A06500001D8130750D913D8C054
:102108002FF0D9C030F06BEC14F0D0680001CBB1DF
:10211800CB91FAEC14F006040710D8A408D0A1EC6F
:1021280010F0000E076E000E066EF5EC14F0F8ECD9
:1021380012F0D1EC14F00400E9D73E50D8A413D023
:10214800000E076E000E066E000EEBEC0CF04FC092
:102158000DF050C00EF053C00FF054C010F05550A1
:102168002FEC0FF012D0000E076E000E066E5550C1
:10217800EBEC0CF051C00DF052C00EF053C00FF054
:1021880054C010F0000E2FEC0FF051C006F052C0F2
:1021980007F0D2EC12F006C051F007C052F04FC061
:1021A80006F050C007F01DEC13F006C04FF007C052
:1021B80050F0120020EE02F00650D9260750DA221D
:1021C800030EDF6E20EE01F00650D9260750DA2202
:1021D800010EDF6E0850096E0A6AD89009360A3671
:1021E800D89009360A3620EE06F00650D926075050
:1021F800DA2209C0DEFF0AC0DDFF20EE04F0065037
:10220800D9260750DA222FC0DEFF30C0DDFF20EECE
:1022180006F00650D9260750DA22DF9020EE06F0A5
:102228000650D9260750DA22DF92120020EE01F07C
:102238000850D9260950DA22020EDE18D8A4120056
:1022480020EE10F00850D9260950DA22040EDF6E6D
:1022580020EE08F00850D9260950DA22EBEC14F0E9
:102268000650DF6E20EE09F00850D9260950DA2210
:10227800E6EC14F00650DF6E20EE0AF00850D9267E
:102288000950DA22E1EC14F00650DF6E20EE0BF074
:102298000850D9260950DA22F0EC14F00650DF6E07
:1022A8001200500E0D01F06F550EF16F550EF26FC2
:1022B800550EF36F000E0F01186F0B0E196F1A6988
:1022C8001B691C691D691E691F69000E186F000EC5
:1022D800196F000E006F010E016F01873050026FF9
:1022E8002FC003FF000E046F010E056F05877F0ED8
:1022F800066F0769D6EC0FF0000E0D01E06F110EA6
:10230800E16F110EE26F110EE36F110EE46FD469E5
:10231800030ED56F1200220EF66E2A0EF76E000E0F
:10232800F86E0900F5CFD6F00900F5CFD7F0940E76
:10233800F66E290EF76E000EF86E00EE4DF010EEF8
:102348000DF00900F5CFEEFFE550E150FAE100EE9F
:10235800DAF012EE20F0EE6AE550E150FCE1E250CE
:10236800FAE100EE60F0760EEE6AE806FDE100EEB6
:102378002DF0200EEE6AE806FDE15A905A92000E02
:10238800F86E000163EF10F020EE01F00650D92638
:102398000750DA22020EDE18D8A4120020EE10F040
:1023A8000650D9260750DA22040EDF6E20EE08F018
:1023B8000650D9260750DA220550DF6E20EE09F0C4
:1023C8000650D9260750DA2204C0DFFF20EE0AF0B3
:1023D8000650D9260750DA220B50DF6E20EE0BF09C
:1023E8000650D9260750DA220AC0DFFF1200800EF5
:1023F8006F6E6E50E00B800AD8A4FBD7000E0D015B
:10240800F86F000E0F01406F000E606E000E506FE7
:10241800000E0E01206F000E306F000EA36EA5682F
:10242800000EA46E000E0D01FA6F900E776E45EC4B
:1024380014F055EC11F07368000E6F6E6ECF06F055
:10244800E00E0616D8B41200F9D720EE0CF00650AC
:10245800D9260750DA22DF50086E0850366E376AE0
:1024680020EE0DF00650D9260750DA22DF50086E0C
:102478000850386E396A20EE0EF00650D9260750FB
:10248800DA22DF50086E08503A6E3B6A20EE0FF0F1
:102498000650D9260750DA22DF50086E08503C6EE5
:1024A8003D6A120020EE01F00D50D9260E50DA22B6
:1024B800020EDE18D8A413D020EE08F00D50D9264D
:1024C8000E50DA220CC006F00DC007F0000E096E9F
:1024D8000A0E086E82EC12F00650DF6E120020EE33
:1024E80008F00D50D9260E50DA22DF500F6E0F502B
:1024F8000A0DF3CF0CF0F4CF0DF01200000E0C6EA5
:10250800000E0B6E08500910D8B41CD0010E0A6ECC
:1025180004D0D890083609360A2A09AEFAD7D890D6
:102528000B360C360850065C09500758D8A005D061
:102538000850065E0950075A0B80D89009320832B5
:102548000A2EEDD70BC006F00CC007F0120020EEE3
:1025580001F00650D9260750DA22020EDE18D8A458
:10256800120020EE10F00650D9260750DA22010E8C
:10257800DF6E000E0A6E000E096E094A0A2A0A501A
:1025880004E1030E095CD8A0F8D720EE08F0065045
:10259800D9260750DA22FF0EDF6E120006A018D0E7
:1025A800FE0E06140A6E030E07140B6ED8900B303D
:1025B800086E0A300A6E08C00BF0000E0A100A6E88
:1025C800020E0B100B6E0AC006F00BC007F01200CB
:1025D800D8900730086E0630066E08C007F006C0AF
:1025E80006F007C007F012002DA013D0020E1D6ED2
:1025F800000E206E000E216E000E226E000E236E5D
:10260800040E226E1C0E146E000E156E36EC0BF0C6
:102618002D901C0E0E6E000E0F6EE6EC08F00009F1
:10262800D8B412001C0E146E000E156E36EC0BF0AA
:10263800120007A215D0FF0E0614086E010E07142B
:10264800096ED8900834086E0934096E010E081016
:10265800086E0950096E08C006F009C007F012009C
:10266800D8900634066E0734076E06C006F007C019
:1026780007F01200010E0E6E000E326E000E316E63
:10268800000E076E030E066ED40E086E000E096E5D
:10269800C7EC13F00E16000E076E100E066ED20E63
:1026A800086E000E096EC7EC13F00E16120020EE2D
:1026B80001F00650D9260750DA22020EDE18D8A4F7
:1026C800120020EE10F00650D9260750DA22010E2B
:1026D800DF6E20EE08F00650D9260750DA22FF0EEA
:1026E800DF6E120015D0A6B2FED70BC006F00CC0E4
:1026F80007F009C0D9FF0AC0DAFFDF50086EE2EC24
:1027080013F00B4A0C2A0D06D8A00E06094A0A2A0D
:102718000D500E10D8B41200E6D720EE01F0065086
:10272800D9260750DA22020EDE18D8A4120020EEAD
:1027380010F00650D9260750DA22010EDF6E20EE7F
:1027480008F00650D9260750DA22FF0EDF6E120075
:1027580020EE01F00650D9260750DA22020EDE18C4
:10276800D8A4120020EE10F00650D9260750DA221D
:10277800010EDF6E20EE08F00650D9260750DA2247
:10278800FF0EDF6E1200065031240A6E0750322009
:102798000B6E0A04040E0B58D8A002D0000E1200CB
:1027A80008C0D9FF09C0DAFF31C0DEFF32C0DDFF43
:1027B8000650312607503222010E12000750AA6E29
:1027C80006C0A9FF08C0A8FFA684000EF2BE010E2D
:1027D800396EF29E550EA76EAA0EA76EA68239B064
:1027E80002D0F29E01D0F28EA694A6B2FED71200B5
:1027F80014D0A6B2FED70AC006F00BC007F0B2ECA0
:1028080014F008C0D9FF09C0DAFFDF6E0A4A0B2AA4
:10281800084A092A0C06D8A00D060C500D10D8B489
:102828001200E7D79250010B926E9350FC0B936EF7
:102838009650F80B966E000E956E000E076E000E01
:10284800066E000EEBEC0CF0000E076E000E066E26
:10285800010EEBEC0CF01200000E0A6E0A50082470
:10286800D96E000E0920DA6E0A500624E16E000EB9
:102878000720E26EDFCFE7FF0A2A070E0A64EED7C9
:10288800120070807082709470967098709A708C34
:10289800708E71867188718A71847192719072805C
:1028A80072927284718C718E1200000E016E000E8D
:1028B800026ECECF01F0CFCF02F000F09E0E0226BE
:1028C800570E012602C0CFFF5B0ECE6E1200D180DC
:1028D8003EEC13F097EC07F004007CEC14F0FBECF2
:1028E80011F0C3EC14F09BEC14F016EC14F0120089
:1028F800000E896E000E8A6E000E8B6E0C0E926EA4
:10290800880E936EBF0E946ED08E0001CB87120096
:10291800020E076EAA0E066E000EEBEC0CF0000E0F
:10292800076E000E066E010EEBEC0CF01200D38C55
:10293800D38AD3883D0ECD6E9E0ECF6E570ECE6EC7
:102948009D80CD80120006C0F6FF07C0F7FF08C0C3
:10295800F8FF0800F5CF06F0076A12000750AA6EC4
:1029680006C0A9FFA680A69EA69CA850120000013A
:10297800D651066ED751076ED64BD72B1200F28E62
:10298800F28CD08ED08EF28C9F901200FFFF010047
:092998000100140001FFFF2A01F7
:1029A2000001C6A11200C693C6911200020E076E64
:1029B200200E066E1200000E076E1B0E066E12002F
:1029C200000E076EFE0E066E1200000E076EFE0E61
:1029D200066E1200000E076EFE0E066E1200000E4C
:1029E200076E000E066E120006C037F007C038F000
:1029F200120037C006F038C007F0120001C037F0ED
:102A020002C038F01200000E076E06681200066E51
:102A120006C03EF0120006005A9211003E5012000B
:062A220011001200120079
:020000040020DA
:08000000FFFFFFFFFFFFFFFF00
:020000040030CA
:0E000000FF081F1EFF8281FF0FC00FE00F40A0
:00000001FF
