:020000040000FA
:040000002FEF00F0EE
:060008004B8243ED0CF0F9
:100018004B80D8CF03F0E8CF04F0E0CF05F09EA0E6
:1000280012D0A2EC0BF0000E026E010E016E31EC44
:100038000CF00001CB813F2A140E3F6403D0000E60
:100048003F6E25809E9005C0E0FF04C0E8FF03C016
:10005800D8FF4B901000B3EF09F0F00E0824186E8B
:10006800FF0E0920196E20EE01F00650D926075020
:10007800DA22020EDE18D8A48ED020EE10F0065038
:10008800D9260750DA22080EDF6E18501910D8A4A6
:1000980041D020EE08F00650D9260750DA22385011
:1000A800DF6E20EE09F00650D9260750DA2237C055
:1000B800DFFF20EE0AF00650D9260750DA22365024
:1000C800DF6E20EE0BF00650D9260750DA2235C035
:1000D800DFFF20EE0CF00650D9260750DA22345004
:1000E800DF6E20EE0DF00650D9260750DA2233C015
:1000F800DFFF20EE0EF00650D9260750DA223250E4
:10010800DF6E20EE0FF00650D9260750DA2231C0F4
:10011800DFFF120020EE08F00650D9260750DA2239
:100128003050DF6E20EE09F00650D9260750DA224B
:100138002FC0DFFF20EE0AF00650D9260750DA223A
:100148002E50DF6E20EE0BF00650D9260750DA222B
:100158002DC0DFFF20EE0CF00650D9260750DA221A
:100168002C50DF6E20EE0DF00650D9260750DA220B
:100178002BC0DFFF20EE0EF00650D9260750DA22FA
:100188002A50DF6E20EE0FF00650D9260750DA22EB
:1001980029C0DFFF120018501910D8A4C1D020EED2
:1001A80008F00650D9260750DA22DF500A6E0A50A6
:1001B8000C6E0B6A20EE09F00650D9260750DA2299
:1001C800DF500D6E0D500B10376E0C50386E20EE50
:1001D8000AF00650D9260750DA22DF500A6E0A5074
:1001E8000C6E0B6A20EE0BF00650D9260750DA2267
:1001F800DF500D6E0D500B10356E0C50366E20EE24
:100208000CF00650D9260750DA22DF500A6E0A5041
:100218000C6E0B6A20EE0DF00650D9260750DA2234
:10022800DF500D6E0D500B10336E0C50346E20EEF7
:100238000EF00650D9260750DA22DF500A6E0A500F
:100248000C6E0B6A20EE0FF00650D9260750DA2202
:10025800DF500D6E0D500B10316E0C50326E000ECB
:100268001B6E000E1A6E1AC00AF01BC00BF0D89055
:100278000A360B3606C00CF007C00DF00A500C26E3
:100288000B500D22080E0C24D96E000E0D20DA6ECC
:10029800DF500E6E0E50106E0F6A1AC011F01BC0A0
:1002A80012F0D8901136123606C013F007C014F0B9
:1002B8001150132612501422090E1324D96E000E61
:1002C8001420DA6EDF50156E15500F12000E101242
:1002D80018C016F019C017F0D89016361736D890EF
:1002E800163617361A5016261B501722D89016366F
:1002F8001736D890163617360E0E1624D96E000EFD
:100308001720DA6E0FC0DEFF10C0DDFF1A4A1B2A65
:100318001B5005E1040E1A5CD8B01200A4D71200D5
:1003280020EE08F00650D9260750DA22DF500A6E70
:100338000A500C6E0B6A20EE09F00650D9260750B9
:10034800DA22DF500D6E0D500B102F6E0C50306EF0
:1003580020EE0AF00650D9260750DA22DF500A6E3E
:100368000A500C6E0B6A20EE0BF00650D926075087
:10037800DA22DF500D6E0D500B102D6E0C502E6EC4
:1003880020EE0CF00650D9260750DA22DF500A6E0C
:100398000A500C6E0B6A20EE0DF00650D926075055
:1003A800DA22DF500D6E0D500B102B6E0C502C6E98
:1003B80020EE0EF00650D9260750DA22DF500A6EDA
:1003C8000A500C6E0B6A20EE0FF00650D926075023
:1003D800DA22DF500D6E0D500B10296E0C502A6E6C
:1003E800000E1B6E000E1A6E1AC00AF01BC00BF02E
:1003F800D8900A360B3606C00CF007C00DF00A502C
:100408000C260B500D22080E0C24D96E000E0D2060
:10041800DA6EDF500E6E0E50106E0F6A1AC011F0B1
:100428001BC012F0D8901136123606C013F007C060
:1004380014F01150132612501422090E1324D96EE9
:10044800000E1420DA6EDF50156E15500F12000ED4
:10045800101218C016F019C017F0D89016361736B3
:10046800D890163617361A5016261B501722D890D1
:1004780016361736D890163617360E0E1624D96E3D
:10048800000E1720DA6E0FC0DEFF10C0DDFF1A4A1B
:100498001B2A1B5005E1040E1A5CD8B01200A4D721
:1004A80012006F500F0B136E13509009776E18D00F
:1004B80060CF12F035D050CF12F032D020CE12F0EB
:1004C8002FD030CE12F02CD040CE12F029D050CE02
:1004D80012F026D060CE12F023D070CE12F020D0C9
:1004E8001350106E116A1150000AD8A419D0105078
:1004F800000AD8B4DDD7010AD8B4DDD7030AD8B4C6
:10050800DDD7010AD8B4DDD7070AD8B4DDD7010A88
:10051800D8B4DDD7030AD8B4DDD7010AD8B4DDD7FB
:1005280012AEA5D020EE03F00E50D9260F50DA22D5
:1005380060501F0BDF6E20EE04F00E50D9260F50CE
:10054800DA2264CFDFFF20EE05F00E50D9260F50D7
:10055800DA2263CFDFFF20EE06F00E50D9260F50C7
:10056800DA2262CF10F0030E101662CF06F0076A87
:10057800000E096E080E086E5CEC08F006501010AC
:10058800DF6E6150106E116A050ED8901036113664
:10059800E82EFBD720EE06F00E50D9260F50DA22AF
:1005A8001050DE121150DD1220EE02F00E50D92646
:1005B8000F50DA22030EDF6E65BC68D020EE01F022
:1005C8000E50D9260F50DA22010EDF6E20EE10F001
:1005D8000E50D9260F50DA2265500F0BDF6E20EE31
:1005E80010F00E50D9260F50DA22080EDF6441D0E1
:1005F8001ED0000E606E3BD0000E0F010ED0000E14
:100608000E01206F34D0000E0E01306F30D0000E76
:100618000E01406F2CD0000E0E01506F28D0000E36
:100628000E01606F24D0000E0E01706F20D01350A1
:10063800106E116A1150000AD8A419D01050000A7F
:10064800D8B4D7D7010AD8B4D7D7030AD8B4D7D7DC
:10065800010AD8B4D8D7070AD8B4D9D7010AD8B468
:10066800DAD7030AD8B4DBD7010AD8B4DCD7000E2E
:100678001200080E0E24066E000E0F20076E660E7E
:10068800086E0F0E096E79EC0BF027D020EE01F002
:100698000E50D9260F50DA22020EDF6E1ED0000E41
:1006A800606E3BD0000E0F010ED0000E0E01206FC1
:1006B80034D0000E0E01306F30D0000E0E01406FA6
:1006C8002CD0000E0E01506F28D0000E0E01606F66
:1006D80024D0000E0E01706F20D01350106E116AD6
:1006E8001150000AD8A419D01050000AD8B4D7D78E
:1006F800010AD8B4D7D7030AD8B4D7D7010AD8B4CF
:10070800D8D7070AD8B4D9D7010AD8B4DAD7030A90
:10071800D8B4DBD7010AD8B4DCD7010E120020EE1A
:1007280006F01C50D9261D50DA22DF501E6E1E50CE
:10073800066E076A000E096E040E086E5CEC08F07F
:100748000650246E2404D8B474D024C022F0236A3E
:1007580070D01CC00BF01DC00CF098EC06F09ED0B9
:100768001CC008F01DC009F017EC09F097D01CC098
:1007780006F01DC007F0F6EC0AF090D01CC006F099
:100788001DC007F062EC0AF089D01CC006F01DC03D
:1007980007F02CEC0BF082D01CC006F01DC007F04F
:1007A80011EC0BF07BD01CC009F01DC00AF0F8EC6E
:1007B80005F074D01CC00DF01DC00EF00DEC0AF051
:1007C8006DD01CC006F01DC007F048EC0CF066D0D8
:1007D8001CC006F01DC007F052EC09F05FD01CC029
:1007E80006F01DC007F0F40E2424086E096AFF0EF7
:1007F800092249EC0CF052D01CC006F01DC007F0CD
:100808007DEC07F04BD01CC006F01DC007F0000EB1
:10081800096E100E086E31EC00F040D01CC006F0D6
:100828001DC007F0000E096E110E086E31EC00F0C5
:1008380035D024501E6E1F6A1F50000AD8A42ED02F
:100848001E50010AD8B485D7030AD8B489D7010A3B
:10085800D8B48DD7070AD8B491D7010AD8B495D798
:10086800030AD8B499D7010AD8B49DD70E0AD8B4C8
:10087800A1D7030AD8B4A5D7010AD8B4A9D7070ABB
:10088800D8B4ADD7010AD8B4AAD7020AD8B4B4D715
:100898001F0AD8B4B8D7010AD8B4C0D720EE01F0DF
:1008A8001C50D9261D50DA22020EDE18D8A41200D8
:1008B80020EE02F01C50D9261D50DA22030EDF6EFE
:1008C80020EE01F01C50D9261D50DA22010EDF6EF1
:1008D80020EE04F01C50D9261D50DA22DE6ADE6AAA
:1008E800DE6ADD6A2450040D20EE06F01C50D9267D
:1008F8001D50DA22F3CFDFFF1CC006F01DC007F041
:1009080024C008F0CCEC07F01CC00BF01DC00CF0A4
:1009180096EC04F004D00F0140B9C4EC0BF060A6CB
:100928001200F9D7830E776E60A60AD0840E776E10
:1009380060A606D0850E776E60A602D0F3D7FF00BA
:1009480074B4FDD7000E0001CD6F20EE04F00B50FB
:10095800D9260C50DA22DF50646E20EE05F00B50D9
:10096800D9260C50DA22DF50636E20EE06F00B50C9
:10097800D9260C50DA22DF500D6E030E0D1620EE2C
:1009880006F00B50D9260C50DA22DF50FC0B080D6C
:10099800F3500D10626E628620EE06F00B50D926D9
:1009A8000C50DA22DECF0DF0DDCF0EF0050E0F6E03
:1009B800D8900E320D320F2EFBD70D50616E000EFF
:1009C800656E20EE01F00B50D9260C50DA22020E8B
:1009D800DE18D8A402D0658C5AD020EE10F00B5047
:1009E800D9260C50DA22DF500D6E0F0E0D16655009
:1009F8000D18FE0B0D18656E20EE10F00B50D92661
:100A08000C50DA22DF500D6ED8900D32070E0D16FD
:100A18000D4665500D18FD0B0D18656E20EE10F093
:100A28000B50D9260C50DA22DF500D6ED8900D32BB
:100A3800D8900D32030E0D160D460D4665500D1853
:100A4800FB0B0D18656E20EE10F00B50D9260C50DC
:100A5800DA22DF500D6ED8900D32D8900D32D89032
:100A68000D32010E0D160D460D460D4665500D183A
:100A7800F70B0D18656E660E066E0F0E076E080EE4
:100A88000B24086E000E0C20096E79EC0BF06086C2
:100A98000001CB8912000A6E0A50D8A450D006A0D3
:100AA80003D08C50100902D08C50EF0B8C6E06A22C
:100AB80003D08C50400902D08C50BF0B8C6E06A41A
:100AC80003D08A50010902D08A50FE0B8A6E06A60E
:100AD80003D08950020902D08950FD0B896E06A8FF
:100AE80003D08950080902D08950F70B896E06AAED
:100AF80003D08950200902D08950DF0B896E06ACDB
:100B080003D08D50020902D08D50FD0B8D6E06AEBC
:100B180003D08950800902D089507F0B896E07A0C5
:100B280003D08C50010902D08C50FE0B8C6E07A2AA
:100B380003D08C50040902D08C50FB0B8C6E0A0435
:100B4800D8A4120006A003D08C50200902D08C50E3
:100B5800DF0B8C6E06A203D08C50800902D08C501B
:100B68007F0B8C6E06A403D08A50020902D08A50EB
:100B7800FD0B8A6E06A603D08950040902D089505D
:100B8800FB0B896E06A803D08950100902D0895042
:100B9800EF0B896E06AA03D08D50010902D08D5043
:100BA800FE0B8D6E06AC03D08D50040902D08D501B
:100BB800FB0B8D6E06AE03D08950400902D08950D8
:100BC800BF0B896E07A003D08C50020902D08C504D
:100BD800FD0B8C6E07A204D08C5008098C6E120095
:100BE8008C50F70B8C6E120020EE01F00950D926BC
:100BF8000A50DA22020EDE18D8A457D020EE10F0E0
:100C08000950D9260A50DA22010EDF6E20EE08F0CC
:100C18000950D9260A50DA22D044E846030B010BC2
:100C2800DF6E20EE09F00950D9260A50DA220001B9
:100C3800C6A902D0010E01D0000EDF6E20EE0AF028
:100C48000950D9260A50DA22C6A102D0010E01D0D5
:100C5800000EDF6E20EE0BF00950D9260A50DA227A
:100C6800000EDF6E20EE0CF00950D9260A50DA2269
:100C78002EC0DFFF20EE0DF00950D9260A50DA22E7
:100C880030C0DFFF20EE0EF00950D9260A50DA22D4
:100C980032C0DFFF20EE0FF00950D9260A50DA22C1
:100CA80034C0DFFFD09CC699120020EE10F0095026
:100CB800D9260A50DA22010EDF6E20EE0AF009501A
:100CC800D9260A50DA22DF50D8B40DD00001C681E7
:100CD80020EE09F00950D9260A50DA22DF50D8B49C
:100CE8001AD0C68718D020EE09F00950D9260A5024
:100CF800DA22DF50D8B406D009C006F00AC007F0DF
:100D0800E0EC09F020EE08F00950D9260A50DA2262
:100D1800DF50D8A4FF0020EE08F00950D9260A5069
:100D2800DA22FF0EDF6E120020EE01F00B50D926FA
:100D38000C50DA22020EDE18D8A447D020EE10F0AC
:100D48000B50D9260C50DA22060EDF6E20EE08F082
:100D58000B50D9260C50DA2246EC0CF0DF6E20EE50
:100D680009F00B50D9260C50DA2209EC0CF007C018
:100D780006F0076A0650DF6E20EE0AF00B50D926FF
:100D88000C50DA2209EC0CF00650DF6E20EE0BF066
:100D98000B50D9260C50DA22FBEC0BF00650DF6E14
:100DA80020EE0CF00B50D9260C50DA220EEC0CF089
:100DB8000650DF6E20EE0DF00B50D9260C50DA22CB
:100DC8003BEC0CF00650DF6E1200000E076E0C0EA6
:100DD800066EDBEC08F00009D8B40FD0000E106ED8
:100DE800000E0F6ED3EC0BF00F4A102A900E0F5C1A
:100DF800010E1058D8B00FD0F5D7000E106E000EA7
:100E08000F6EC4EC0BF00F4A102A900E0F5C010E07
:100E18001058D8A0F6D720EE04F00B50D9260C5065
:100E2800DA222B0EDE180CE1DE04D8A4120020EE24
:100E380008F00B50D9260C50DA22DF503FEC0CF0AA
:100E48001200116E0DC014F00EC015F0000E136ED6
:100E5800000E126E0FC006F010C007F0000E096EEB
:100E68000A0E086E39EC0AF006C016F007C017F033
:100E78001150D8B417D031D012501410126E13502C
:100E88001510136E14C006F015C007F0D5EC0AF063
:100E980006C014F007C015F0FF0E1624166EFF0EDC
:100EA8001720176E16501710D8B41BD0E5D712505C
:100EB8001410126E13501510136E14C006F015C0DE
:100EC80007F0AFEC0AF006C014F007C015F0FF0EEB
:100ED8001624166EFF0E1720176E16501710D8A47A
:100EE800E6D712C006F013C007F011504FEC05F01A
:100EF800120020EE01F00650D9260750DA22020E21
:100F0800DE18D8A421D020EE10F00650D9260750BC
:100F1800DA22030EDF6E20EE08F00650D9260750BD
:100F2800DA22000EDF6E20EE09F00650D9260750AF
:100F3800DA2238C0DFFF20EE0AF00650D926075023
:100F4800DA223AC0DFFF120020EE08F00650D92658
:100F58000750DA22DF50086E08500A6E096A20EE40
:100F680009F00650D9260750DA22DF500B6E0B50D5
:100F78000910386E0A50396E20EE0AF00650D9264C
:100F88000750DA22DF50086E08503A6E3B6A1200AA
:100F980020EE02F00650D9260750DA22030EDF6E43
:100FA80020EE01F00650D9260750DA22010EDF6E36
:100FB8000850096E0A6AD89009360A36D890093658
:100FC8000A3620EE06F00650D9260750DA2209C064
:100FD800DEFF0AC0DDFF2C0E096E010E0A6E20EE40
:100FE80027F0DECF0BF0DDCF0CF009500B260A50AE
:100FF8000C2220EE04F00650D9260750DA220BC046
:10100800DEFF0CC0DDFF20EE06F00650D9260750A3
:10101800DA22DF9020EE06F00650D9260750DA22B1
:10102800DF921200500E0D01F06F550EF16F550E44
:10103800F26F550EF36F000E0F01186F0B0E196F3C
:101048001A691B691C691D69000E1E6F000E1F6F4F
:10105800000E186F000E196F000E1A6F000E1B6F2E
:10106800000E006F010E016F01872850026F028D7C
:1010780027C003FF000E046F010E056F05877F0E62
:10108800066F0769000E086F200E096F0987000EAA
:101098000A6F000E0B6F000E0C6F000E0D6F000E26
:1010A8000E6F0E51000E0F6F0F0E0D01D46F120050
:1010B800000E0B6E09AE06D0086C091ED8B0092ABE
:1010C800010E0B6E07AE06D0066C071ED8B0072AB5
:1010D800010E0B1A000E0D6E000E0C6E0850091052
:1010E800D8B41CD0010E0A6E04D0D8900836093640
:1010F8000A2A09AEFAD7D8900C360D360850065C85
:1011080009500758D8A005D00850065E0950075A5C
:101118000C80D890093208320A2EEDD70B50D8B47B
:1011280004D00C6C0D1ED8B00D2A0CC006F00DC0F2
:1011380007F012004150D8A413D0000E076E000E1D
:10114800066E000E4FEC05F044C00DF045C00EF0E1
:1011580048C00FF049C010F04A5025EC07F012D0F3
:10116800000E076E000E066E4A504FEC05F046C0A2
:101178000DF047C00EF048C00FF049C010F0000E47
:1011880025EC07F046C006F047C007F0AFEC0AF0C0
:1011980006C046F007C047F044C006F045C007F057
:1011A800D5EC0AF006C044F007C045F0120006501E
:1011B800371806E107503818D8A402D0010E1200DB
:1011C8000650351804E107503618D8B4F7D706503A
:1011D800331804E107503418D8B4F0D70650311842
:1011E80004E107503218D8B4E9D706502F1804E1A3
:1011F80007503018D8B4E2D706502D1804E107502C
:101208002E18D8B4DBD706502B1804E107502C1839
:10121800D8B4D4D70650291804E107502A18D8B4EE
:10122800CDD7000E120020EE01F00850D926095043
:10123800DA22020EDE18D8A4120020EE10F00850B0
:10124800D9260950DA22040EDF6E20EE08F0085085
:10125800D9260950DA221DEC0CF00650DF6E20EE7C
:1012680009F00850D9260950DA2218EC0CF006507B
:10127800DF6E20EE0AF00850D9260950DA2213EC66
:101288000CF00650DF6E20EE0BF00850D9260950FE
:10129800DA2222EC0CF00650DF6E120020EE01F08C
:1012A8000650D9260750DA22020EDE18D8A41200FA
:1012B80020EE10F00650D9260750DA22040EDF6E11
:1012C80020EE08F00650D9260750DA220550DF6EC6
:1012D80020EE09F00650D9260750DA2204C0DFFFB5
:1012E80020EE0AF00650D9260750DA220B50DF6E9E
:1012F80020EE0BF00650D9260750DA220AC0DFFF8D
:101308001200800E6F6E6E50E00B800AD8A4FBD7D7
:10131800000E0D01F86F000E0F01406F000E606E99
:10132800000E506F000E0E01206F000E306F000E81
:10133800A36EA568000EA46E000E0D01FA6F900E44
:10134800776E8EEC0BF016EC08F07368000E6F6E7B
:101358006ECF06F0E00E0616D8B41200F9D76C0E60
:10136800F66E180EF76E000EF86E00EE42F010EEF4
:1013780009F00900F5CFEEFFE550E150FAE100EE83
:10138800DFF012EE20F0EE6AE550E150FCE1E250A9
:10139800FAE100EE60F06E0EEE6AE806FDE100EE9E
:1013A80025F01D0EEE6AE806FDE14B904B92000E0B
:1013B800F86E000161EF0BF020EE0CF00650D92614
:1013C8000750DA22DF50086E08502E6E2F6A20EE82
:1013D8000DF00650D9260750DA22DF50086E085063
:1013E800306E316A20EE0EF00650D9260750DA2208
:1013F800DF50086E0850326E336A20EE0FF0065048
:10140800D9260750DA22DF50086E0850346E356A44
:10141800120020EE01F00D50D9260E50DA22020EED
:10142800DE18D8A413D020EE08F00D50D9260E509F
:10143800DA220CC006F00DC007F0000E096E0A0E85
:10144800086E39EC0AF00650DF6E120020EE08F044
:101458000D50D9260E50DA22DF500F6E0F500A0DAC
:10146800F3CF0CF0F4CF0DF01200000E0C6E000E4E
:101478000B6E08500910D8B41CD0010E0A6E04D0A7
:10148800D890083609360A2A09AEFAD7D8900B360A
:101498000C360850065C09500758D8A005D00850EB
:1014A800065E0950075A0B80D890093208320A2E76
:1014B800EDD70BC006F00CC007F0120020EE01F0CB
:1014C8000650D9260750DA22020EDE18D8A41200D8
:1014D80020EE10F00650D9260750DA22010EDF6EF2
:1014E800000E0A6E000E096E094A0A2A0A5004E123
:1014F800030E095CD8A0F8D720EE08F00650D926CC
:101508000750DA22FF0EDF6E120025A014D0020E5B
:101518000001CF6F000ED26F000ED36F000ED46F94
:10152800000ED56F040ED46FCE0E1C6E000E1D6E0D
:1015380093EC03F02590CE0E0E6E000E0F6E55EC58
:1015480002F00009D8B41200CE0E1C6E000E1D6EFB
:1015580093EC03F0120006A018D0FE0E06140A6ED3
:10156800030E07140B6ED8900B30086E0A300A6E03
:1015780008C00BF0000E0A100A6E020E0B100B6E5C
:101588000AC006F00BC007F01200D8900730086EAA
:101598000630066E08C007F006C006F007C007F060
:1015A800120007A215D0FF0E0614086E010E0714CC
:1015B800096ED8900834086E0934096E010E0810B7
:1015C800086E0950096E08C006F009C007F012003D
:1015D800D8900634066E0734076E06C006F007C0BA
:1015E80007F0120020EE01F00650D9260750DA2243
:1015F800020EDE18D8A4120020EE10F00650D926EC
:101608000750DA22010EDF6E20EE08F00650D926C8
:101618000750DA22FF0EDF6E120020EE01F00650AE
:10162800D9260750DA22020EDE18D8A4120020EEBE
:1016380010F00650D9260750DA22010EDF6E20EE90
:1016480008F00650D9260750DA22FF0EDF6E120086
:1016580020EE01F00650D9260750DA22020EDE18D5
:10166800D8A4120020EE10F00650D9260750DA222E
:10167800010EDF6E20EE08F00650D9260750DA2258
:10168800FF0EDF6E12009250010B926E9350FC0B0E
:10169800936E9650F80B966E000E956E000E076EC0
:1016A800000E066E000E4FEC05F0000E076E000EE1
:1016B800066E010E4FEC05F01200E2EC0BF0D0685C
:1016C8000001CBB1CB912CEC0CF006040710D8A488
:1016D80008D09EEC08F0000E076E000E066E27EC90
:1016E8000CF089EC0AF00400EBD7000E0A6E0A50E1
:1016F8000824D96E000E0920DA6E0A500624E16E1D
:10170800000E0720E26EDFCFE7FF0A2A070E0A6401
:10171800EED7120070807082709470967098709AEC
:10172800708C708E71867188718A718471927190D3
:10173800728072927284718C718E1200000E016E2A
:10174800000E026ECECF01F0CFCF02F000F09E0E59
:101758000226570E012602C0CFFF5B0ECE6E120086
:10176800000E896E000E8A6E000E8B6E0C0E926E45
:10177800880E936EBF0E946ED08E0001CB87120038
:10178800020E076EAA0E066E000E4FEC05F0000E54
:10179800076E000E066E010E4FEC05F01200000EEB
:1017A800076E000E066E000E4FEC05F0020E076E77
:1017B800AA0E066E010E4FEC05F01200D18004004F
:1017C800B4EC0BF085EC09F002EC0CF0EFEC0BF04C
:1017D80047EC0BF01200D38CD38AD3883D0ECD6E24
:1017E8009E0ECF6E570ECE6E9D80CD801200425059
:1017F800066E4350076E424A432A1200F28EF28C5C
:10180800D08ED08EF28C9F901200020E076E200EA2
:10181800066E1200000E076E1B0E066E1200000EFA
:10182800076EFE0E066E1200000E076EFE0E066EA6
:101838001200000E076EFE0E066E1200000E076EF6
:10184800000E066E120006C039F007C03AF012000A
:1018580039C006F03AC007F0120001C039F002C0E2
:0D1868003AF012001100010001001400010F
:10187600000E076E06681200066E06C041F01200E2
:0E18860006004B921100415012001200120099
:020000040020DA
:08000000FFFFFFFFFFFFFFFF00
:020000040030CA
:0E000000FF081F1EFF8281FF0FC00FE00F40A0
:00000001FF
