:020000040000FA
:040000002EEF00F0EF
:06000800598270ED0AF0C0
:100018005980D8CF03F0E8CF04F0E0CF05F09EA0D8
:1000280011D0D0EC09F0000E026E010E016E5EECEC
:100038000AF044804D2A140E4D6403D0000E4D6E14
:1000480040809E9005C0E0FF04C0E8FF03C0D8FFD1
:1000580059901000F5EF07F06F500F0B136E135007
:100068009009776E18D060CF12F035D050CF12F0CB
:1000780032D020CE12F02FD030CE12F02CD040CE7D
:1000880012F029D050CE12F026D060CE12F023D034
:1000980070CE12F020D01350106E116A1150000A61
:1000A800D8A419D01050000AD8B4DDD7010AD8B4A2
:1000B800DDD7030AD8B4DDD7010AD8B4DDD7070ADB
:1000C800D8B4DDD7010AD8B4DDD7030AD8B4DDD750
:1000D800010AD8B4DDD712AEA5D020EE03F00E5039
:1000E800D9260F50DA2260501F0BDF6E20EE04F085
:1000F8000E50D9260F50DA2264CFDFFF20EE05F02C
:100108000E50D9260F50DA2263CFDFFF20EE06F01B
:100118000E50D9260F50DA2262CF10F0030E1016B7
:1001280062CF06F0076A000E096E080E086EDAEC58
:1001380006F006501010DF6E6150106E116A050E41
:10014800D89010361136E82EFBD720EE06F00E5068
:10015800D9260F50DA221050DE121150DD1220EE8F
:1001680002F00E50D9260F50DA22030EDF6E65BC5E
:1001780068D020EE01F00E50D9260F50DA22010E79
:10018800DF6E20EE10F00E50D9260F50DA2265509F
:100198000F0BDF6E20EE10F00E50D9260F50DA222A
:1001A800080EDF6441D01ED0000E606E3BD0000EFA
:1001B8000F010ED0000E0E01206F34D0000E0E017C
:1001C800306F30D0000E0E01406F2CD0000E0E01A3
:1001D800506F28D0000E0E01606F24D0000E0E0163
:1001E800706F20D01350106E116A1150000AD8A4F5
:1001F80019D01050000AD8B4D7D7010AD8B4D7D725
:10020800030AD8B4D7D7010AD8B4D8D7070AD8B4BC
:10021800D9D7010AD8B4DAD7030AD8B4DBD7010A88
:10022800D8B4DCD7000E1200080E0E24066E000E9D
:100238000F20076E660E086E0F0E096EA7EC09F008
:1002480027D020EE01F00E50D9260F50DA22020EE8
:10025800DF6E1ED0000E606E3BD0000E0F010ED078
:10026800000E0E01206F34D0000E0E01306F30D01A
:10027800000E0E01406F2CD0000E0E01506F28D0DA
:10028800000E0E01606F24D0000E0E01706F20D09A
:100298001350106E116A1150000AD8A419D01050CA
:1002A800000AD8B4D7D7010AD8B4D7D7030AD8B424
:1002B800D7D7010AD8B4D8D7070AD8B4D9D7010AEA
:1002C800D8B4DAD7030AD8B4DBD7010AD8B4DCD754
:1002D800010E1200F00E0824226EFF0E0920236E74
:1002E80020EE01F00650D9260750DA22020EDE1859
:1002F800D8A472D020EE10F00650D9260750DA2282
:10030800080EDF6E000E256E000E246E22C00AF065
:1003180023C00BF0D8900A360B36D8900A360B3625
:1003280024500A2625500B22D8900A360B36C60EC2
:100338000A24D96E000E0B20DA6E24C00AF025C0FC
:100348000BF0D8900A360B3606C00CF007C00DF03B
:100358000A500C260B500D22080E0C24D96E000EE4
:100368000D20DA6E000EDF6E22C00AF023C00BF0FB
:10037800D8900A360B36D8900A360B3624500A26FF
:1003880025500B22D8900A360B36C60E0A24D96E91
:10039800000E0B20DA6E24C00CF025C00DF0D890AA
:1003A8000C360D3606C00EF007C00FF00C500E26A6
:1003B8000D500F22090E0E24E16E000E0F20E26E82
:1003C800DFCFE7FF244A252A255005E1040E245CE7
:1003D800D8B012009BD7120020EE0AF00650D9269A
:1003E8000750DA22DF500A6E0A500C6E0B6A20EEB4
:1003F8000BF00650D9260750DA22DF500D6E0D504B
:100408000B101C6E0C501D6EF00E08241E6EFF0E95
:1004180009201F6E20EE08F00650D9260750DA2270
:10042800DF500A6E0A500C6E0B6A20EE09F0065077
:10043800D9260750DA22DF500D6E0D500B10206EB2
:100448000C50216E000E256E000E246E24C00AF09A
:1004580025C00BF0D8900A360B3606C00CF007C042
:100468000DF00A500C260B500D22080E0C24D96EE4
:10047800000E0D20DA6EDF500E6E0E50106E0F6AF1
:1004880024C011F025C012F0D8901136123606C0DB
:1004980013F007C014F01150132612501422090E3D
:1004A8001324D96E000E1420DA6EDF50156E155025
:1004B8000F12000E10121EC016F01FC017F0D890B1
:1004C80016361736D8901636173624501626255065
:1004D8001722D89016361736C60E1624D96E000E77
:1004E8001720DA6E0FC0DEFF10C0DDFF244A252A70
:1004F800255005E1040E245CD8B01200A7D71200DD
:1005080020EE06F02650D9262750DA22DF50286E32
:100518002850066E076A000E096E040E086EDAECA3
:1005280006F006502E6E2E04D8B478D02EC02CF0CB
:100538002D6A74D026C00BF027C00CF0EBEC04F049
:10054800A2D026C008F027C009F059EC07F09BD0CC
:1005580026C006F027C007F025EC09F094D026C085
:1005680006F027C007F077EC08F08DD026C006F01B
:1005780027C007F05BEC09F086D026C006F027C03C
:1005880007F040EC09F07FD026C006F027C007F03E
:1005980080EC05F078D026C00DF027C00EF022ECD4
:1005A80008F071D026C006F027C007F075EC0AF0F5
:1005B8006AD026C006F027C007F094EC07F063D095
:1005C80026C006F027C007F0F40E2E24086E096A2C
:1005D800FF0E092276EC0AF056D026C006F027C096
:1005E80007F00AEC09F04FD026C006F027C007F044
:1005F800F00E2E24086E096AFF0E09226EEC01F037
:1006080042D026C006F027C007F0EF0E2E24086E51
:10061800096AFF0E09226EEC01F035D02E50286EC3
:10062800296A2950000AD8A42ED02850010AD8B423
:1006380081D7030AD8B485D7010AD8B489D7070A5D
:10064800D8B48DD7010AD8B491D7030AD8B495D7AE
:10065800010AD8B499D70E0AD8B49DD7030AD8B4DA
:10066800A1D7010AD8B4A5D7070AD8B4A9D7010ACF
:10067800D8B4A6D7020AD8B4B0D71F0AD8B4B4D70A
:10068800010AD8B4BED720EE01F02650D92627504B
:10069800DA22020EDE18D8A4120020EE02F026504C
:1006A800D9262750DA22030EDF6E20EE01F02650FD
:1006B800D9262750DA22010EDF6E20EE04F02650EC
:1006C800D9262750DA22DE6ADE6ADE6ADD6A2E5013
:1006D800040D20EE06F02650D9262750DA22F3CF53
:1006E800DFFF26C006F027C007F02EC008F04AEC4E
:1006F80006F026C00BF027C00CF08BEC03F004D0FA
:100708000F0140B9E2EC09F060A61200F9D7830E98
:10071800776E60A60AD0840E776E60A606D0850E26
:10072800776E60A602D0F3D7FF0074B4FDD7000E31
:10073800466E20EE04F00B50D9260C50DA22DF501A
:10074800646E20EE05F00B50D9260C50DA22DF50EB
:10075800636E20EE06F00B50D9260C50DA22DF50DB
:100768000D6E030E0D1620EE06F00B50D9260C5018
:10077800DA22DF50FC0B080DF3500D10626E628612
:1007880020EE06F00B50D9260C50DA22DECF0DF001
:10079800DDCF0EF0050E0F6ED8900E320D320F2EF3
:1007A800FBD70D50616E000E656E20EE01F00B5008
:1007B800D9260C50DA22020EDE18D8A402D0658C95
:1007C8005AD020EE10F00B50D9260C50DA22DF5008
:1007D8000D6E0F0E0D1665500D18FE0B0D18656E7B
:1007E80020EE10F00B50D9260C50DA22DF500D6E97
:1007F800D8900D32070E0D160D4665500D18FD0BDD
:100808000D18656E20EE10F00B50D9260C50DA2228
:10081800DF500D6ED8900D32D8900D32030E0D16A4
:100828000D460D4665500D18FB0B0D18656E20EE34
:1008380010F00B50D9260C50DA22DF500D6ED890EC
:100848000D32D8900D32D8900D32010E0D160D468E
:100858000D460D4665500D18F70B0D18656E660EA2
:10086800066E0F0E076E080E0B24086E000E0C2085
:10087800096EA7EC09F06086448812000A6E0A50D7
:10088800D8A450D006A003D08C50100902D08C50A8
:10089800EF0B8C6E06A203D08C50400902D08C500E
:1008A800BF0B8C6E06A403D08A50010902D08A506F
:1008B800FE0B8A6E06A603D08950020902D0895021
:1008C800FD0B896E06A803D08950080902D089500B
:1008D800F70B896E06AA03D08950200902D08950E7
:1008E800DF0B896E06AC03D08D50020902D08D5003
:1008F800FD0B8D6E06AE03D08950800902D0895059
:100908007F0B896E07A003D08C50010902D08C5050
:10091800FE0B8C6E07A203D08C50040902D08C50B9
:10092800FB0B8C6E0A04D8A4120006A003D08C50CE
:10093800200902D08C50DF0B8C6E06A203D08C509D
:10094800800902D08C507F0B8C6E06A403D08A508D
:10095800020902D08A50FD0B8A6E06A603D0895080
:10096800040902D08950FB0B896E06A803D0895070
:10097800100902D08950EF0B896E06AA03D08D505A
:10098800010902D08D50FE0B8D6E06AC03D08D5040
:10099800040902D08D50FB0B8D6E06AE03D0895032
:1009A800400902D08950BF0B896E07A003D08C5034
:1009B800020902D08C50FD0B8C6E07A204D08C501B
:1009C80008098C6E12008C50F70B8C6E120020EE0A
:1009D80001F00B50D9260C50DA22020EDE18D8A4EA
:1009E80047D020EE10F00B50D9260C50DA22060E14
:1009F800DF6E20EE08F00B50D9260C50DA2273EC8B
:100A08000AF0DF6E20EE09F00B50D9260C50DA22DE
:100A180036EC0AF007C006F0076A0650DF6E20EED3
:100A28000AF00B50D9260C50DA2236EC0AF00650A0
:100A3800DF6E20EE0BF00B50D9260C50DA2228EC92
:100A48000AF00650DF6E20EE0CF00B50D9260C5041
:100A5800DA223BEC0AF00650DF6E20EE0DF00B5068
:100A6800D9260C50DA2268EC0AF00650DF6E120024
:100A7800C6C017F0C7C018F00C0E17181810D8A465
:100A880013D017C013F018C014F0000E1A6E000E21
:100A9800196EF1EC09F0194A1A2A900E195C010E28
:100AA8001A58D8B013D0F5D717C015F018C016F0DB
:100AB800000E1A6E000E196EE2EC09F0194A1A2A95
:100AC800900E195C010E1A58D8A0F6D720EE04F043
:100AD8000B50D9260C50DA222B0EDE180CE1DE045E
:100AE800D8A4120020EE08F00B50D9260C50DA22B8
:100AF800DF506CEC0AF0120020EE01F00650D92607
:100B08000750DA22020EDE18D8A457D020EE10F0D3
:100B18000650D9260750DA22010EDF6E20EE08F0C3
:100B28000650D9260750DA22D044E846030B010BB9
:100B3800DF6E20EE09F00650D9260750DA220001B0
:100B4800D6A902D0010E01D0000EDF6E20EE0AF009
:100B58000650D9260750DA22D6A102D0010E01D0BC
:100B6800000EDF6E20EE0BF00650D9260750DA2271
:100B7800000EDF6E20EE0CF00650D9260750DA2260
:100B880036C0DFFF20EE0DF00650D9260750DA22D6
:100B980038C0DFFF20EE0EF00650D9260750DA22C3
:100BA8003AC0DFFF20EE0FF00650D9260750DA22B0
:100BB8003CC0DFFFD09CD699120020EE10F0065002
:100BC800D9260750DA22010EDF6E20EE08F0065013
:100BD800D9260750DA22FF0EDF6E1200116E0DC003
:100BE80014F00EC015F0000E136E000E126E0FC03A
:100BF80006F010C007F0000E096E0A0E086E4EECE3
:100C080008F006C016F007C017F01150D8B417D076
:100C180031D012501410126E13501510136E14C0E8
:100C280006F015C007F0E9EC08F006C014F007C09C
:100C380015F0FF0E1624166EFF0E1720176E1650AD
:100C48001710D8B41BD0E5D712501410126E1350D9
:100C58001510136E14C006F015C007F09EEC08F0CE
:100C680006C014F007C015F0FF0E1624166EFF0E0E
:100C78001720176E16501710D8A4E6D712C006F022
:100C880013C007F0115042EC04F0120020EE02F0FD
:100C98000650D9260750DA22030EDF6E20EE01F047
:100CA8000650D9260750DA22010EDF6E0850096E69
:100CB8000A6AD89009360A36D89009360A3620EEDC
:100CC80006F00650D9260750DA2209C0DEFF0AC00E
:100CD800DDFF2C0E096E010E0A6E20EE42F0DECF0B
:100CE8000BF0DDCF0CF009500B260A500C2220EE39
:100CF80004F00650D9260750DA220BC0DEFF0CC0DC
:100D0800DDFF20EE06F00650D9260750DA22DF90E4
:100D180020EE06F00650D9260750DA22DF9212009C
:100D2800500E0D01F06F550EF16F550EF26F550E06
:100D3800F36F000E0F01186F0B0E196F1A691B69FC
:100D48001C691D69000E1E6F000E1F6F000E186FC4
:100D5800000E196F000E1A6F000E1B6F000E006F49
:100D6800010E016F01874350026F028D42C003FFDD
:100D7800000E046F010E056F05877F0E066F076969
:100D8800000E086F200E096F0987000E0A6F000E0B
:100D98000B6F000E0C6F000E0D6F000E0E6F0E51D4
:100DA800000E0F6F0F0E0D01D46F1200000E0B6EA8
:100DB80009AE06D0086C091ED8B0092A010E0B6EC0
:100DC80007AE06D0066C071ED8B0072A010E0B1A0C
:100DD800000E0D6E000E0C6E08500910D8B41CD011
:100DE800010E0A6E04D0D890083609360A2A09AED0
:100DF800FAD7D8900C360D360850065C09500758BB
:100E0800D8A005D00850065E0950075A0C80D89023
:100E1800093208320A2EEDD70B50D8B404D00C6C26
:100E28000D1ED8B00D2A0CC006F00DC007F0120038
:100E38004F50D8A413D0000E076E000E066E000E99
:100E480042EC04F052C00DF053C00EF056C00FF043
:100E580057C010F05850F2EC05F012D0000E076E93
:100E6800000E066E585042EC04F054C00DF055C008
:100E78000EF056C00FF057C010F0000EF2EC05F05F
:100E880054C006F055C007F09EEC08F006C054F0B8
:100E980007C055F052C006F053C007F0E9EC08F05F
:100EA80006C052F007C053F0120020EE01F00850BF
:100EB800D9260950DA22020EDE18D8A4120020EE34
:100EC80010F00850D9260950DA22040EDF6E20EE01
:100ED80008F00850D9260950DA224AEC0AF00650E0
:100EE800DF6E20EE09F00850D9260950DA2245ECC9
:100EF8000AF00650DF6E20EE0AF00850D926095095
:100F0800DA2240EC0AF00650DF6E20EE0BF00850B3
:100F1800D9260950DA224FEC0AF00650DF6E12008B
:100F280020EE01F00650D9260750DA22020EDE180C
:100F3800D8A4120020EE10F00650D9260750DA2265
:100F4800040EDF6E20EE08F00650D9260750DA228C
:100F58000550DF6E20EE09F00650D9260750DA2238
:100F680004C0DFFF20EE0AF00650D9260750DA2227
:100F78000B50DF6E20EE0BF00650D9260750DA2210
:100F88000AC0DFFF1200800E6F6E6E50E00B800A01
:100F9800D8A4FBD7000E0D01F86F000E0F01406FAB
:100FA800000E606E000E506F000E0E01206F000ED6
:100FB800306F000EA36EA568000EA46E000E0D0122
:100FC800FA6F900E776EBCEC09F094EC06F073683B
:100FD800000E6F6E6ECF06F0E00E0616D8B4120043
:100FE800F9D7C60EF66E140EF76E000EF86E00EE08
:100FF80050F010EE09F00900F5CFEEFFE550E15092
:10100800FAE100EEDBF012EE20F0EE6AE550E15076
:10101800FCE1E250FAE100EE60F07B0EEE6AE806D1
:10102800FDE100EE40F0100EEE6AE806FDE1599091
:101038005992000EF86E000190EF09F020EE01F0D1
:101048000D50D9260E50DA22020EDE18D8A413D07D
:1010580020EE08F00D50D9260E50DA220CC006F00A
:101068000DC007F0000E096E0A0E086E4EEC08F06F
:101078000650DF6E120020EE08F00D50D9260E50F3
:10108800DA22DF500F6E0F500A0DF3CF0CF0F4CFB9
:101098000DF01200000E0B6E000E0A6E08500910BB
:1010A800D8B41CD0010E0C6E04D0D890083609367E
:1010B8000C2A09AEFAD7D8900A360B360850065CC7
:1010C80009500758D8A005D00850065E0950075A9D
:1010D8000A80D890093208320C2EEDD70AC006F0E3
:1010E8000BC007F0120020EE01F00650D926075079
:1010F800DA22020EDE18D8A4120020EE10F00650F4
:10110800D9260750DA22010EDF6E000E0A6E000E95
:10111800096E094A0A2A0A5004E1030E095CD8A09C
:10112800F8D720EE08F00650D9260750DA22FF0E2D
:10113800DF6E120006A018D0FE0E06140A6E030E0B
:1011480007140B6ED8900B30086E0A300A6E08C070
:101158000BF0000E0A100A6E020E0B100B6E0AC07E
:1011680006F00BC007F01200D8900730086E063062
:10117800066E08C007F006C006F007C007F01200A8
:1011880040A013D0020E306E000E336E000E346E87
:10119800000E356E000E366E040E356E2F0E266E5E
:1011A800000E276E84EC02F040902F0E0E6E000E9B
:1011B8000F6E30EC00F00009D8B412002F0E266E26
:1011C800000E276E84EC02F0120007A215D0FF0E65
:1011D8000614086E010E0714096ED8900834086EBC
:1011E8000934096E010E0810086E0950096E08C00E
:1011F80006F009C007F01200D8900634066E0734CE
:10120800076E06C006F007C007F0120020EE01F0D6
:101218000650D9260750DA22020EDE18D8A412008A
:1012280020EE10F00650D9260750DA22010EDF6EA4
:1012380020EE08F00650D9260750DA22FF0EDF6E9E
:10124800120020EE01F00650D9260750DA22020ECD
:10125800DE18D8A4120020EE10F00650D926075048
:10126800DA22010EDF6E20EE08F00650D92607506C
:10127800DA22FF0EDF6E120020EE01F00650D926AA
:101288000750DA22020EDE18D8A4120020EE10F061
:101298000650D9260750DA22010EDF6E20EE08F03C
:1012A8000650D9260750DA22FF0EDF6E120020EE14
:1012B80001F00650D9260750DA22020EDE18D8A40B
:1012C800120020EE10F00650D9260750DA22010E3F
:1012D800DF6E20EE08F00650D9260750DA22FF0EFE
:1012E800DF6E12009250010B926E9350FC0B936EBE
:1012F8009650F80B966E000E956E000E076E000E57
:10130800066E000E42EC04F0000E076E000E066E2C
:10131800010E42EC04F012000FEC0AF0D06844B061
:10132800449059EC0AF006040710D8A408D01CEC25
:1013380007F0000E076E000E066E54EC0AF0C4ECBF
:1013480008F00400ECD7000E0A6E0A500824D96E83
:10135800000E0920DA6E0A500624E16E000E0720FE
:10136800E26EDFCFE7FF0A2A070E0A64EED7120003
:1013780070807082709470967098709A708C708E6D
:1013880071867188718A718471927190728072927B
:101398007284718C718E1200000E016E000E026E46
:1013A800CECF01F0CFCF02F000F09E0E0226570EEE
:1013B800012602C0CFFF5B0ECE6E1200020E076E32
:1013C800AA0E066E000E42EC04F0000E076E000E28
:1013D800066E010E42EC04F01200000E076E000EBD
:1013E800066E000E42EC04F0020E076EAA0E066EA0
:1013F800010E42EC04F01200000E896E000E8A6E97
:10140800000E8B6E0C0E926E880E936EBF0E946E4D
:10141800D08E44861200D180040000EC0AF0C7EC9C
:1014280007F02FEC0AF01CEC0AF076EC09F0120039
:10143800D38CD38AD3883D0ECD6E9E0ECF6E570EB9
:10144800CE6E9D80CD8012005050066E5150076EB2
:10145800504A512A1200F28EF28CD08ED08EF28C25
:101468009F901200020E076E200E066E1200000EEC
:10147800076E1B0E066E1200000E076EFE0E066E3D
:101488001200000E076EFE0E066E1200000E076EAA
:10149800FE0E066E1200000E076E000E066E12009B
:1014A80006C047F007C048F0120047C006F048C021
:1014B80007F0120001C047F002C048F01200110006
:0714C8000100010014000106
:1014D000000E076E06681200066E06C04FF012007E
:0E14E0000600599211004F5012001200120027
:020000040020DA
:08000000FFFFFFFFFFFFFFFF00
:020000040030CA
:0E000000FF081F1EFF8281FF0FC00FE00F40A0
:00000001FF
