:020000040000FA
:040000002EEF00F0EF
:060008004A8293ED07F0AF
:100018004A80D8CF03F0E8CF04F0E0CF05F09EA0E7
:1000280011D01FEC07F0000E026E010E016E8AEC73
:1000380007F03D80412A320E416403D0000E416E24
:1000480037809E9005C0E0FF04C0E8FF03C0D8FFDA
:100058004A90100015EF06F06F500F0B136E1350F7
:100068009009776E18D060CF12F035D050CF12F0CB
:1000780032D020CE12F02FD030CE12F02CD040CE7D
:1000880012F029D050CE12F026D060CE12F023D034
:1000980070CE12F020D01350106E116A1150000A61
:1000A800D8A419D01050000AD8B4DDD7010AD8B4A2
:1000B800DDD7030AD8B4DDD7010AD8B4DDD7070ADB
:1000C800D8B4DDD7010AD8B4DDD7030AD8B4DDD750
:1000D800010AD8B4DDD712AEA5D020EE03F00E5039
:1000E800D9260F50DA2260501F0BDF6E20EE04F085
:1000F8000E50D9260F50DA2264CFDFFF20EE05F02C
:100108000E50D9260F50DA2263CFDFFF20EE06F01B
:100118000E50D9260F50DA2262CF10F0030E1016B7
:1001280062CF06F0076A000E096E080E086E10EC22
:1001380004F006501010DF6E6150106E116A050E43
:10014800D89010361136E82EFBD720EE06F00E5068
:10015800D9260F50DA221050DE121150DD1220EE8F
:1001680002F00E50D9260F50DA22030EDF6E65BC5E
:1001780068D020EE01F00E50D9260F50DA22010E79
:10018800DF6E20EE10F00E50D9260F50DA2265509F
:100198000F0BDF6E20EE10F00E50D9260F50DA222A
:1001A800080EDF6441D01ED0000E606E3BD0000EFA
:1001B8000F010ED0000E0E01206F34D0000E0E017C
:1001C800306F30D0000E0E01406F2CD0000E0E01A3
:1001D800506F28D0000E0E01606F24D0000E0E0163
:1001E800706F20D01350106E116A1150000AD8A4F5
:1001F80019D01050000AD8B4D7D7010AD8B4D7D725
:10020800030AD8B4D7D7010AD8B4D8D7070AD8B4BC
:10021800D9D7010AD8B4DAD7030AD8B4DBD7010A88
:10022800D8B4DCD7000E1200080E0E24066E000E9D
:100238000F20076E660E086E0F0E096EF6EC06F0BC
:1002480027D020EE01F00E50D9260F50DA22020EE8
:10025800DF6E1ED0000E606E3BD0000E0F010ED078
:10026800000E0E01206F34D0000E0E01306F30D01A
:10027800000E0E01406F2CD0000E0E01506F28D0DA
:10028800000E0E01606F24D0000E0E01706F20D09A
:100298001350106E116A1150000AD8A419D01050CA
:1002A800000AD8B4D7D7010AD8B4D7D7030AD8B424
:1002B800D7D7010AD8B4D8D7070AD8B4D9D7010AEA
:1002C800D8B4DAD7030AD8B4DBD7010AD8B4DCD754
:1002D800010E120020EE06F01050D9261150DA2235
:1002E800DF50126E1250066E076A000E096E040E79
:1002F800086E10EC04F00650146E60D010C006F0C2
:1003080011C007F052EC04F08BD010C006F011C0F9
:1003180007F0AAEC06F084D010C006F011C007F070
:1003280059EC06F07DD010C006F011C007F0C8ECFB
:1003380005F076D010C006F011C007F08FEC06F07B
:100348006FD010C006F011C007F074EC06F068D04A
:1003580010C006F011C007F01DEC05F061D010C008
:1003680006F011C007F031EC07F05AD010C006F0C3
:1003780011C007F097EC07F053D010C006F011C079
:1003880007F096EC07F04CD010C006F011C007F04B
:10039800F40E1424086E096AFF0E092298EC07F07F
:1003A8003FD010C006F011C007F0F00E1424086EFC
:1003B800096AFF0E092299EC07F032D01450126E28
:1003C800136A1350000AD8A42BD01250010AD8B4CB
:1003D80095D7030AD8B499D7010AD8B49DD7070A84
:1003E800D8B4A1D7010AD8B4A5D7030AD8B4A9D7D5
:1003F800010AD8B4ADD70E0AD8B4B1D7030AD8B415
:10040800B5D7010AD8B4B9D7070AD8B4BDD7010AF5
:10041800D8B4BAD71D0AD8B4C4D7010AD8B4C1D73A
:1004280020EE01F01050D9261150DA22020EDE1803
:10043800D8A4120020EE02F01050D9261150DA226A
:10044800030EDF6E20EE01F01050D9261150DA228B
:10045800010EDF6E20EE04F01050D9261150DA227A
:10046800DE6ADE6ADE6ADD6A1450040D20EE06F0EC
:100478001050D9261150DA22F3CFDFFF10C006F052
:1004880011C007F014C008F0F0EC04F010C00BF035
:1004980011C00CF058EC02F004D00F0140B942EC46
:1004A80007F060A61200F9D7830E776E60A60AD00F
:1004B800840E776E60A606D0850E776E60A602D091
:1004C800F3D7FF0074B4FDD7000E3E6E20EE04F0A3
:1004D8000B50D9260C50DA22DF50646E20EE05F05E
:1004E8000B50D9260C50DA22DF50636E20EE06F04E
:1004F8000B50D9260C50DA22DF500D6E030E0D1664
:1005080020EE06F00B50D9260C50DA22DF50FC0BF7
:10051800080DF3500D10626E628620EE06F00B5047
:10052800D9260C50DA22DECF0DF0DDCF0EF0050E05
:100538000F6ED8900E320D320F2EFBD70D50616E14
:10054800000E656E20EE01F00B50D9260C50DA2211
:10055800020EDE18D8A402D0658C5AD020EE10F016
:100568000B50D9260C50DA22DF500D6E0F0E0D16E7
:1005780065500D18FE0B0D18656E20EE10F00B502F
:10058800D9260C50DA22DF500D6ED8900D32070EA6
:100598000D160D4665500D18FD0B0D18656E20EEF5
:1005A80010F00B50D9260C50DA22DF500D6ED8907F
:1005B8000D32D8900D32030E0D160D460D466550BE
:1005C8000D18FB0B0D18656E20EE10F00B50D92698
:1005D8000C50DA22DF500D6ED8900D32D8900D32C3
:1005E800D8900D32010E0D160D460D460D4665507C
:1005F8000D18F70B0D18656E660E066E0F0E076E5A
:10060800080E0B24086E000E0C20096EF6EC06F09E
:1006180060863D8812000A6E0A50D8A450D006A001
:1006280003D08C50100902D08C50EF0B8C6E06A2B0
:1006380003D08C50400902D08C50BF0B8C6E06A49E
:1006480003D08A50010902D08A50FE0B8A6E06A692
:1006580003D08950020902D08950FD0B896E06A883
:1006680003D08950080902D08950F70B896E06AA71
:1006780003D08950200902D08950DF0B896E06AC5F
:1006880003D08D50020902D08D50FD0B8D6E06AE41
:1006980003D08950800902D089507F0B896E07A04A
:1006A80003D08C50010902D08C50FE0B8C6E07A22F
:1006B80003D08C50040902D08C50FB0B8C6E0A04BA
:1006C800D8A4120006A003D08C50200902D08C5068
:1006D800DF0B8C6E06A203D08C50800902D08C50A0
:1006E8007F0B8C6E06A403D08A50020902D08A5070
:1006F800FD0B8A6E06A603D08950040902D08950E2
:10070800FB0B896E06A803D08950100902D08950C6
:10071800EF0B896E06AA03D08D50010902D08D50C7
:10072800FE0B8D6E06AC03D08D50040902D08D509F
:10073800FB0B8D6E06AE03D08950400902D089505C
:10074800BF0B896E07A003D08C50020902D08C50D1
:10075800FD0B8C6E07A204D08C5008098C6E120019
:100768008C50F70B8C6E1200116E0DC014F00EC079
:1007780015F0000E136E000E126E0FC006F010C0BA
:1007880007F0000E096E0A0E086E9FEC05F006C011
:1007980016F007C017F01150D8B417D031D0125046
:1007A8001410126E13501510136E14C006F015C0F5
:1007B80007F038EC06F006C014F007C015F0FF0E7D
:1007C8001624166EFF0E1720176E16501710D8B481
:1007D8001BD0E5D712501410126E13501510136E5B
:1007E80014C006F015C007F0EFEC05F006C014F0D1
:1007F80007C015F0FF0E1624166EFF0E1720176E91
:1008080016501710D8A4E6D712C006F013C007F088
:1008180011500FEC03F01200000E0B6E09AE06D05B
:10082800086C091ED8B0092A010E0B6E07AE06D057
:10083800066C071ED8B0072A010E0B1A000E0D6EA3
:10084800000E0C6E08500910D8B41CD0010E0A6EA8
:1008580004D0D890083609360A2A09AEFAD7D890B3
:100868000C360D360850065C09500758D8A005D03C
:100878000850065E0950075A0C80D8900932083291
:100888000A2EEDD70B50D8B404D00C6C0D1ED8B07E
:100898000D2A0CC006F00DC007F0120020EE01F082
:1008A8000650D9260750DA22020EDE18D8A4120004
:1008B80020EE10F00650D9260750DA22050EDF6E1A
:1008C80020EE08F00650D9260750DA22000EDF6E17
:1008D80020EE09F00650D9260750DA22880EDF6E7E
:1008E80020EE0AF00650D9260750DA22880EDF6E6D
:1008F80020EE0BF00650D9260750DA22000EDF6EE4
:1009080020EE0CF00650D9260750DA22000EDF6ED2
:100918001200500E0D01F06F550EF16F550EF26F6B
:10092800550EF36F000E0F01186F0B0E196F1A6931
:100938001B691C691D69000E1E6F000E1F6F000EDB
:10094800006F010E016F01873A50026F028D39C0A6
:1009580003FF000E046F010E056F05877F0E066FFB
:100968000769000E086F200E096F0987000E0A6FCD
:10097800000E0B6F070E0D01D46F1200800E6F6E04
:100988006E50E00B800AD8A4FBD7000E0D01F86F5B
:10099800000E0F01406F000E606E000E506F000ECB
:1009A8000E01206F000E306F000EA36EA568000EBA
:1009B800A46E000E0D01FA6F900E776E0BEC07F027
:1009C8008DEC04F07368000E6F6E6ECF06F0E00ECB
:1009D8000616D8B41200F9D720EE02F00650D92630
:1009E8000750DA22030EDF6E20EE01F00650D926FA
:1009F8000750DA22010EDF6E20EE06F00650D926E7
:100A08000750DA22250EDE6E000EDD6E20EE04F0B1
:100A18000650D9260750DA22060EDE6E800EDD6EED
:100A280020EE06F00650D9260750DA22000EDB80A9
:100A3800120020EE01F00650D9260750DA22020EE5
:100A4800DE18D8A411D020EE10F00650D926075091
:100A5800DA22010EDF6E20EE08F00650D926075084
:100A6800DA22FF0EDF6E120020EE10F00650D926B3
:100A78000750DA22010EDF6E20EE08F00650D92664
:100A88000750DA22FF0EDF6E120037A013D0020ED5
:100A9800166E000E196E000E1A6E000E1B6E000EFA
:100AA8001C6E040E1B6E150E106E000E116E6EEC91
:100AB80001F03790150E0E6E000E0F6E30EC00F040
:100AC8000009D8B412001850D8B403D01804D8A418
:100AD8001200150E106E000E116E6EEC01F0120071
:100AE80043C00DF044C00EF047C00FF048C010F0EE
:100AF8004950B8EC03F045C00DF046C00EF047C0B1
:100B08000FF048C010F0000EB8EC03F045C006F036
:100B180046C007F0EFEC05F006C045F007C046F008
:100B280043C006F044C007F038EC06F006C043F0B6
:100B380007C044F01200000E0B6E000E0A6E08503B
:100B48000910D8B41CD0010E0C6E04D0D890083609
:100B580009360C2A09AEFAD7D8900A360B3608504F
:100B6800065C09500758D8A005D00850065E095001
:100B7800075A0A80D890093208320C2EEDD70AC0DD
:100B880006F00BC007F0120020EE01F00650D9263F
:100B98000750DA22020EDE18D8A4120020EE10F058
:100BA8000650D9260750DA22010EDF6E000E0A6EB3
:100BB800000E096E094A0A2A0A5004E1030E095C6C
:100BC800D8A0F8D720EE08F00650D9260750DA2228
:100BD800FF0EDF6E120006A018D0FE0E06140A6E75
:100BE800030E07140B6ED8900B30086E0A300A6E8D
:100BF80008C00BF0000E0A100A6E020E0B100B6EE6
:100C08000AC006F00BC007F01200D8900730086E33
:100C18000630066E08C007F006C006F007C007F0E9
:100C280012001E0EF66E0F0EF76E000EF86E00EE36
:100C380043F010EE07F00900F5CFEEFFE550E15064
:100C4800FAE100EE60F0550EEE6AE806FDE100EE0E
:100C580026F01D0EEE6AE806FDE14A904A92000E63
:100C6800F86E0001DFEF06F007A215D0FF0E06149C
:100C7800086E010E0714096ED8900834086E0934FE
:100C8800096E010E0810086E0950096E08C006F0BA
:100C980009C007F01200D8900634066E0734076EB4
:100CA80006C006F007C007F0120020EE01F006505B
:100CB800D9260750DA22020EDE18D8A4120020EE38
:100CC80010F00650D9260750DA22010EDF6E20EE0A
:100CD80008F00650D9260750DA22FF0EDF6E120000
:100CE80020EE01F00650D9260750DA22020EDE184F
:100CF800D8A4120020EE10F00650D9260750DA22A8
:100D0800010EDF6E20EE08F00650D9260750DA22D1
:100D1800FF0EDF6E120020EE01F00650D9260750B4
:100D2800DA22020EDE18D8A4120020EE10F00650C7
:100D3800D9260750DA22010EDF6E20EE08F00650A1
:100D4800D9260750DA22FF0EDF6E120020EE01F0DE
:100D58000650D9260750DA22020EDE18D8A412004F
:100D680020EE10F00650D9260750DA22010EDF6E69
:100D780020EE08F00650D9260750DA22FF0EDF6E63
:100D880012009250010B926E9350FC0B936E96508A
:100D9800F80B966E000E956E000E076E000E066E2E
:100DA800000E0FEC03F0000E076E000E066E010E2B
:100DB8000FEC03F0120060EC07F0D0683DB03D90F6
:100DC80085EC07F006040710D8A408D074EC05F0E9
:100DD800000E076E000E066E80EC07F049EC05F079
:100DE8000400ECD7000E0A6E0A500824D96E000ED3
:100DF8000920DA6E0A500624E16E000E0720E26E22
:100E0800DFCFE7FF0A2A070E0A64EED712007080C8
:100E18007082709470967098709A708C708E7186CB
:100E28007188718A718471927190728072927284E1
:100E3800718C718E1200000E016E000E026ECECF04
:100E480001F0CFCF02F000F09E0E0226570E0126C9
:100E580002C0CFFF5B0ECE6E120020EE10F00650DF
:100E6800D9260750DA22010EDF6E20EE08F0065070
:100E7800D9260750DA22FF0EDF6E1200020E076E27
:100E8800AA0E066E000E0FEC03F0000E076E000EA1
:100E9800066E010E0FEC03F01200000E896E000EB4
:100EA8008A6E000E8B6E0C0E926E880E936EBF0EBD
:100EB800946ED08E3D861200D180040051EC07F06C
:100EC800C2EC04F079EC07F06DEC07F0C5EC06F025
:100ED8001200D38CD38AD3883D0ECD6E9E0ECF6E72
:100EE800570ECE6E9D80CD801200F28EF28CD08E81
:100EF800D08EF28C9F90120006C03BF007C03CF0E9
:100F080012003BC006F03CC007F0120001C03BF0E5
:0D0F180002C03CF0120001000100140001B5
:0E0F260006004A921100120012001200120082
:020000040020DA
:08000000FFFFFFFFFFFFFFFF00
:020000040030CA
:0E000000FF081F1EFF8281FF0FC00FE00F40A0
:00000001FF
