:020000040000FA
:040000002EEF00F0EF
:06000800548293ED0AF0A2
:100018005480D8CF03F0E8CF04F0E0CF05F09EA0DD
:1000280011D002EC0AF0000E026E010E016E81EC96
:100038000AF03F80482A140E486403D0000E486E28
:100048003B809E9005C0E0FF04C0E8FF03C0D8FFD6
:1000580054901000EDEF07F06F500F0B176E17500C
:100068009009776E18D060CF16F035D050CF16F0C3
:1000780032D020CE16F02FD030CE16F02CD040CE75
:1000880016F029D050CE16F026D060CE16F023D028
:1000980070CE16F020D01750106E116A1150000A59
:1000A800D8A419D01050000AD8B4DDD7010AD8B4A2
:1000B800DDD7030AD8B4DDD7010AD8B4DDD7070ADB
:1000C800D8B4DDD7010AD8B4DDD7030AD8B4DDD750
:1000D800010AD8B4DDD716AEADD020EE03F00E502D
:1000E800D9260F50DA2260501F0BDF6E20EE04F085
:1000F8000E50D9260F50DA2264CFDFFF20EE05F02C
:100108000E50D9260F50DA2263CFDFFF62CF06F0F8
:10011800076A000E096E080E086ED2EC06F062CF70
:1001280010F0030E101610500610146E0750156EBE
:1001380020EE06F00E50D9260F50DA2214C0DFFF49
:10014800155002E1090E145C6150106E116A050E1B
:10015800D89010361136E82EFBD720EE06F00E5058
:10016800D9260F50DA221050DE121150DD1220EE7F
:1001780002F00E50D9260F50DA22030EDF6E65BC4E
:1001880068D020EE01F00E50D9260F50DA22010E69
:10019800DF6E20EE10F00E50D9260F50DA2265508F
:1001A8000F0BDF6E20EE10F00E50D9260F50DA221A
:1001B800080EDF6441D01ED0000E606E3BD0000EEA
:1001C8000F010ED0000E0E01206F34D0000E0E016C
:1001D800306F30D0000E0E01406F2CD0000E0E0193
:1001E800506F28D0000E0E01606F24D0000E0E0153
:1001F800706F20D01750106E116A1150000AD8A4E1
:1002080019D01050000AD8B4D7D7010AD8B4D7D714
:10021800030AD8B4D7D7010AD8B4D8D7070AD8B4AC
:10022800D9D7010AD8B4DAD7030AD8B4DBD7010A78
:10023800D8B4DCD7000E1200080E0E24066E000E8D
:100248000F20076E660E086E0F0E096EC6EC09F0D9
:1002580027D020EE01F00E50D9260F50DA22020ED8
:10026800DF6E1ED0000E606E3BD0000E0F010ED068
:10027800000E0E01206F34D0000E0E01306F30D00A
:10028800000E0E01406F2CD0000E0E01506F28D0CA
:10029800000E0E01606F24D0000E0E01706F20D08A
:1002A8001750106E116A1150000AD8A419D01050B6
:1002B800000AD8B4D7D7010AD8B4D7D7030AD8B414
:1002C800D7D7010AD8B4D8D7070AD8B4D9D7010ADA
:1002D800D8B4DAD7030AD8B4DBD7010AD8B4DCD744
:1002E800010E120020EE01F00C50D9260D50DA2232
:1002F800020EDE18D8A47FD020EE10F00C50D926BC
:100308000D50DA22080EDF6E000E1F6E000E1E6EF4
:100318001EC010F01FC011F0D890103611360CC056
:1003280012F00DC013F01050122611501322080EAF
:100338001224D96E000E1320DA6E0EC014F00FC00E
:1003480015F0D89014361536D890143615361E5038
:1003580014261F501522D89014361536D890143606
:1003680015360E0E1424E16E000E1520E26EE6CF4F
:1003780016F0E5CF17F017C016F0176A1650DF6EA3
:100388000EC010F00FC011F0D89010361136D8906A
:10039800103611361E5010261F501122D8901036D4
:1003A8001136D890103611360E0E1024D96E000E64
:1003B8001120DA6E1EC012F01FC013F0D89012364A
:1003C80013360CC014F00DC015F01250142613503B
:1003D8001522090E1424E16E000E1520E26EDFCFFF
:1003E800E7FF1E4A1F2A1F5005E1040E1E5CD8B005
:1003F80012008ED71200000E1F6E000E1E6E1EC059
:1004080010F01FC011F0D890103611360CC012F041
:100418000DC013F01050122611501322080E12248A
:10042800D96E000E1320DA6EDF50146E1450166E5B
:10043800156A1EC017F01FC018F0D8901736183666
:100448000CC019F00DC01AF01750192618501A22AE
:10045800090E1924D96E000E1A20DA6EDF501B6EB1
:100468001B501512000E16120EC01CF00FC01DF006
:10047800D8901C361D36D8901C361D361E501C26AA
:100488001F501D22D8901C361D36D8901C361D369C
:100498000E0E1C24D96E000E1D20DA6E15C0DEFF6C
:1004A80016C0DDFF0EC010F00FC011F0D890103646
:1004B8001136D8901036113610C006F011C007F06A
:1004C800000E096E440E086EEFEC09F0C60E126EAF
:1004D800000E136E06501226075013221EC006F097
:1004E8001FC007F0000E096E440E086EEFEC09F00D
:1004F80006501226075013220EC014F00FC015F034
:10050800D89014361536D890143615361E50142641
:100518001F501522D89014361536D8901436153633
:10052800100E1424D96E000E1520DA6E12C0DEFFEC
:1005380013C0DDFF1E4A1F2A1F5005E1040E1E5C72
:10054800D8B012005CD7120020EE06F02050D92651
:100558002150DA22DF50226E2250066E076A000E02
:10056800096E040E086ED2EC06F00650246E67D0B1
:1005780020C00EF021C00FF06EEC05F096D020C020
:1005880008F021C009F051EC07F08FD020C006F028
:1005980021C007F044EC09F088D020C006F021C043
:1005A80007F096EC08F081D020C006F021C007F0D3
:1005B8007AEC09F07AD020C006F021C007F05FEC91
:1005C80009F073D020C006F021C007F0FDEC04F05C
:1005D8006CD020C00DF021C00EF01AEC08F065D0E8
:1005E80020C006F021C007F098EC0AF05ED020C0C9
:1005F80006F021C007F08CEC07F057D020C006F0B9
:1006080021C007F0F40E2424086E096AFF0E09229F
:1006180099EC0AF04AD020C006F021C007F029EC76
:1006280009F043D020C00CF021C00DF0F00E2424B6
:100638000E6E0F6AFF0E0F2276EC01F036D02450B2
:10064800226E236A2350000AD8A492D72250010AA6
:10065800D8B48ED7030AD8B492D7010AD8B496D79B
:10066800070AD8B49AD7010AD8B49ED7030AD8B4CF
:10067800A2D7010AD8B4A6D70E0AD8B4AAD7030AB3
:10068800D8B4AED7010AD8B4B2D7070AD8B4B6D707
:10069800010AD8B4B3D7020AD8B4BDD71F0AD8B450
:1006A800C1D7010AD8B4BED763D720EE01F02050D5
:1006B800D9262150DA22020EDE18D8A4120020EE24
:1006C80002F02050D9262150DA22030EDF6E20EEE8
:1006D80001F02050D9262150DA22010EDF6E20EEDB
:1006E80004F02050D9262150DA22DE6ADE6ADE6A5A
:1006F800DD6A2450040D20EE06F02050D926215042
:10070800DA22F3CFDFFF20C006F021C007F024C0B3
:1007180008F030EC06F020C00BF021C00CF09DEC86
:1007280003F004D00F0140B914EC0AF060A61200DF
:10073800F9D7830E776E60A60AD0840E776E60A60E
:1007480006D0850E776E60A602D0F3D7FF0074B48A
:10075800FDD7000E416E20EE04F00B50D9260C5048
:10076800DA22DF50646E20EE05F00B50D9260C50CB
:10077800DA22DF50636E20EE06F00B50D9260C50BB
:10078800DA22DF500D6E030E0D1620EE06F00B5028
:10079800D9260C50DA22DF50FC0B080DF3500D104F
:1007A800626E628620EE06F00B50D9260C50DA22D3
:1007B800DECF0DF0DDCF0EF0050E0F6ED8900E32A5
:1007C8000D320F2EFBD70D50616E000E656E20EEB8
:1007D80001F00B50D9260C50DA22020EDE18D8A4EC
:1007E80002D0658C5AD020EE10F00B50D9260C5050
:1007F800DA22DF500D6E0F0E0D1665500D18FE0B28
:100808000D18656E20EE10F00B50D9260C50DA2228
:10081800DF500D6ED8900D32070E0D160D4665503F
:100828000D18FD0B0D18656E20EE10F00B50D92633
:100838000C50DA22DF500D6ED8900D32D8900D3260
:10084800030E0D160D460D4665500D18FB0B0D18C1
:10085800656E20EE10F00B50D9260C50DA22DF50CE
:100868000D6ED8900D32D8900D32D8900D32010E01
:100878000D160D460D460D4665500D18F70B0D1853
:10088800656E660E066E0F0E076E080E0B24086E58
:10089800000E0C20096EC6EC09F060863F88120035
:1008A8000A6E0A50D8A450D006A003D08C50100964
:1008B80002D08C50EF0B8C6E06A203D08C504009EE
:1008C80002D08C50BF0B8C6E06A403D08A5001094D
:1008D80002D08A50FE0B8A6E06A603D08950020900
:1008E80002D08950FD0B896E06A803D089500809EB
:1008F80002D08950F70B896E06AA03D089502009C7
:1009080002D08950DF0B896E06AC03D08D500209E6
:1009180002D08D50FD0B8D6E06AE03D08950800934
:1009280002D089507F0B896E07A003D08C50010933
:1009380002D08C50FE0B8C6E07A203D08C50040999
:1009480002D08C50FB0B8C6E0A04D8A4120006A0AF
:1009580003D08C50200902D08C50DF0B8C6E06A27D
:1009680003D08C50800902D08C507F0B8C6E06A46B
:1009780003D08A50020902D08A50FD0B8A6E06A65F
:1009880003D08950040902D08950FB0B896E06A850
:1009980003D08950100902D08950EF0B896E06AA3E
:1009A80003D08D50010902D08D50FE0B8D6E06AC20
:1009B80003D08D50040902D08D50FB0B8D6E06AE0E
:1009C80003D08950400902D08950BF0B896E07A017
:1009D80003D08C50020902D08C50FD0B8C6E07A2FC
:1009E80004D08C5008098C6E12008C50F70B8C6E5A
:1009F800120020EE01F00650D9260750DA22020E26
:100A0800DE18D8A456D020EE10F00650D92607508C
:100A1800DA22010EDF6E20EE08F00650D9260750C4
:100A2800DA22D044E846030B010BDF6E20EE09F012
:100A38000650D9260750DA2236A802D0010E01D076
:100A4800000EDF6E20EE0AF00650D9260750DA2293
:100A580036A002D0010E01D0000EDF6E20EE0BF0A2
:100A68000650D9260750DA22000EDF6E20EE0CF071
:100A78000650D9260750DA222EC0DFFF20EE0DF0EF
:100A88000650D9260750DA2230C0DFFF20EE0EF0DC
:100A98000650D9260750DA2232C0DFFF20EE0FF0C9
:100AA8000650D9260750DA2234C0DFFFD09C36988A
:100AB800120020EE10F00650D9260750DA22010E57
:100AC800DF6E20EE08F00650D9260750DA22FF0E16
:100AD800DF6E120020EE01F00E50D9260F50DA22F8
:100AE800020EDE18D8A447D020EE10F00E50D926FA
:100AF8000F50DA22060EDF6E20EE08F00E50D926CF
:100B08000F50DA2296EC0AF0DF6E20EE09F00E5054
:100B1800D9260F50DA2259EC0AF007C006F0076A06
:100B28000650DF6E20EE0AF00E50D9260F50DA225A
:100B380059EC0AF00650DF6E20EE0BF00E50D92665
:100B48000F50DA224BEC0AF00650DF6E20EE0CF064
:100B58000E50D9260F50DA225EEC0AF00650DF6EEE
:100B680020EE0DF00E50D9260F50DA228BEC0AF049
:100B78000650DF6E120020EE04F00E50D9260F50FA
:100B8800DA22DECF06F0DDCF07F06FEC08F00009BF
:100B9800D8B4120020EE08F00E50D9260F50DA22F1
:100BA800DF508FEC0AF01200116E0DC014F00EC069
:100BB80015F0000E136E000E126E0FC006F010C076
:100BC80007F0000E096E0A0E086E46EC08F006C023
:100BD80016F007C017F01150D8B417D031D0125002
:100BE8001410126E13501510136E14C006F015C0B1
:100BF80007F008EC09F006C014F007C015F0FF0E66
:100C08001624166EFF0E1720176E16501710D8B43C
:100C18001BD0E5D712501410126E13501510136E16
:100C280014C006F015C007F0BDEC08F006C014F0BB
:100C380007C015F0FF0E1624166EFF0E1720176E4C
:100C480016501710D8A4E6D712C006F013C007F044
:100C5800115054EC04F0120020EE02F00650D92690
:100C68000750DA22030EDF6E20EE01F00650D92677
:100C78000750DA22010EDF6E0850096E0A6AD89012
:100C880009360A36D89009360A3620EE06F006509C
:100C9800D9260750DA2209C0DEFF0AC0DDFF2C0E74
:100CA800096E010E0A6E20EE3DF0DECF0BF0DDCFAF
:100CB8000CF009500B260A500C2220EE04F00650C6
:100CC800D9260750DA220BC0DEFF0CC0DDFF20EE6C
:100CD80006F00650D9260750DA22000EDB8020EEF7
:100CE80006F00650D9260750DA22DF9020EE06F0EB
:100CF8000650D9260750DA22DF921200500E0D0155
:100D0800F06F550EF16F550EF26F550EF36F000E22
:100D18000F01186F0B0E196F1A691B691C691D6981
:100D2800000E1E6F000E1F6F000E006F010E016F88
:100D380001873E50026F028D3DC003FF000E046F15
:100D4800010E056F05877F0E066F0769000E086F95
:100D5800200E096F0987000E0A6F000E0B6F000E38
:100D68000C6F400E0D6F0D87000E0E6F000E0F6F8B
:100D7800020E146F000E156F1187000E126F000E11
:100D8800136F020E146F200E156F1587000E166F65
:100D9800000E176F3F0E0D01D46F1200000E0B6E80
:100DA80009AE06D0086C091ED8B0092A010E0B6ED0
:100DB80007AE06D0066C071ED8B0072A010E0B1A1C
:100DC800000E0D6E000E0C6E08500910D8B41CD021
:100DD800010E0A6E04D0D890083609360A2A09AEE0
:100DE800FAD7D8900C360D360850065C09500758CB
:100DF800D8A005D00850065E0950075A0C80D89034
:100E0800093208320A2EEDD70B50D8B404D00C6C36
:100E18000D1ED8B00D2A0CC006F00DC007F0120048
:100E28004A50D8A413D0000E076E000E066E000EAE
:100E380054EC04F04DC00DF04EC00EF051C00FF050
:100E480052C010F05350D8EC05F012D0000E076EC7
:100E5800000E066E535054EC04F04FC00DF050C015
:100E68000EF051C00FF052C010F0000ED8EC05F093
:100E78004FC006F050C007F0BDEC08F006C04FF0B8
:100E880007C050F04DC006F04EC007F008EC09F05E
:100E980006C04DF007C04EF0120020EE01F00850D9
:100EA800D9260950DA22020EDE18D8A4120020EE44
:100EB80010F00850D9260950DA22040EDF6E20EE11
:100EC80008F00850D9260950DA226DEC0AF00650CD
:100ED800DF6E20EE09F00850D9260950DA2268ECB6
:100EE8000AF00650DF6E20EE0AF00850D9260950A5
:100EF800DA2263EC0AF00650DF6E20EE0BF00850A1
:100F0800D9260950DA2272EC0AF00650DF6E120078
:100F180020EE01F00650D9260750DA22020EDE181C
:100F2800D8A4120020EE10F00650D9260750DA2275
:100F3800040EDF6E20EE08F00650D9260750DA229C
:100F48000550DF6E20EE09F00650D9260750DA2248
:100F580004C0DFFF20EE0AF00650D9260750DA2237
:100F68000B50DF6E20EE0BF00650D9260750DA2220
:100F78000AC0DFFF1200800E6F6E6E50E00B800A11
:100F8800D8A4FBD7000E0D01F86F000E0F01406FBB
:100F9800000E606E000E506F000E0E01206F000EE6
:100FA800306F000EA36EA568000EA46E000E0D0132
:100FB800FA6F900E776EDBEC09F082EC06F073683E
:100FC800000E6F6E6ECF06F0E00E0616D8B4120053
:100FD800F9D70C0EF66E150EF76E000EF86E00EED1
:100FE8004BF010EE09F00900F5CFEEFFE550E150A7
:100FF800FAE100EEC6F012EE20F0EE6AE550E1509C
:10100800FCE1E250FAE100EE60F0660EEE6AE806F6
:10101800FDE100EE36F0150EEE6AE806FDE15490AB
:101028005492000EF86E0001AFEF09F020EE01F0C7
:101038000D50D9260E50DA22020EDE18D8A413D08D
:1010480020EE08F00D50D9260E50DA220CC006F01A
:101058000DC007F0000E096E0A0E086E46EC08F087
:101068000650DF6E120020EE08F00D50D9260E5003
:10107800DA22DF500F6E0F500A0DF3CF0CF0F4CFC9
:101088000DF01200000E0B6E000E0A6E08500910CB
:10109800D8B41CD0010E0C6E04D0D890083609368E
:1010A8000C2A09AEFAD7D8900A360B360850065CD7
:1010B80009500758D8A005D00850065E0950075AAD
:1010C8000A80D890093208320C2EEDD70AC006F0F3
:1010D8000BC007F01200000E0D6E000E0C6E0E0E07
:1010E800086E010E096ED8900C34D96E0D34DA6E84
:1010F800D890D936DA360850D9260950DA2206505F
:10110800DE1806E10750DE18D8A402D0010E12003E
:101118000C4A0D2A0D5004E1040E0C5CD8A0DFD750
:10112800000E120020EE01F00650D9260750DA22F0
:10113800020EDE18D8A4120020EE10F00650D926B0
:101148000750DA22010EDF6E000E0A6E000E096EDD
:10115800094A0A2A0A5004E1030E095CD8A0F8D704
:1011680020EE08F00650D9260750DA22FF0EDF6E6F
:10117800120006A018D0FE0E06140A6E030E0714FD
:101188000B6ED8900B30086E0A300A6E08C00BF050
:10119800000E0A100A6E020E0B100B6E0AC006F043
:1011A8000BC007F01200D8900730086E0630066EA4
:1011B80008C007F006C006F007C007F012003BA001
:1011C80013D0020E266E000E296E000E2A6E000E37
:1011D8002B6E000E2C6E040E2B6E250E206E000E4C
:1011E800216EA8EC02F03B90250E0E6E000E0F6EDD
:1011F80030EC00F00009D8B41200250E206E000E65
:10120800216EA8EC02F0120007A215D0FF0E0614FA
:10121800086E010E0714096ED8900834086E093458
:10122800096E010E0810086E0950096E08C006F014
:1012380009C007F01200D8900634066E0734076E0E
:1012480006C006F007C007F0120020EE01F00650B5
:10125800D9260750DA22020EDE18D8A4120020EE92
:1012680010F00650D9260750DA22010EDF6E20EE64
:1012780008F00650D9260750DA22FF0EDF6E12005A
:1012880020EE01F00650D9260750DA22020EDE18A9
:10129800D8A4120020EE10F00650D9260750DA2202
:1012A800010EDF6E20EE08F00650D9260750DA222C
:1012B800FF0EDF6E120020EE01F00650D92607500F
:1012C800DA22020EDE18D8A4120020EE10F0065022
:1012D800D9260750DA22010EDF6E20EE08F00650FC
:1012E800D9260750DA22FF0EDF6E120020EE01F039
:1012F8000650D9260750DA22020EDE18D8A41200AA
:1013080020EE10F00650D9260750DA22010EDF6EC3
:1013180020EE08F00650D9260750DA22FF0EDF6EBD
:1013280012009250010B926E9350FC0B936E9650E4
:10133800F80B966E000E956E000E076E000E066E88
:10134800000E54EC04F0000E076E000E066E010E3F
:1013580054EC04F0120032EC0AF0D0683FB03F9031
:101368007CEC0AF006040710D8A408D014EC07F0A7
:10137800000E076E000E066E77EC0AF0E3EC08F03C
:101388000400ECD7000E0A6E0A500824D96E000E2D
:101398000920DA6E0A500624E16E000E0720E26E7C
:1013A800DFCFE7FF0A2A070E0A64EED71200708023
:1013B8007082709470967098709A708C708E718626
:1013C8007188718A7184719271907280729272843C
:1013D800718C718E120006500802F3CF0AF0F4CF18
:1013E8000BF006500902F3500B2607500802F35081
:1013F8000B260AC006F00BC007F01200000E016EA3
:10140800000E026ECECF01F0CFCF02F000F09E0E9C
:101418000226570E012602C0CFFF5B0ECE6E1200C9
:10142800020E076EAA0E066E000E54EC04F0000EB3
:10143800076E000E066E010E54EC04F01200000E4A
:10144800896E000E8A6E000E8B6E0C0E926E880EE0
:10145800936EBF0E946ED08E3F861200D18004002A
:1014680023EC0AF0BFEC07F052EC0AF03FEC0AF06C
:1014780095EC09F01200D38CD38AD3883D0ECD6E3B
:101488009E0ECF6E570ECE6E9D80CD8012004B50B3
:10149800066E4C50076E4B4A4C2A1200F28EF28CA4
:1014A800D08ED08EF28C9F901200020E076E200E06
:1014B800066E1200000E076E1B0E066E1200000E5E
:1014C800076EFE0E066E1200000E076EFE0E066E0A
:1014D8001200000E076EFE0E066E1200000E076E5A
:1014E800000E066E120006C042F007C043F012005C
:1014F80042C006F043C007F0120001C042F002C02B
:0D15080043F0120011000100010014000169
:10151600000E076E06681200066E06C04AF012003C
:0E1526000600549211004A50120012001200EA
:020000040020DA
:08000000FFFFFFFFFFFFFFFF00
:020000040030CA
:0E000000FF081F1EFF8281FF0FC00FE00F40A0
:00000001FF
